:020000040000fa
:080000000002040000000000f2
:020000040000fa
:0400080022030000cf
:020000040000fa
:04000c0022030000cb
:020000040000fa
:0400100022030000c7
:020000040000fa
:0400140022030000c3
:020000040000fa
:0400180022030000bf
:020000040000fa
:04001c0022030000bb
:020000040000fa
:0400200022030000b7
:020000040000fa
:0400240022030000b3
:020000040000fa
:0400280022030000af
:020000040000fa
:04002c0022030000ab
:020000040000fa
:0400300022030000a7
:020000040000fa
:04003400c8020000fe
:020000040000fa
:04003800220300009f
:020000040000fa
:04003c00220300009b
:020000040000fa
:040040002203000097
:020000040000fa
:040044002203000093
:020000040000fa
:04004800220300008f
:020000040000fa
:04004c00220300008b
:020000040000fa
:040050002203000087
:020000040000fa
:040054002203000083
:020000040000fa
:04005800220300007f
:020000040000fa
:04005c00220300007b
:020000040000fa
:040060002203000077
:020000040000fa
:040064002203000073
:020000040000fa
:04006800220300006f
:020000040000fa
:04006c00220300006b
:020000040000fa
:040070002203000067
:020000040000fa
:040074002203000063
:020000040000fa
:04007800220300005f
:020000040000fa
:04007c00220300005b
:020000040000fa
:040080002203000057
:020000040000fa
:040084002203000053
:020000040000fa
:04008800220300004f
:020000040000fa
:04008c00220300004b
:020000040000fa
:040090002203000047
:020000040000fa
:040094002203000043
:020000040000fa
:04009800220300003f
:020000040000fa
:04009c00220300003b
:020000040000fa
:0400a0002203000037
:020000040000fa
:0400a4002203000033
:020000040000fa
:0400a800220300002f
:020000040000fa
:0400ac00220300002b
:020000040000fa
:0400b0002203000027
:020000040000fa
:0400b4002203000023
:020000040000fa
:0400b800220300001f
:020000040000fa
:0400bc00220300001b
:020000040000fa
:0400c0002203000017
:020000040000fa
:0400c4002203000013
:020000040000fa
:0400c800220300000f
:020000040000fa
:0400cc00220300000b
:020000040000fa
:0400d0002203000007
:020000040000fa
:0400d4002203000003
:020000040000fa
:0400d80022030000ff
:020000040000fa
:0400dc0022030000fb
:020000040000fa
:0400e00022030000f7
:020000040000fa
:0400e40022030000f3
:020000040000fa
:0400e80022030000ef
:020000040000fa
:0400ec0022030000eb
:020000040000fa
:0400f00022030000e7
:020000040000fa
:0400f40022030000e3
:020000040000fa
:0400f80022030000df
:020000040000fa
:0400fc0022030000db
:020000040000fa
:0401000022030000d6
:020000040000fa
:0401040022030000d2
:020000040000fa
:0401080022030000ce
:020000040000fa
:04010c0022030000ca
:020000040000fa
:0401100022030000c6
:020000040000fa
:0401140022030000c2
:020000040000fa
:0401180022030000be
:020000040000fa
:04011c0022030000ba
:020000040000fa
:0401200022030000b6
:020000040000fa
:0401240022030000b2
:020000040000fa
:0401280022030000ae
:020000040000fa
:04012c0022030000aa
:020000040000fa
:0401300022030000a6
:020000040000fa
:0401340022030000a2
:020000040000fa
:04013800220300009e
:020000040000fa
:04013c00220300009a
:020000040000fa
:040140002203000096
:020000040000fa
:040144002203000092
:020000040000fa
:04014800220300008e
:020000040000fa
:04014c00220300008a
:020000040000fa
:040150002203000086
:020000040000fa
:040154002203000082
:020000040000fa
:04015800220300007e
:020000040000fa
:04015c00220300007a
:020000040000fa
:040160002203000076
:020000040000fa
:040164002203000072
:020000040000fa
:04016800220300006e
:020000040000fa
:04016c00220300006a
:020000040000fa
:040170002203000066
:020000040000fa
:040174002203000062
:020000040000fa
:04017800220300005e
:020000040000fa
:04017c00220300005a
:020000040000fa
:040180002203000056
:020000040000fa
:040184002203000052
:020000040000fa
:04018800220300004e
:020000040000fa
:04018c00220300004a
:020000040000fa
:040190002203000046
:020000040000fa
:040194002203000042
:020000040000fa
:04019800220300003e
:020000040000fa
:04019c00220300003a
:020000040000fa
:0401a0002203000036
:020000040000fa
:0401a4002203000032
:020000040000fa
:0401a800220300002e
:020000040000fa
:0401ac00220300002a
:020000040000fa
:0402080022030000cd
:020000040000fa
:04020c0022030000c9
:020000040000fa
:0402100022030000c5
:020000040000fa
:0402140022030000c1
:020000040000fa
:0402180022030000bd
:020000040000fa
:04021c0022030000b9
:020000040000fa
:0402200022030000b5
:020000040000fa
:0402240022030000b1
:020000040000fa
:0402280022030000ad
:020000040000fa
:04022c0022030000a9
:020000040000fa
:0402300022030000a5
:020000040000fa
:0402340022030000a1
:020000040000fa
:04023800220300009d
:020000040000fa
:04023c002203000099
:020000040000fa
:040240002203000095
:020000040000fa
:040244002203000091
:020000040000fa
:04024800220300008d
:020000040000fa
:04024c002203000089
:020000040000fa
:040250002203000085
:020000040000fa
:040254002203000081
:020000040000fa
:04025800220300007d
:020000040000fa
:04025c002203000079
:020000040000fa
:040260002203000075
:020000040000fa
:040264002203000071
:020000040000fa
:04026800220300006d
:020000040000fa
:04026c002203000069
:020000040000fa
:040270002203000065
:020000040000fa
:040274002203000061
:020000040000fa
:04027800220300005d
:020000040000fa
:04027c002203000059
:020000040000fa
:040280002203000055
:020000040000fa
:040284002203000051
:020000040000fa
:04028800220300004d
:020000040000fa
:04028c002203000049
:020000040000fa
:040290002203000045
:020000040000fa
:040294002203000041
:020000040000fa
:04029800220300003d
:020000040000fa
:04029c002203000039
:020000040000fa
:0402a0002203000035
:020000040000fa
:0402a4002203000031
:020000040000fa
:0402a800220300002d
:020000040000fa
:0402ac002203000029
:020000040000fa
:0402b0002203000025
:020000040000fa
:0402b4002203000021
:020000040000fa
:0402b800220300001d
:020000040000fa
:0402bc002203000019
:020000040000fa
:0402c0002203000015
:020000040000fa
:0402c4002203000011
:020000040000fa
:0402c800220300000d
:020000040000fa
:0402cc002203000009
:020000040000fa
:0402d0002203000005
:020000040000fa
:0402d4002203000001
:020000040000fa
:0402d80022030000fd
:020000040000fa
:0402dc0022030000f9
:020000040000fa
:0402e00022030000f5
:020000040000fa
:0402e40022030000f1
:020000040000fa
:0402e80022030000ed
:020000040000fa
:0402ec0022030000e9
:020000040000fa
:0402f00022030000e5
:020000040000fa
:0402f40022030000e1
:020000040000fa
:0402f80022030000dd
:020000040000fa
:0402fc0022030000d9
:020000040000fa
:0403000022030000d4
:020000040000fa
:0403040022030000d0
:020000040000fa
:0403080022030000cc
:020000040000fa
:04030c0022030000c8
:020000040000fa
:0403100022030000c4
:020000040000fa
:0403140022030000c0
:020000040000fa
:0403180022030000bc
:020000040000fa
:04031c0022030000b8
:020000040000fa
:0403200022030000b4
:020000040000fa
:0403240022030000b0
:020000040000fa
:0403280022030000ac
:020000040000fa
:04032c0022030000a8
:020000040000fa
:0403300022030000a4
:020000040000fa
:0403340022030000a0
:020000040000fa
:04033800220300009c
:020000040000fa
:04033c002203000098
:020000040000fa
:040340002203000094
:020000040000fa
:040344002203000090
:020000040000fa
:04034800220300008c
:020000040000fa
:04034c002203000088
:020000040000fa
:040350002203000084
:020000040000fa
:040354002203000080
:020000040000fa
:04035800220300007c
:020000040000fa
:04035c002203000078
:020000040000fa
:040360002203000074
:020000040000fa
:040364002203000070
:020000040000fa
:04036800220300006c
:020000040000fa
:04036c002203000068
:020000040000fa
:040370002203000064
:020000040000fa
:040374002203000060
:020000040000fa
:04037800220300005c
:020000040000fa
:04037c002203000058
:020000040000fa
:040380002203000054
:020000040000fa
:040384002203000050
:020000040000fa
:04038800220300004c
:020000040000fa
:04038c002203000048
:020000040000fa
:040390002203000044
:020000040000fa
:040394002203000040
:020000040000fa
:04039800220300003c
:020000040000fa
:04039c002203000038
:020000040000fa
:0403a0002203000034
:020000040000fa
:0403a4002203000030
:020000040000fa
:0403a800220300002c
:020000040000fa
:0403ac002203000028
:020000040000fa
:100400004fe520000eff20000e01880000000000d4
:10041000000020000000e000020032000001200087
:100420002002880014000700880007000000e00098
:1004300003003a00804a200001002000020037003b
:100440000000200001002000810f70000100320038
:1004500014000700000020000000e000020032004d
:10046000000002000000000048030200000000003d
:100470000040da000000fe004440a9000000200017
:100480000000e0000300320000002000a00188000e
:100490004440a800000006008a1f78008b1f7800e7
:1004a0000000060091018800800478000000eb0045
:1004b0001a003700e284440032a0b4009905ba0063
:1004c000e284440032a0b4009906ba00e2844400f9
:1004d00032a0b4000006eb00476fde00fd07b2005b
:1004e000636ce10003003a00ebff07000000eb0043
:1004f0000a003700606ce10004003a00005deb0088
:100500008b05e900fdff3e00040037006168e10053
:10051000010032000086eb000b00070019c7ba008b
:100520001905ba000e04e00003003a000a00e000da
:10053000e0ff3a0000000600fe07b2009e018800be
:100540008a047800f5ff3700395dba008b05e900b1
:100550000c003200295dba008b05e900080032006a
:100560000c00e00003003a00e284440032a0b40032
:10057000f5ff370019ddba008b05e900faff3a00f4
:100580008904e800e184440032a0b40000000600c1
:1005900000a0fe003400f800881f7800080020004a
:1005a000a80188004f0478000000fa004040800055
:1005b0005140800061004000e080480040408800d9
:1005c000514088004240800053408000500020008d
:1005d00001002000800f5100818f590001003a0076
:1005e000c462a800424080005340800010322000c6
:1005f00001002000800f5100818f590003003a0054
:10060000c462a90010c0b30010e8b70040408000e9
:1006100051408000028020002201900000007800fc
:100620008000400020812000008040000208780007
:100630008460a9000080fa003400f9000080fe0008
:10064000004006000040da000000fe000000050047
:100650006022b800060220000000d0008180d20095
:100660000482d2008582d2000000a0000202520063
:1006700083825a00030031000202420083824a0052
:100680000000a1000603e900f3ff3a0000000600a5
:020000040000fa
:100690000200fa00210007002b00070032000700cb
:1006a000700007007d00070000b02400010020005a
:1006b00037000700010037000000000010c8bf002d
:1006c0000004e000fcff32009460a9000000eb0091
:1006d000000f78000b0037000040eb004a000700d5
:1006e0001e00780080004000208120000080400033
:1006f00010007800004078006f4060004200070062
:100700001e0fe800f03120009e007800808f50001e
:10071000f1ff36001068ef00e8ff37000000fa0034
:10072000213a8000f0ff280000806000203a880015
:10073000213a8000f08f2f0000806000203a88006e
:100740000080fa00000006000000fa00e024ef003c
:10075000c062a900c222ef00e224ef00c9e2a800b3
:100760000080fa00000006000000fa0000002800e7
:10077000200888000021ef00f00e200010088800fb
:100780008460a9009460a8000080fa0000000600c0
:100790000400fa00008fbe001e01be004418dd00f8
:1007a000cc10de00810070004410dd000001be00ae
:1007b00000402200410f2000a5ff07000000780044
:1007c0000000e900401188002022ef002062a9000b
:1007d0002222ef0021e2a8002342a800111180008c
:1007e000f0f32f00008060000070a000101188005e
:1007f000011180000030200001007000001188000d
:100800000080fa00000006000200fa00004f7800a5
:100810000000000011118000002020000080600016
:100820000000e000fbff3a001e80fb002011880062
:100830001e4078000080fa00000006000000fa0068
:100840000000000010118000610060000000e00066
:10085000fcff320030118000004078000080fa0078
:10086000000006000000fa006421ef00210b800068
:100870000070200001007000200b88000080eb0059
:10088000c00b88007421ef0065e1a8008500a90075
:100890009500a9000080fa00000006000000fa00a0
:1008a000028020006000b8000089be00a10b80001b
:1008b00000802000310098000080fa00000006004f
:1008c0000200fa00a10b8000010f780000802000d8
:1008d000300090009e0f500009003600008020007c
:1008e000300090000080ea001e0040000000e80098
:1008f000800078000080200021009800060037006a
:1009000000802000300090001e0010008000780061
:100910000080200021009800008020009e007800c8
:1009200031009800008020001001be0000802000ef
:1009300020009000cf80de0002004000838048004d
:10094000028020000089be000080fa00000006003e
:020000040000fa
:10095000520e000002000000020000000100000032
:100960000008000052060000000000000000000027
:020000040000fa
:0200000401f009
:04000000ffff0000fe
:020000040000fa
:0200000401f009
:04000800ffff0000f6
:020000040000fa
:0200000401f009
:04000c00f9ff0000f8
:020000040000fa
:0200000401f009
:0400100033ff0000ba
:020000040000fa
:0200000401f009
:040014005fff00008a
:020000040000fa
:0200000401f009
:04001800ffff0000e6
:020000040000fa
:0200000401f009
:04001c00fdff0000e4
:00000001FF
