:020000040000fa
:080000000002040000000000f2
:020000040000fa
:04000800b60300003b
:020000040000fa
:04000c00b603000037
:020000040000fa
:04001000b603000033
:020000040000fa
:04001400b60300002f
:020000040000fa
:04001800b60300002b
:020000040000fa
:04001c00b603000027
:020000040000fa
:04002000b603000023
:020000040000fa
:04002400b60300001f
:020000040000fa
:04002800b60300001b
:020000040000fa
:04002c00b603000017
:020000040000fa
:04003000b603000013
:020000040000fa
:04003400c8020000fe
:020000040000fa
:04003800b60300000b
:020000040000fa
:04003c00b603000007
:020000040000fa
:04004000b603000003
:020000040000fa
:04004400b6030000ff
:020000040000fa
:04004800b6030000fb
:020000040000fa
:04004c00b6030000f7
:020000040000fa
:04005000b6030000f3
:020000040000fa
:04005400b6030000ef
:020000040000fa
:04005800b6030000eb
:020000040000fa
:04005c00b6030000e7
:020000040000fa
:04006000b6030000e3
:020000040000fa
:04006400b6030000df
:020000040000fa
:04006800b6030000db
:020000040000fa
:04006c00b6030000d7
:020000040000fa
:04007000b6030000d3
:020000040000fa
:04007400b6030000cf
:020000040000fa
:04007800b6030000cb
:020000040000fa
:04007c00b6030000c7
:020000040000fa
:04008000b6030000c3
:020000040000fa
:04008400b6030000bf
:020000040000fa
:04008800b6030000bb
:020000040000fa
:04008c00b6030000b7
:020000040000fa
:04009000b6030000b3
:020000040000fa
:04009400b6030000af
:020000040000fa
:04009800b6030000ab
:020000040000fa
:04009c00b6030000a7
:020000040000fa
:0400a000b6030000a3
:020000040000fa
:0400a400b60300009f
:020000040000fa
:0400a800b60300009b
:020000040000fa
:0400ac00b603000097
:020000040000fa
:0400b000b603000093
:020000040000fa
:0400b400b60300008f
:020000040000fa
:0400b800b60300008b
:020000040000fa
:0400bc00b603000087
:020000040000fa
:0400c000b603000083
:020000040000fa
:0400c400b60300007f
:020000040000fa
:0400c800b60300007b
:020000040000fa
:0400cc00b603000077
:020000040000fa
:0400d000b603000073
:020000040000fa
:0400d400b60300006f
:020000040000fa
:0400d800b60300006b
:020000040000fa
:0400dc00b603000067
:020000040000fa
:0400e000b603000063
:020000040000fa
:0400e400b60300005f
:020000040000fa
:0400e800b60300005b
:020000040000fa
:0400ec00b603000057
:020000040000fa
:0400f000b603000053
:020000040000fa
:0400f400b60300004f
:020000040000fa
:0400f800b60300004b
:020000040000fa
:0400fc00b603000047
:020000040000fa
:04010000b603000042
:020000040000fa
:04010400b60300003e
:020000040000fa
:04010800b60300003a
:020000040000fa
:04010c00b603000036
:020000040000fa
:04011000b603000032
:020000040000fa
:04011400b60300002e
:020000040000fa
:04011800b60300002a
:020000040000fa
:04011c00b603000026
:020000040000fa
:04012000b603000022
:020000040000fa
:04012400b60300001e
:020000040000fa
:04012800b60300001a
:020000040000fa
:04012c00b603000016
:020000040000fa
:04013000b603000012
:020000040000fa
:04013400b60300000e
:020000040000fa
:04013800b60300000a
:020000040000fa
:04013c00b603000006
:020000040000fa
:04014000b603000002
:020000040000fa
:04014400b6030000fe
:020000040000fa
:04014800b6030000fa
:020000040000fa
:04014c00b6030000f6
:020000040000fa
:04015000b6030000f2
:020000040000fa
:04015400b6030000ee
:020000040000fa
:04015800b6030000ea
:020000040000fa
:04015c00b6030000e6
:020000040000fa
:04016000b6030000e2
:020000040000fa
:04016400b6030000de
:020000040000fa
:04016800b6030000da
:020000040000fa
:04016c00b6030000d6
:020000040000fa
:04017000b6030000d2
:020000040000fa
:04017400b6030000ce
:020000040000fa
:04017800b6030000ca
:020000040000fa
:04017c00b6030000c6
:020000040000fa
:04018000b6030000c2
:020000040000fa
:04018400b6030000be
:020000040000fa
:04018800b6030000ba
:020000040000fa
:04018c00b6030000b6
:020000040000fa
:04019000b6030000b2
:020000040000fa
:04019400b6030000ae
:020000040000fa
:04019800b6030000aa
:020000040000fa
:04019c00b6030000a6
:020000040000fa
:0401a000b6030000a2
:020000040000fa
:0401a400b60300009e
:020000040000fa
:0401a800b60300009a
:020000040000fa
:0401ac00b603000096
:020000040000fa
:04020800b603000039
:020000040000fa
:04020c00b603000035
:020000040000fa
:04021000b603000031
:020000040000fa
:04021400b60300002d
:020000040000fa
:04021800b603000029
:020000040000fa
:04021c00b603000025
:020000040000fa
:04022000b603000021
:020000040000fa
:04022400b60300001d
:020000040000fa
:04022800b603000019
:020000040000fa
:04022c00b603000015
:020000040000fa
:04023000b603000011
:020000040000fa
:04023400b60300000d
:020000040000fa
:04023800b603000009
:020000040000fa
:04023c00b603000005
:020000040000fa
:04024000b603000001
:020000040000fa
:04024400b6030000fd
:020000040000fa
:04024800b6030000f9
:020000040000fa
:04024c00b6030000f5
:020000040000fa
:04025000b6030000f1
:020000040000fa
:04025400b6030000ed
:020000040000fa
:04025800b6030000e9
:020000040000fa
:04025c00b6030000e5
:020000040000fa
:04026000b6030000e1
:020000040000fa
:04026400b6030000dd
:020000040000fa
:04026800b6030000d9
:020000040000fa
:04026c00b6030000d5
:020000040000fa
:04027000b6030000d1
:020000040000fa
:04027400b6030000cd
:020000040000fa
:04027800b6030000c9
:020000040000fa
:04027c00b6030000c5
:020000040000fa
:04028000b6030000c1
:020000040000fa
:04028400b6030000bd
:020000040000fa
:04028800b6030000b9
:020000040000fa
:04028c00b6030000b5
:020000040000fa
:04029000b6030000b1
:020000040000fa
:04029400b6030000ad
:020000040000fa
:04029800b6030000a9
:020000040000fa
:04029c00b6030000a5
:020000040000fa
:0402a000b6030000a1
:020000040000fa
:0402a400b60300009d
:020000040000fa
:0402a800b603000099
:020000040000fa
:0402ac00b603000095
:020000040000fa
:0402b000b603000091
:020000040000fa
:0402b400b60300008d
:020000040000fa
:0402b800b603000089
:020000040000fa
:0402bc00b603000085
:020000040000fa
:0402c000b603000081
:020000040000fa
:0402c400b60300007d
:020000040000fa
:0402c800b603000079
:020000040000fa
:0402cc00b603000075
:020000040000fa
:0402d000b603000071
:020000040000fa
:0402d400b60300006d
:020000040000fa
:0402d800b603000069
:020000040000fa
:0402dc00b603000065
:020000040000fa
:0402e000b603000061
:020000040000fa
:0402e400b60300005d
:020000040000fa
:0402e800b603000059
:020000040000fa
:0402ec00b603000055
:020000040000fa
:0402f000b603000051
:020000040000fa
:0402f400b60300004d
:020000040000fa
:0402f800b603000049
:020000040000fa
:0402fc00b603000045
:020000040000fa
:04030000b603000040
:020000040000fa
:04030400b60300003c
:020000040000fa
:04030800b603000038
:020000040000fa
:04030c00b603000034
:020000040000fa
:04031000b603000030
:020000040000fa
:04031400b60300002c
:020000040000fa
:04031800b603000028
:020000040000fa
:04031c00b603000024
:020000040000fa
:04032000b603000020
:020000040000fa
:04032400b60300001c
:020000040000fa
:04032800b603000018
:020000040000fa
:04032c00b603000014
:020000040000fa
:04033000b603000010
:020000040000fa
:04033400b60300000c
:020000040000fa
:04033800b603000008
:020000040000fa
:04033c00b603000004
:020000040000fa
:04034000b603000000
:020000040000fa
:04034400b6030000fc
:020000040000fa
:04034800b6030000f8
:020000040000fa
:04034c00b6030000f4
:020000040000fa
:04035000b6030000f0
:020000040000fa
:04035400b6030000ec
:020000040000fa
:04035800b6030000e8
:020000040000fa
:04035c00b6030000e4
:020000040000fa
:04036000b6030000e0
:020000040000fa
:04036400b6030000dc
:020000040000fa
:04036800b6030000d8
:020000040000fa
:04036c00b6030000d4
:020000040000fa
:04037000b6030000d0
:020000040000fa
:04037400b6030000cc
:020000040000fa
:04037800b6030000c8
:020000040000fa
:04037c00b6030000c4
:020000040000fa
:04038000b6030000c0
:020000040000fa
:04038400b6030000bc
:020000040000fa
:04038800b6030000b8
:020000040000fa
:04038c00b6030000b4
:020000040000fa
:04039000b6030000b0
:020000040000fa
:04039400b6030000ac
:020000040000fa
:04039800b6030000a8
:020000040000fa
:04039c00b6030000a4
:020000040000fa
:0403a000b6030000a0
:020000040000fa
:0403a400b60300009c
:020000040000fa
:0403a800b603000098
:020000040000fa
:0403ac00b603000094
:020000040000fa
:10040000af8120000eff20000e01880000000000d8
:10041000000020000000e000020032000001200087
:100420002002880014000700d20007000000e0004e
:1004300003003a00c04f20000100200002003700f6
:100440000000200001002000810f70000100320038
:1004500014000700000020000000e000020032004d
:100460000000020000000000bc03020000000000c9
:100470000040da000000fe004440a9000000200017
:100480000000e0000300320000002000a00188000e
:100490004440a800000006008a1f78008b1f7800e7
:1004a0000000060091018800800478000000eb0045
:1004b0001a003700e284440032a0b4009905ba0063
:1004c000e284440032a0b4009906ba00e2844400f9
:1004d00032a0b4000006eb00476fde00fd07b2005b
:1004e000636ce10003003a00ebff07000000eb0043
:1004f0000a003700606ce10004003a00005deb0088
:100500008b05e900fdff3e00040037006168e10053
:10051000010032000086eb000b00070019c7ba008b
:100520001905ba000e04e00003003a000a00e000da
:10053000e0ff3a0000000600fe07b2009e018800be
:100540008a047800f5ff3700395dba008b05e900b1
:100550000c003200295dba008b05e900080032006a
:100560000c00e00003003a00e284440032a0b40032
:10057000f5ff370019ddba008b05e900faff3a00f4
:100580008904e800e184440032a0b40000000600c1
:1005900000a0fe003400f800881f7800080020004a
:1005a000a80188004f0478000000fa000040800095
:1005b0001140800061004000e08048000040880059
:1005c0001140880040408000514080000001be0082
:1005d0004206b0000380b00000408000114080005f
:1005e000800f5100818f590047003e00004080007d
:1005f0001140800040408800514088002040800029
:100600003140800061004000e080480020408800c8
:1006100031408800511680000000280000806000f2
:100620000000e0000a003a0014c8bf000040e800e3
:1006300014e8b70014c8bf00e54f500005003600ad
:1006400014c8bf000040e90014e8b70001003700fb
:100650001468ef0050168000680060000000e000a1
:100660000a003a0015c8bf000040e80015e8b700ce
:1006700015c8bf00e54f50000500360015c8bf0083
:100680000040e90015e8b700010037001568ef00e9
:10069000418120009140780010c0b300e4cf5000a9
:1006a00001003e000040eb0016e8b7005181200039
:1006b0009140780010c0b300e4cf500001003e002c
:1006c0000040eb0017e8b70016c8bf000004e000c8
:1006d0000500320050168000620060000000e0005b
:1006e00001003a00cc22a80017c8bf000004e000b7
:1006f0000500320050168000620060000000e0003b
:1007000001003200cc22a9006040800071408000ce
:100710000001be00823eb0000380b0002040800097
:1007200031408000800f5100818f59000a003e0047
:100730002040800031408000604088007140880087
:10074000804080009140800061004000e0804800cf
:1007500080408800914088008460a9000080fa00f1
:100760003400f9000080fe00004006000040da007e
:080770000000fe00000005007e
:020000040000fa
:100778000200fa000b00070015000700210007001f
:100788002a000700430007000000eb004d000700a7
:10079800000f7800000a20000100200086000700f2
:1007a800f9ff37000000fa00213a8000f0ff280026
:1007b80000806000203a8800213a8000f08f2f00e6
:1007c80000806000203a88000080fa0000000600df
:1007d8000000fa00e024ef00e224ef00e004a800a3
:1007e800c002a800c822a900c902a900c862a800be
:1007f8006ee0a800c9e2a8006f60a8000080fa00b7
:10080800000006000000fa00000028002008880008
:100818000021ef00f0092000100888008460a9007a
:100828009460a8000080fa00000006000000fa00aa
:100838004021ef0041e1a800010a8000f0f32f00f9
:1008480000806000000a8800010a800000ff2f0075
:10085800008060005000b300000a88004221ef00c9
:100868004421ef004621ef004721a8004821ef006e
:100878004a21ef005021ef0000fa2000a00a88006a
:100888005821ef00007d2000e00a88000080fa006f
:10089800000006000000fa0000472000001a880047
:1008a8004223ef0030002100201a88005023ef0077
:1008b80085a0a90095a0a90041e3a8000080fa003e
:1008c800000006000200fa00000f78009e00780081
:1008d800411a88004023a80000000000001a800088
:1008e800610060000000e000fcff3200001880009a
:1008f8000080fa00000006000000fa0010118000d5
:1009080000407800614060000080fa0000000600a6
:100918000200fa00004f780000000000111180006a
:1009280000202000008060000000e000fbff3a008b
:100938001e80fb00201188001e4078000080fa000d
:10094800000006000000fa00301180000040780026
:100958000080fa00000006000600fa001007980060
:1009680041479800524798000040eb00004f78003c
:100978000a0037001e80fb009e00900000804000a7
:10098800904078004e40900080cf500002003a001e
:1009980010c0b300060037001e4fe8005e4090000c
:1009a8009e40780080cf5000f2ff39000040eb00f5
:0809b8000080fa0000000600b7
:020000040000fa
:1009c000f03fb1000180b10006003500ee030900e0
:1009d00000000000403fb1000180b100fbff3d007e
:1009e0001000b000203fb000020035000080090078
:0809f0000000000000000600f9
:020000040000fa
:1009f80018080000020000000200000001000000ca
:100a080000080000180000000000000000000000be
:020000040000fa
:0200000401f009
:04000000ffff0000fe
:020000040000fa
:0200000401f009
:04000800ffff0000f6
:020000040000fa
:0200000401f009
:04000c00f9ff0000f8
:020000040000fa
:0200000401f009
:0400100033ff0000ba
:020000040000fa
:0200000401f009
:040014005fff00008a
:020000040000fa
:0200000401f009
:04001800ffff0000e6
:020000040000fa
:0200000401f009
:04001c00fdff0000e4
:00000001FF
