:020000040000fa
:080000000002040000000000f2
:020000040000fa
:04000800c60300002b
:020000040000fa
:04000c00c603000027
:020000040000fa
:04001000c603000023
:020000040000fa
:04001400c60300001f
:020000040000fa
:04001800c60300001b
:020000040000fa
:04001c00c603000017
:020000040000fa
:04002000c603000013
:020000040000fa
:04002400c60300000f
:020000040000fa
:04002800c60300000b
:020000040000fa
:04002c00c603000007
:020000040000fa
:04003000c603000003
:020000040000fa
:04003400c8020000fe
:020000040000fa
:04003800c6030000fb
:020000040000fa
:04003c00c6030000f7
:020000040000fa
:04004000c6030000f3
:020000040000fa
:04004400c6030000ef
:020000040000fa
:04004800c6030000eb
:020000040000fa
:04004c00c6030000e7
:020000040000fa
:04005000c6030000e3
:020000040000fa
:04005400c6030000df
:020000040000fa
:04005800c6030000db
:020000040000fa
:04005c00c6030000d7
:020000040000fa
:04006000c6030000d3
:020000040000fa
:04006400c6030000cf
:020000040000fa
:04006800c6030000cb
:020000040000fa
:04006c00c6030000c7
:020000040000fa
:04007000c6030000c3
:020000040000fa
:04007400c6030000bf
:020000040000fa
:04007800c6030000bb
:020000040000fa
:04007c00c6030000b7
:020000040000fa
:04008000c6030000b3
:020000040000fa
:04008400c6030000af
:020000040000fa
:04008800c6030000ab
:020000040000fa
:04008c00c6030000a7
:020000040000fa
:04009000c6030000a3
:020000040000fa
:04009400c60300009f
:020000040000fa
:04009800c60300009b
:020000040000fa
:04009c00c603000097
:020000040000fa
:0400a000c603000093
:020000040000fa
:0400a400c60300008f
:020000040000fa
:0400a800c60300008b
:020000040000fa
:0400ac00c603000087
:020000040000fa
:0400b000c603000083
:020000040000fa
:0400b400c60300007f
:020000040000fa
:0400b800c60300007b
:020000040000fa
:0400bc00c603000077
:020000040000fa
:0400c000c603000073
:020000040000fa
:0400c400c60300006f
:020000040000fa
:0400c800c60300006b
:020000040000fa
:0400cc00c603000067
:020000040000fa
:0400d000c603000063
:020000040000fa
:0400d400c60300005f
:020000040000fa
:0400d800c60300005b
:020000040000fa
:0400dc00c603000057
:020000040000fa
:0400e000c603000053
:020000040000fa
:0400e400c60300004f
:020000040000fa
:0400e800c60300004b
:020000040000fa
:0400ec00c603000047
:020000040000fa
:0400f000c603000043
:020000040000fa
:0400f400c60300003f
:020000040000fa
:0400f800c60300003b
:020000040000fa
:0400fc00c603000037
:020000040000fa
:04010000c603000032
:020000040000fa
:04010400c60300002e
:020000040000fa
:04010800c60300002a
:020000040000fa
:04010c00c603000026
:020000040000fa
:04011000c603000022
:020000040000fa
:04011400c60300001e
:020000040000fa
:04011800c60300001a
:020000040000fa
:04011c00c603000016
:020000040000fa
:04012000c603000012
:020000040000fa
:04012400c60300000e
:020000040000fa
:04012800c60300000a
:020000040000fa
:04012c00c603000006
:020000040000fa
:04013000c603000002
:020000040000fa
:04013400c6030000fe
:020000040000fa
:04013800c6030000fa
:020000040000fa
:04013c00c6030000f6
:020000040000fa
:04014000c6030000f2
:020000040000fa
:04014400c6030000ee
:020000040000fa
:04014800c6030000ea
:020000040000fa
:04014c00c6030000e6
:020000040000fa
:04015000c6030000e2
:020000040000fa
:04015400c6030000de
:020000040000fa
:04015800c6030000da
:020000040000fa
:04015c00c6030000d6
:020000040000fa
:04016000c6030000d2
:020000040000fa
:04016400c6030000ce
:020000040000fa
:04016800c6030000ca
:020000040000fa
:04016c00c6030000c6
:020000040000fa
:04017000c6030000c2
:020000040000fa
:04017400c6030000be
:020000040000fa
:04017800c6030000ba
:020000040000fa
:04017c00c6030000b6
:020000040000fa
:04018000c6030000b2
:020000040000fa
:04018400c6030000ae
:020000040000fa
:04018800c6030000aa
:020000040000fa
:04018c00c6030000a6
:020000040000fa
:04019000c6030000a2
:020000040000fa
:04019400c60300009e
:020000040000fa
:04019800c60300009a
:020000040000fa
:04019c00c603000096
:020000040000fa
:0401a000c603000092
:020000040000fa
:0401a400c60300008e
:020000040000fa
:0401a800c60300008a
:020000040000fa
:0401ac00c603000086
:020000040000fa
:04020800c603000029
:020000040000fa
:04020c00c603000025
:020000040000fa
:04021000c603000021
:020000040000fa
:04021400c60300001d
:020000040000fa
:04021800c603000019
:020000040000fa
:04021c00c603000015
:020000040000fa
:04022000c603000011
:020000040000fa
:04022400c60300000d
:020000040000fa
:04022800c603000009
:020000040000fa
:04022c00c603000005
:020000040000fa
:04023000c603000001
:020000040000fa
:04023400c6030000fd
:020000040000fa
:04023800c6030000f9
:020000040000fa
:04023c00c6030000f5
:020000040000fa
:04024000c6030000f1
:020000040000fa
:04024400c6030000ed
:020000040000fa
:04024800c6030000e9
:020000040000fa
:04024c00c6030000e5
:020000040000fa
:04025000c6030000e1
:020000040000fa
:04025400c6030000dd
:020000040000fa
:04025800c6030000d9
:020000040000fa
:04025c00c6030000d5
:020000040000fa
:04026000c6030000d1
:020000040000fa
:04026400c6030000cd
:020000040000fa
:04026800c6030000c9
:020000040000fa
:04026c00c6030000c5
:020000040000fa
:04027000c6030000c1
:020000040000fa
:04027400c6030000bd
:020000040000fa
:04027800c6030000b9
:020000040000fa
:04027c00c6030000b5
:020000040000fa
:04028000c6030000b1
:020000040000fa
:04028400c6030000ad
:020000040000fa
:04028800c6030000a9
:020000040000fa
:04028c00c6030000a5
:020000040000fa
:04029000c6030000a1
:020000040000fa
:04029400c60300009d
:020000040000fa
:04029800c603000099
:020000040000fa
:04029c00c603000095
:020000040000fa
:0402a000c603000091
:020000040000fa
:0402a400c60300008d
:020000040000fa
:0402a800c603000089
:020000040000fa
:0402ac00c603000085
:020000040000fa
:0402b000c603000081
:020000040000fa
:0402b400c60300007d
:020000040000fa
:0402b800c603000079
:020000040000fa
:0402bc00c603000075
:020000040000fa
:0402c000c603000071
:020000040000fa
:0402c400c60300006d
:020000040000fa
:0402c800c603000069
:020000040000fa
:0402cc00c603000065
:020000040000fa
:0402d000c603000061
:020000040000fa
:0402d400c60300005d
:020000040000fa
:0402d800c603000059
:020000040000fa
:0402dc00c603000055
:020000040000fa
:0402e000c603000051
:020000040000fa
:0402e400c60300004d
:020000040000fa
:0402e800c603000049
:020000040000fa
:0402ec00c603000045
:020000040000fa
:0402f000c603000041
:020000040000fa
:0402f400c60300003d
:020000040000fa
:0402f800c603000039
:020000040000fa
:0402fc00c603000035
:020000040000fa
:04030000c603000030
:020000040000fa
:04030400c60300002c
:020000040000fa
:04030800c603000028
:020000040000fa
:04030c00c603000024
:020000040000fa
:04031000c603000020
:020000040000fa
:04031400c60300001c
:020000040000fa
:04031800c603000018
:020000040000fa
:04031c00c603000014
:020000040000fa
:04032000c603000010
:020000040000fa
:04032400c60300000c
:020000040000fa
:04032800c603000008
:020000040000fa
:04032c00c603000004
:020000040000fa
:04033000c603000000
:020000040000fa
:04033400c6030000fc
:020000040000fa
:04033800c6030000f8
:020000040000fa
:04033c00c6030000f4
:020000040000fa
:04034000c6030000f0
:020000040000fa
:04034400c6030000ec
:020000040000fa
:04034800c6030000e8
:020000040000fa
:04034c00c6030000e4
:020000040000fa
:04035000c6030000e0
:020000040000fa
:04035400c6030000dc
:020000040000fa
:04035800c6030000d8
:020000040000fa
:04035c00c6030000d4
:020000040000fa
:04036000c6030000d0
:020000040000fa
:04036400c6030000cc
:020000040000fa
:04036800c6030000c8
:020000040000fa
:04036c00c6030000c4
:020000040000fa
:04037000c6030000c0
:020000040000fa
:04037400c6030000bc
:020000040000fa
:04037800c6030000b8
:020000040000fa
:04037c00c6030000b4
:020000040000fa
:04038000c6030000b0
:020000040000fa
:04038400c6030000ac
:020000040000fa
:04038800c6030000a8
:020000040000fa
:04038c00c6030000a4
:020000040000fa
:04039000c6030000a0
:020000040000fa
:04039400c60300009c
:020000040000fa
:04039800c603000098
:020000040000fa
:04039c00c603000094
:020000040000fa
:0403a000c603000090
:020000040000fa
:0403a400c60300008c
:020000040000fa
:0403a800c603000088
:020000040000fa
:0403ac00c603000084
:020000040000fa
:100400002f9620000eff20000e0188000000000043
:10041000000020000000e000020032000001200087
:100420002002880014000700da0007000000e00046
:1004300003003a0080c721000100200002003700bd
:100440000000200001002000810f70000100320038
:1004500014000700000020000000e000020032004d
:100460000000020000000000fe1302000000000077
:100470000040da000000fe004440a9000000200017
:100480000000e0000300320000002000a00188000e
:100490004440a800000006008a1f78008b1f7800e7
:1004a0000000060091018800800478000000eb0045
:1004b0001a003700e284440032a0b4009905ba0063
:1004c000e284440032a0b4009906ba00e2844400f9
:1004d00032a0b4000006eb00476fde00fd07b2005b
:1004e000636ce10003003a00ebff07000000eb0043
:1004f0000a003700606ce10004003a00005deb0088
:100500008b05e900fdff3e00040037006168e10053
:10051000010032000086eb000b00070019c7ba008b
:100520001905ba000e04e00003003a000a00e000da
:10053000e0ff3a0000000600fe07b2009e018800be
:100540008a047800f5ff3700395dba008b05e900b1
:100550000c003200295dba008b05e900080032006a
:100560000c00e00003003a00e284440032a0b40032
:10057000f5ff370019ddba008b05e900faff3a00f4
:100580008904e800e184440032a0b40000000600c1
:1005900000a0fe003400f800881f7800080020004a
:1005a000a80188004f0478000000fa000040800095
:1005b0001140800061004000e08048000040880059
:1005c0001140880040408000514080000001be0082
:1005d0004206b0000380b00000408000114080005f
:1005e000800f5100818f590063003e000040800061
:1005f0001140800040408800514088002040800029
:100600003140800061004000e080480020408800c8
:1006100031408800511680000000280000806000f2
:100620000000e0000a003a000cc8bf000040e800eb
:100630000ce8b7000cc8bf00e54f500005003600bd
:100640000cc8bf000040e9000ce8b700010037000b
:100650000c68ef0010168000640060000000e000ed
:100660000a003a000ec8bf000040e8000ee8b700dc
:100670000ec8bf00e54f5000050036000ec8bf0091
:100680000040e9000ee8b700010037000e68ef00f7
:1006900050168000680060000000e0000a003a0088
:1006a0000dc8bf000040e8000de8b7000dc8bf004e
:1006b000e54f5000050036000dc8bf000040e900be
:1006c0000de8b700010037000d68ef00101680003c
:1006d000680060000000e0000a003a000fc8bf0098
:1006e0000040e8000fe8b7000fc8bf00e54f50001a
:1006f000050036000fc8bf000040e9000fe8b70052
:10070000010037000f68ef00c180200091407800a1
:1007100010c0b300e4cf500001003e000040eb00e9
:1007200010e8b700d18020009140780010c0b300dd
:10073000e4cf500001003e000040eb0011e8b7009c
:10074000e18020009140780010c0b300e4cf500059
:1007500001003e000040eb0012e8b700f1802000ed
:100760009140780010c0b300e4cf500001003e007b
:100770000040eb0013e8b7008460a9000080fa0095
:100780003400f9000080fe00004006000040da005e
:100790000000fe000000050003f0a200889fbe00dc
:1007a0008a9fbe008c1f78001d01070024013300c2
:1007b0006450e1004f0032006420e100520032003a
:1007c00003826c0007003b000905d0000306d0003f
:1007d000820f54000c065d00020039000200320056
:1007e00089017800030678008582550004003d00e9
:1007f0000003fd008103fd008502ea008b854200b5
:10080000840f720002003b0060001000e0801800be
:100810006011b8000005eb007a28e1000a003900f9
:1008200006007800c75ddd00f707b200878075001d
:100830002d003700828171000a0178006105600097
:100840008180d1000080d3008502e900f9ff3b00e0
:10085000060440008784480002003b006004140046
:10086000e0841c000988a300070032008a8171001f
:1008700082817100610164008904d1000884d30081
:100880008b05e800170037000978a30013003a0031
:100890000b00e000130034008b05e900080444005d
:1008a00089844c000a4474000978a3000d003a00c2
:1008b0000b00e000070034008b05e9000804440049
:1008c00089844c0001003a000b0020000978a30045
:1008d000f7ff32000001eb00020037008281710057
:1008e0000a017800930007000cf0a70001f0a000b7
:1008f000dc0037006420e10002003a00838f6c00c6
:10090000dc0033000801be000200be00d500370045
:10091000889fbe008a9fbe008c1f7800c000070021
:10092000c700330003866c006450e1002e003200e3
:100930006420e100330032006150e1002f003200fa
:100940006120e1003100320085855500eb07b000e1
:1009500009002000080420000500370008044400b6
:1009600089844c000a0031000603430087834b0052
:100970000001530081815b00f8ff33000203be00d9
:100980000800a0000804440089844c00f6ff3900e8
:10099000c639dd008301730001003200130020001e
:1009a0008904d1000884d3000998a300050032000f
:1009b0000800a7000300a0008904d1000884d30028
:1009c0008b05e8008904d1000884d3000001eb0006
:1009d0000281d2005700070001f0a1000cf0a7002f
:1009e00001f0a0009f0037006420e100a100320068
:1009f0000801be000200be00f7ff37006120e100e1
:100a00009c0032006000b800f3ff370000002000b7
:100a100001f82700f0ff370014002000dc00370049
:100a2000f4ff2f00da0037000001be006700070066
:100a30000470a70003f0a1006509b10016003200a0
:100a40000d0035006828e10006003500f0ff2f009a
:100a5000f1ff27000300e00013003b000100280025
:100a60000000050000004000818048008502e90088
:100a7000fcff3a0008003700f88f420002003c00fb
:100a80008000eb00000005008100d1000080d30051
:100a90008502e800fcff3a000300e00002003b0092
:100aa00060001000e0801800000006000001be0099
:100ab000460007000470a70003f0a10003f8a3009c
:100ac00013003a006509b10010003200090035003a
:100ad0006928e1000200350001002800000005003f
:100ae00000004000818048008502e900fcff3a00d8
:100af00000000600f88f4200050035008100d1009b
:100b00000080d3008502e800fcff3a0000000600e8
:100b10008000eb00000005004f89de0082017800b4
:100b2000b60037006011b800c40037000400200090
:100b30009700370081002000618055000b003d00c8
:100b40000b00200061fe2f000100e1001d003400b9
:100b500082817100610164008904d1000884d3009e
:100b60000000e800faff3a00710020006100640014
:100b700003007000020060000900320061044400bc
:100b8000e0844c000988a500050032008b05e800d0
:100b90006808e10002003a008904d1000884d3000b
:100ba000f20f20000258e10005003d00c75ddd00a6
:100bb000f907b2008980750008007800000006007f
:100bc0000bf827008b00780000000500c70ade0044
:100bd000f107b200f50fb20008003200e1cf420089
:100be000020032000170a00024000500810f700097
:100bf000010032000408050044000500810f700068
:100c000002003a00140005008502e90000004000df
:100c100081c04800fcff3b000170a00024000500db
:100c20000004be00e9ff07000003be000405be008b
:100c30000200be00e5ff0700844f750000000600bb
:100c40000200be006450e100050036006420e100af
:100c5000020036000968a30001003a000800be0047
:100c60000160a0004f0678004f05be004f04be0093
:100c700000000600f0ff2f00f1ff2700f9ff37000a
:100c8000889fbe008a9fbe008c1f7800e4ff07008b
:100c9000ebff330003866c006450e1002400320057
:100ca0006420e100270032006150e10022003200a0
:100cb0006120e100210032008b854200eb07b1008a
:100cc0000134b800003ab8000804420089844a00a0
:100cd000013ab8000030b8008880400009014a009d
:100ce00004003300000040008180480002014900f8
:100cf0008b05e900c909dd008301700001003200a5
:100d000013002000c814de004814dd004709de008f
:100d10001200b200c808de000884700085ff0700da
:100d200001f0a1000cf0a70001f0a000cdff3700fa
:100d30006120e100cfff32000801be000200be00ca
:100d4000f7ff37006150e100fcff3a00c9ff3700b0
:100d50006022b800060220000000d0008180d2008e
:100d60000482d2008582d2000000a000020252005c
:100d700083825a00030031000202420083824a004b
:100d80000000a1000603e900f3ff3a00000006009e
:100d9000889fbe008a9fbe00841f7800a0ff0700c6
:100da0004f00780011003300f0ff2f00838f6c009c
:100db00006003b00040565000a00a7000800370094
:100dc00009f0a6001000200008003700820f540030
:100dd000838f5c00030039001000200001003e00fa
:100de0000000200009f0a7000000ea004f05be0047
:100df0004f04be000000e00000000600881f7800dd
:100e0000030478000300e00007003d0060001000cc
:100e1000e080180060011900e081190002003b0029
:100e200001f02d00030037000400070008f0a700c0
:100e300001f0a0004f04780000000600889fbe006b
:100e40008a9fbe000082700004027100048271005b
:100e5000260032000004be000200be006011b8008f
:100e60006b092000950220000182cf000a003900a2
:100e70000541b1000082cf00070039000541b100f3
:100e80000982cf00040039000541b1000882cf007b
:100e9000010039000541b100054252001200320044
:100ea0000a003b0082817100610164008100d10071
:100eb0000080d3008984d3000884d3008b05e80028
:100ec0000442e800f7ff3a00070037000804440036
:100ed00089844c0000004800818048008b05e900af
:100ee0000442e900f9ff3a0012ff07004f05be0077
:100ef0004f04be00000006000e00fa00889fbe00ee
:100f00008a9fbe008c1f7800a0bf9f00010478005c
:100f10000205be0080047800880078006c805700cd
:100f20003201070068066000000278000430a1006a
:100f3000e10f520013003a00f481570008017800d5
:100f4000afb8970009007800400007000000e000fb
:100f500002003a006000b800030037000fb89700a5
:100f60009fb89700ecfe0700c0b79f00d1b79f0065
:100f70006fb19700ffb197000a0141008b814900d2
:100f800016003700e20f520018003a00140020004b
:100f9000f481570008017800afb897000900780085
:100fa000f20207000000e00002003a006000b80012
:100fb000030037000fb897009fb89700d6fe0700d0
:100fc000c0b79f00d1b79f006fb19700ffb19700e6
:100fd000788057002d0207000a01be004fb097002d
:100fe000dfb09700bc0107000c00370000002000b4
:100ff00001f82700e30f5200050032006000b8003e
:10100000e40f520005003a00f0ff2f00f1ff270027
:10101000c0b79f00d1b79f0002003700c0b79f0044
:10102000d1b79f004fb09700dfb097000c00e000f1
:101030000100320001f0a2004f0678004f05be000b
:101040004f04be000080fa0000000600ea87470057
:10105000889fbe008a9fbe008c9fbe008e1f7800b6
:10106000d0b79f00e2b79f00030478006922b9005f
:10107000840678000006eb00010037001c00200009
:10108000810578008b00780000c3b300b14f1000d9
:10109000faff3200000ceb003814780008057800e5
:1010a0008004eb00290037008d8f540017003d00ad
:1010b00092002000110009008204d8000100e00025
:1010c00003003a0064054500001deb000015eb002d
:1010d0001b02fb00cfa2de000403b1000580b100bb
:1010e000a2002000030020001a00be00f4b79f00f9
:1010f00085bf9f009f0307007fb297008fba9700bc
:10110000001d420001954a000d003700100020002c
:1011100001002000180c4000589448008d8f5400a6
:1011200008003a0040c3b3009b4f10000500340094
:1011300012002000030020001a0d41005a954900ba
:101140008904e8008b05e8001c0020001b407800a3
:101150008000fb000103b100e98f5000d2ff360090
:101160008d8f5400010034008d047800e1c2b3007b
:10117000814f500001003a008b05e8000900e000b3
:101180002b003a000b007800050037000081eb00cf
:101190008081eb00180c4100589449001c0020008d
:1011a0008005780001c3b300b0cf1000f7ff320014
:1011b0001f0037008d8f54001c003d00920020005e
:1011c000110009008204d8000100e00003003a0089
:1011d00064054500001deb000015eb007bfa97004d
:1011e0000402fb00cfa2de000403b1000580b100c1
:1011f000a2002000030020001a00be00f4b79f00e8
:1012000085bf9f005b0307007fb297008fba9700ee
:10121000001d420001954a008904e8000080eb00af
:101220008080eb00180c4000589448001c002000ff
:101230000b0778008e0578003b00fb000003b1002f
:10124000e90f5000dbff36008c0578009d00200080
:10125000110009008d04d8000100e00016003200e2
:10126000818656001a01be00e00f5100e08f590040
:10127000070032000d00e9004200dd00619220000d
:10128000008040001000be003a030700008dbe0041
:10129000898446006168b900181c10001894180071
:1012a00005003700e984540092002000030020006c
:1012b000180c410058944900e88f54000400340091
:1012c0002a00be00e00f5000e08f5800f5ff32000a
:1012d0000c00e000340032001e40780051c6b3001c
:1012e000814f50000300320051c4b300814f5000c1
:1012f0002c003a005e457800b0c2b300804f550024
:1013000003003200d1c2b300814f550002003a0001
:101310000e07e80001003700004578000e0678004f
:101320006000b8008005eb000f003700f20f2e00c0
:10133000535f2000820f5000838f580009003c004b
:10134000a2002000030020000a0307000d01fb009b
:10135000cf91de000203b1000380b1000200400023
:10136000838048001b0020000c0778000e067800e0
:10137000bc4678000d01fb000203b100e90f5100eb
:10138000eaff3600d2c2b300824f550002003a0095
:1013900060001000e0801800180c400058944800cd
:1013a000010037008c057800efb197000300e000e2
:1013b000050032000b00e00001003a005fb7970023
:1013c0006fb097000e08780092002000110009000d
:1013d0008204d8004f0778004f06be004f05be00bc
:1013e0004f04be00af00b10000000600889fbe00a1
:1013f0008a9fbe008c9fbe00000478000106780022
:1014000098047800890578000b0578008a05780033
:10141000bb4678000d00fb00930007000000e000d1
:10142000f9ff3a00d0c2b30080cf560003003a0063
:101430000b05780081002000050037008000eb00dc
:10144000b0c2b30080cf560001003a000b0578000f
:101450001a407800e2c6b300824f50000300320009
:10146000e2c4b300824f500027003a008a0078009f
:101470005141780010c6b300804f51000400320083
:101480000000eb0013c4b300834f51005c003a002e
:1014900051417800e0c6b300804f51000400320093
:1014a0000000eb00e3c4b300834f510054003a0046
:1014b0008104780080c2b300d94f10000b003a00bd
:1014c000640545008a057800ba4678000d00fb00e7
:1014d000570007000000e000faff3a00f0c5b30033
:1014e00080cf5600f7ff32000100370089057800f1
:1014f0004000200091c2b3009bcf100040003a0092
:101500008b04e8003e00370092c6b300824f5000c3
:101510000300320092c4b300824f50003c003a00f6
:101520005a417800e0c6b300804f510004003200f9
:101530000000eb00e3c4b300834f510030003a00d9
:101540005a41780060c6b300804f51000400320059
:101550000000eb0063c4b300834f510028003a0041
:101560008a047800010078003000b300d940780088
:1015700092c6b30082cf50000300320092c4b30081
:1015800082cf50001e003a00890078005141780057
:10159000e3c6b300834f510003003200e3c4b3003d
:1015a000834f510016003a005141780093c6b300b2
:1015b000834f51000300320093c4b300834f5100a6
:1015c0000f003a005141780043c7b300834f5100e8
:1015d0000300320043c5b300834f510008003a00b6
:1015e0005141780093c7b300834f5100030032008c
:1015f00093c5b300834f510001003a008104e80015
:101600000c00e00005003200090e780003003700ee
:10161000010078000000a0008a047800090c78001e
:101620004f06be004f05be004f04be00000006007e
:101630000003b1000b0035009000b1000800340039
:101640008000b100070035009001b10004003400b3
:101650007000b100030035009001b10001003c00b2
:1016600010000500000005006900e10004003500dd
:101670006d00e100030034000002b10001003200ff
:1016800000000500100005000600fa00881f780021
:10169000000478008800780068805700d2bf9f005f
:1016a000e3bf9f00d40007005fb99700efb9970030
:1016b0001800be0072fd0700008cbe004fb99700f5
:1016c000cf91de0008007800700007004f0478001a
:1016d0000080fa00000006000400fa00889fbe00a7
:1016e0008a1f7800b0bf9f00c1bf9f000204be00e8
:1016f000e00f5100e08f59005e0032006011b80029
:10170000c5fc07000000e0005a003200e00f540062
:10171000e08f5c002a003d0060041400e0841c009f
:101720000005eb000000200001f823000808a300da
:1017300005003200c251dd006294200002814100a8
:101740001201be004efd07008904d1000884d300b9
:10175000e00f5400e08f5c00030032000a05e8004f
:10176000e50f5500f1ff3a000001be000000200027
:1017700001f8230066fc07000001be006a805700e4
:10178000c1ff07000000e00032003d00e00f540000
:10179000e08f5c0037003200e2112b00f3a4200040
:1017a0006a805700b8ff07000000e00029003d00f4
:1017b00061045400e0845c00f7ff3a002900370020
:1017c0000005eb000000200001f823000808a3003a
:1017d00005003200c251dd00629420000281410008
:1017e0001201be0026fd07008984d1000884d300c1
:1017f000e00f5400e08f5c00030032000a05e800af
:10180000e50f5500f1ff3a000001be006a80570065
:101810009dff07000000e0000e003d00e00f5400b7
:10182000e08f5c0013003200e25a2c00d3492700fd
:101830006a80570094ff07000000e00005003d00ab
:1018400061045400e0845c004240a900f6ff3c00c3
:10185000040037000000e00002003a000001200010
:1018600003003700e10f500002003a008000200022
:10187000850007003fb89700cfb897004f05780064
:101880004f04be000080fa00000006000400fa00c9
:10189000889fbe0000047800880478005900780012
:1018a0004702de0084007800f10fb200e14f4200f1
:1018b00009003a0080007800f107b2002000200003
:1018c0004a003a00100020001800e00047003200f3
:1018d00020002000450037000100e0000a003a0027
:1018e00008007800c2bf9f00d3bf9f0076000700aa
:1018f000800078000000eb004fb99700dfb9970037
:101900000100e00039003c004f88de000281400009
:1019100083014800e00f2000800f5100e08f590044
:10192000090034000000200001f827001900e00041
:1019300002003d000000200001f82f00008cbe00d6
:101940001000200029003700e00f5100e08f5900ff
:10195000050034004711dd00f00728001900600081
:10196000800c7100200037009900780000002800ea
:1019700000806000f10fb2000170a000810c7800bf
:1019800061015100e0815900f70f4100e08f4900eb
:1019900004003d00800c7800000ceb000000eb0020
:1019a00012003700ef0f410003003d00010c7800ea
:1019b000800ceb00700141000201ea0009003200d6
:1019c000f0001100990178008119dd00980078007d
:1019d0008208de00018c7100990078000209de00a7
:1019e000820c7800990c70000080eb004f04be0060
:1019f0000080fa0000000600889fbe000004be00c0
:101a000000f82700590060004700de00f20f2000b8
:101a1000820f50000a003a00000ceb00f207200091
:101a2000190161002000200015003a00100020007c
:101a30001100e000120032002000200010003700ea
:101a40000000e00004003a00010078001e000700da
:101a50000000e00008003c00f207280019016100c6
:101a600001f02300810c710021f82f00010c4000cf
:101a70000080eb0002003700000ceb000000eb00e0
:101a80004f04be0000000600e500600003003200c5
:101a900010022000f04a8800000006007800600074
:101aa0000200320020022000f04a880000000600f8
:101ab000004b80000000e000010032000000010047
:101ac000e09520000000060080007800d101780039
:101ad0000400280004826100f307b2008308780044
:101ae000120020000e003a00900178000300e00090
:101af0001b003200830878000008eb0012ff2f0063
:101b0000070037008381410090027800cf2ade0071
:101b10008588710090017800038841000201e90086
:101b200091017800f5072000858f5100f5ff360000
:101b300005003700cf19dd009002d1000588710043
:101b40009108d1000201e80091017800f50f200012
:101b5000858f5100f7ff3e00f0072000808861006c
:101b6000910872000200780000000600e887470034
:101b7000889fbe008a9fbe008c9fbe008e1f78008b
:101b8000e0b79f0082047800030478006722b90060
:101b90000006eb00010037001c00200081017800e6
:101ba00000c3b300b14f1000fbff3200000ceb008c
:101bb00038147800880578000005eb002a0037000b
:101bc000840f550016003d0072002000110009002e
:101bd0000205d8000100e00003003a00e48545005a
:101be000801deb008015eb001b06be00446bdd0082
:101bf000cc63de00870373004463dd00e1902000c6
:101c000001805200818f2000614078000000fb00bd
:101c1000cf80de00801d430081954b00100037000f
:101c20001000200001002000180c400058944800cb
:101c3000840f55000b003a00e19020000180520013
:101c4000818f200061407800e74f5000050034008c
:101c500010002000010020009b0d4000db95480093
:101c60000a05e8001c002000830678008d0178003a
:101c7000334778008e00fb0062012000e0902000d6
:101c8000f3b79f0084bf9f00b00007008002780078
:101c9000ffb197000fba97000500e000c8ff3a00b7
:101ca000840f55000100340004057800e0c2b30041
:101cb000804f570001003a008d06e8000a00e0005e
:101cc00029003a000d007800050037000081eb0084
:101cd0008081eb00180c4100589449001c00200042
:101ce0008006780001c3b300b0cf1000f7ff3200c8
:101cf0001d003700840f55001a003d0072002000bf
:101d0000110009000205d8000100e00003003a00bc
:101d1000e4854500801deb008015eb001b03be0031
:101d20004439dd00cc31de00830171004431dd0037
:101d3000e190200001805200818f200061407800f6
:101d40000000fb00cf80de00801d4100819549002e
:101d50000a05e8000081eb008081eb00180c4100cf
:101d6000589449001c0020000d0778008e0678006a
:101d7000bd00fb0062012000e090200084bf9f00b6
:101d800072000700800278000fba97000500e0009b
:101d9000d8ff3a000c017800730020001100090000
:101da0000305d8000100e00013003200018051005b
:101db000c200dd001b02be008100e9000300330009
:101dc0000402420085824a00fbff3700848dbe007a
:101dd0000a054000cf80de00181c1000189418007f
:101de0000500370067055500700020000100200045
:101df000180c400058944800e60f550004003400c9
:101e00002b00be00e00f5000e08f5800f5ff3200bd
:101e10001800be00420add00ce02de00850272001c
:101e20004202dd00048cbe000c00e00038003200ed
:101e30001e40780001c7b300814f500003003200fc
:101e400001c5b300814f500030003a000e06780003
:101e5000dc457800b0c2b30080cf550003003200eb
:101e6000d1c2b30081cf550002003a000c06e80051
:101e700001003700804578006000b8000001eb00e9
:101e800013003700f20f2e00535f2000820f500026
:101e9000838f58000d003c00a200200003002000aa
:101ea00084bf9f00f5b79f00320007000d01fb00c3
:101eb000cf91de000203b1000380b10002004000b8
:101ec00083804800ffb297000fba970012002000ed
:101ed0000c0778000e067800bc4678008d01fb00e8
:101ee0000303b100e98f5100e6ff3600d3c2b3000f
:101ef00083cf550002003a0060001000e080180017
:101f0000041c400005944800010037000c017800d3
:101f10000900e000040032000200e00001003a0085
:101f20006fb797008e0c7800720020001100090036
:101f30000205d8004f0778004f06be004f05be00cf
:101f40004f04be008f00b100000006000300370000
:101f5000b0cf1000050032000201e90080017800d6
:101f60000200e000faff3a000000050003007800dc
:101f700000000600020ab900001bb9000200b80008
:0c1f8000810042008100430000000600c8
:020000040000fa
:101f8c001400fa00889fbe0060079800614f98000b
:101f9c00020f9800130f98006e00900060029000e2
:101fac00f00290006e009000f00090006000900035
:101fbc000001be000400be002efb07000004be00a2
:101fcc006e009000b0089000200890000001be0048
:101fdc00eff907000001be000800be0049fa070037
:101fec00affa070040079800510798006e00900068
:101ffc0040099000d0099000220798003307980000
:10200c006e4890000004e000040032000e099000bd
:10201c009e099000028fbe00080037006e009000f1
:10202c0060119000f01190006e009000d0109000a4
:10203c0040109000001f5100019759001e00be0077
:10204c00e00f5000e08f580014003a004e01900051
:10205c00de0190001000200001002000800f5100d4
:10206c00818f59000d003e006e0190006000b80099
:10207c0060019800710198006e0190006000b8003a
:10208c0040099800510998006e0190006000b8005a
:10209c002011980031119800b30037001e00be00cb
:1020ac00e00f5000e08f5800290034006e009000c3
:1020bc00b010900020109000e00f5000e08f5800fe
:1020cc000e0034001e01be004e009000de00900099
:1020dc00800f5100818f59004f003e004e00900040
:1020ec00de00900060001000e08018006e0190008f
:1020fc002011980031119800470037006e009000b5
:10210c00b010900020109000e00f5000e08f5800ad
:10211c0041003d001e01be004e009000de0090000c
:10212c00800f5100818f59003b0036006e009000eb
:10213c00b01090002010900060001000e08018009b
:10214c006e01900020119800311198003200370078
:10215c001e00be00e00f5000e08f58002e003d0026
:10216c006e009000b010900020109000e00f500016
:10217c00e08f5800110034001e00be0060001000fb
:10218c00e08018000001be004e009000de009000c0
:10219c00800f5100818f59001f003e004e009000af
:1021ac00de00900060001000e08018006e019000ce
:1021bc002011980031119800170037006e00900024
:1021cc00b010900020109000e00f5000e08f5800ed
:1021dc0011003d001e00be0060001000e0801800e1
:1021ec000001be004e009000de009000800f5100f8
:1021fc00818f5900080036006e009000b0109000de
:10220c002010900060001000e08018006e0190001b
:10221c0020119800311198006e009000b0109000c1
:10222c0020109000e00f5000e08f580006003a009c
:10223c006e00900000119000901190002207980001
:10224c0033079800280037002e009000be00900045
:10225c000001be004ef907000004be006e009000a5
:10226c00b01090002010900061004000e080480009
:10227c0026fa070002002000030824007dfa07005c
:10228c000001be000800be009ef907000001be0060
:10229c002e009000be0090003cf90700200798002b
:1022ac00310798006e009000f008900060089000d4
:1022bc0018c0b3002e019000be019000d5f90700a4
:1022cc000000e00001003c000044eb000804e000ca
:1022dc00050032006e00900060099000f00990003b
:1022ec0022079800330798006e009000b010900001
:1022fc002010900061004000e08048006e019000ca
:10230c0020119800311198006e0090002e01900061
:10231c00be01900042089800530898002e019000ce
:10232c00be01900000002500317c240075f90700e7
:10233c006e01900060019800710198001e00be00b3
:10234c00e00f5000e08f580007003d006e00900039
:10235c00f00090006000900001f0a2006e0190006f
:10236c0060019800710198004f04be000080fa00d3
:10237c00000006000800fa00889fbe008a1f780043
:10238c00000f7800214798003247980024079800e6
:10239c00350798001e007800d00890004008900087
:1023ac0018c0b3006011b8009af907000000e000f3
:1023bc0001003c000044eb000804e000bf003200c8
:1023cc001e00780040029000d00290001e007800a1
:1023dc00d0089000400890000001be000400be0030
:1023ec00ebf807000004be002e009000be00900029
:1023fc00c9f907001ac0b3000001be000800be00f6
:10240c0082f907000000e000010034000045eb00f9
:10241c000a04e000a90032002e009000be009000db
:10242c00bdf907001e017800400198005101980089
:10243c001e007800f00090006000900018c0b300ff
:10244c006011b80073f907000000e00001003c00c7
:10245c000044eb000804e000460032003e409000cf
:10246c000004e00043003a001e0078007040900029
:10247c000004e0000d0032001e00780020009000e7
:10248c009e007800a1009000110178009e00780059
:10249c00e14090008180fb00130020008118dd00da
:1024ac0082807000010878000d0037001e00780053
:1024bc00200090009e007800a1009000110178008f
:1024cc009e007800e14090008180fb00130020000a
:1024dc008118dd008180ea0081006100010878002c
:1024ec001e007800d0109000401090006100400059
:1024fc00e08048001e0178004011980051119800ae
:10250c001e007800100078009e0078009100780082
:10251c00110178009e007800a14090008180fb00a2
:10252c00130020008118dd00828070000108780003
:10253c000002200001002000210507001e00780089
:10254c00100078009e00780091007800110178004e
:10255c009e007800a14090008180fb0013002000b9
:10256c008118dd008180ea0081006100010878009b
:10257c00500037001e007800f000900060009000c2
:10258c0018c0b3006011b80020f907000000e0008b
:10259c00010035000044eb000804e0004500320067
:1025ac002e4090000004e00042003a001e0078002b
:1025bc00704090000004e0000e0032001e00780015
:1025cc00200090009e007800a1009000110178007e
:1025dc009e007800e14090008180fb0013002000f9
:1025ec008118dd008180ea0081006100010878001b
:1025fc000c0037001e007800200090009e00780030
:10260c00a1009000110178009e007800e14090003c
:10261c008180fb00130020008118dd008280700097
:10262c00010878001e007800d01090004010900037
:10263c0061005000e08058001e01780040119800a5
:10264c00511198001e007800100078009e00780050
:10265c0091007800110178009e007800a140900054
:10266c008180fb00130020008118dd008280700047
:10267c00010878000002200001002000d0040700af
:10268c001e007800100078009e0078009100780001
:10269c00110178009e007800a14090008180fb0021
:1026ac00130020008118dd008180ea0081006100a8
:1026bc000108780010c0b300010037000040eb00a7
:1026cc004f0578004f04be000080fa0000000600a1
:1026dc000600fa00000f78001207980023079800f4
:1026ec001e00780060119000f01190001e00900008
:1026fc00ae009000800f5100818f5900070032000e
:10270c001e0078001e019000ae019000621098002f
:10271c007310980010c0b300010037000040eb00ac
:10272c000080fa00000006000600fa00000f780096
:10273c0012079800230798001e009000ae0090002e
:10274c00e00f5000e08f58000b0032001e007800a4
:10275c0040119000d01190001e009000ae0090002f
:10276c0002004000838048000001be001e0078007b
:10277c00d7ff0700010037000040eb000080fa0093
:10278c00000006000600fa00000f780012079800ff
:10279c00230798001e007800900890000008900015
:1027ac001e019000ae019000ddf807000000e00073
:1027bc000d0032001e0078001e019000ae0190004a
:1027cc0002089800130898001e019000ae019000ba
:1027dc0000402200419724004af807001e017800af
:1027ec0060099800710998000080fa00000006004a
:1027fc000000fa004b0007005500070069000700b5
:10280c007200070000b024000100200089000700be
:10281c00d6000700ee000700c201070015020700f2
:10282c000100370000000000a00007000004e000d9
:10283c0010003200b000070094e8b70094c8bf0045
:10284c00ea4f50001600320095c8bf000081fb0013
:10285c004189200091407800408120000000410017
:10286c000148780095c8bf000040e80095e8b70023
:10287c000b00370094c8bf00ea4f500008003a0024
:10288c0095c8bf000004e0000500320095c8bf00e9
:10289c008040780040812000dd000700cc0007005c
:1028ac00004080001140800012812000124178000d
:1028bc0003812000934178000002be008340780021
:1028cc0060892000abfe07000004e0000400320029
:1028dc006011b8008040eb0060892000a8fd070063
:1028ec0000408000114080003281200012417800ad
:1028fc0023812000934178000002be0083407800c1
:10290c00608c20009bfe07000004e000c5ff320035
:10291c006011b8008040eb00608c200098fd07002f
:10292c00c1ff37000000fa00213a8000f0ff2800b8
:10293c0000806000203a8800213a8000f08f2f0040
:10294c0000806000203a88000080fa000000060039
:10295c000000fa00e024ef00c042a80071c0a800fb
:10296c00c062a80071a0a800c0e2a900e224ef0098
:10297c00e3a4a800e3c4a800c822a900c862a80068
:10298c006ee0a800c942a900c962a900c9a2a800aa
:10299c00c9c2a800c9e2a8006f60a8000080fa00b4
:1029ac00000006000000fa00000028002008880043
:1029bc000021ef00f0092000100888008460a900b5
:1029cc009460a8000080fa00000006000000fa00e5
:1029dc004021ef0041e1a800010a8000000c20001a
:1029ec0001007000000a8800010a800000ff2f001f
:1029fc00008060005000b300000a88004221ef0004
:102a0c004421ef004621ef004721a8004821ef00a8
:102a1c004a21ef005021ef0080382100a00a8800e5
:102a2c005821ef00800c2000e00a88000080fa009a
:102a3c00000006000400fa00008fbe001e01be005c
:102a4c004418dd00cc10de00810070004410dd0065
:102a5c000001be0000402200410f2000b9f8070021
:102a6c00000078000000e900401188002022ef00ef
:102a7c002062a9002222ef0021e2a8002342a80034
:102a8c0011118000f0f32f00008060000070a00096
:102a9c00101188000111800000302000010070002e
:102aac00001188000080fa00000006000000fa0007
:102abc001011800000407800614060000080fa0036
:102acc00000006000200fa00004f78000000000031
:102adc001111800000202000008060000000e00048
:102aec00fbff3a001e80fb00201188001e4078007e
:102afc000080fa00000006000000fa00301180008f
:102b0c00004078000080fa00000006000600fa0081
:102b1c001007980041479800524798000040eb007e
:102b2c00004f78000a0037001e80fb009e009000ca
:102b3c0000804000904078004e40900080cf5000c4
:102b4c0002003a0010c0b300060037001e4fe80028
:102b5c005e4090009e40780080cf5000f2ff39001c
:102b6c000040eb000080fa00000006000000fa00b4
:102b7c0000472000001a88004223ef00300021009b
:102b8c00201a88005023ef0085a0a90095a0a90069
:102b9c0041e3a8000080fa00000006000200fa00e1
:102bac00000f78009e007800411a88004023a8008e
:102bbc0000000000001a8000610060000000e000ce
:102bcc00fcff3200001880000080fa0000000600b4
:102bdc000200fa000040eb00004f780006003700be
:102bec009e80fb0040812000008040008040eb0074
:102bfc00014878001e4fe8001e4078000004e000f9
:102c0c00f7ff3d009568ef000080fa000000060019
:102c1c001200fa00889fbe007007980001579800b8
:102c2c000e51900071c4b3007e009000b7ff0700f6
:102c3c000004e000720032000e51900071c4b30029
:102c4c007e0090007100070074f707000000780008
:102c5c00004f98000e4890000000fb000000e000c0
:102c6c0060003500e10f500003003400fc0f5000f1
:102c7c005a0032005b0037000e51900081c5b30042
:102c8c007e00900061000700008fbe000e51900086
:102c9c0091c5b3007e0090005c00070020079800ef
:102cac00310798000e519000a1c5b3007e00900032
:102cbc0096ff07000004e000150032000e51900052
:102ccc00a1c5b3007e0090005000070053f7070029
:102cdc0000007800cf80de008cf7070050079800ca
:102cec00610798006011b8005e009000ee00900043
:102cfc0046f707000000e00003003a00c012200075
:102d0c00e00a880002003700800c2000e00a8800ee
:102d1c0018c0b3006011b8001e00be003bf70700de
:102d2c000000e000010035000044eb000804e00066
:102d3c0005003200f04580000146800073f7070063
:102d4c00008fbe000500370012ae2f00e3222400d6
:102d5c001e00be00c7f70700008fbe0018c0b300ee
:102d6c006011b8002e009000be00900027f70700fd
:102d7c000000e000010035000044eb000804e00016
:102d8c000600320070478000814780005ff7070023
:102d9c0020079800310798000700370012ae2f006b
:102dac00e32224002e009000be009000b1f7070033
:102dbc0020079800310798002e009000be0090006c
:102dcc0037f707000004be001e00be0034f70700f2
:102ddc000801be009d01070009003700a90007008b
:102dec0007003700a0c0b30036ff0700f0c3b300e4
:102dfc0034ff0700a0c0b30032ff07000000000042
:102e0c004f04be000080fa00000006001000fa001b
:102e1c0060079800614f9800724f98006000b800ee
:102e2c001007980021079800e600470002000900ef
:102e3c008018eb000040eb00004f780031003700a9
:102e4c001e80fb00ee009000008040009040780057
:102e5c006e48900080cf500029003a000040eb00f3
:102e6c00104798001e4fe800190037001e80fb0029
:102e7c00ee0090000080400010407800ea4f5000b7
:102e8c001a0032001e80fb00ee0090000080400013
:102e9c009040780000c2b30080cf50001300320085
:102eac001e4090000080fb009e80fb006e01900095
:102ebc0081004100914078000000470021409800bb
:102ecc001e4090000040e800104798001e4fe8009c
:102edc007e4890009e40780080cf50000300310067
:102eec001e409000e94f5000e0ff36000e80e800d5
:102efc006011b8008000eb00fcf7070007003700fa
:102f0c001e4fe8007e4890009e40780080cf500015
:102f1c00cbff39000000200001f82b000080fa00e4
:102f2c00000006000000fa0000002600a176240034
:102f3c00304588004145880030458000414580007f
:102f4c000001be0000402200419724006df60700ee
:102f5c0090458800a145880000802c00f17a24005f
:102f6c00504588006145880000002000b13e2400d7
:102f7c00b0458800c14588006000b8001045880045
:102f8c00214588006000b800f044880001458800a5
:102f9c006000b8007045880081458800be28ef00ad
:102fac00c028ef00c02c2000d0448800a0c0b30083
:102fbc009ce8b700c02c2000b0448800b0c0b3001f
:102fcc0098e8b70010c0b3009de8b70000002600d9
:102fdc00a1762400b0468800c1468800b046800027
:102fec00c14680000001be00004022004197240031
:102ffc0044f60700104788002147880000802c0009
:10300c00f17a2400d0468800e146880000002000b8
:10301c00b13e240030478800414788006000b8006a
:10302c0090468800a14688006000b8007046880071
:10303c00814688006000b800f0468800014788008f
:10304c00ee28ef00f028ef00402c200050468800be
:10305c0070c0b300cce8b700c02c2000304688000c
:10306c0010c0b300c8e8b700cd68ef000080fa00cc
:10307c00000006000000fa00020007000080fa00c1
:10308c00000006000800fa0032458000434580002d
:10309c00028fbe00b2468000c34680002207980013
:1030ac0033079800025a2100f3ff2f00608920009b
:1030bc009dfd070002002000030024001e00be003e
:1030cc0010f607000001be0060892000adfd07006e
:1030dc006011b8008040eb0060892000a8fb07005d
:1030ec00025a2100f3ff2f00608c20008efd070098
:1030fc0002002000030024002e009000be0090006f
:10310c0000f607000001be00608c20009dfd07004a
:10311c006011b8008040eb00608c200098fb070029
:10312c001000370000408000114080001281200008
:10313c001241780003812000934178000002be0008
:10314c0083407800608920008afc07000004e000be
:10315c00040032006011b8008040eb006089200050
:10316c0087fb070010c8bf000004e000edff320031
:10317c001000370000408000114080003281200098
:10318c001241780023812000934178000002be0098
:10319c0083407800608c200076fc07000004e0007f
:1031ac00040032006011b8008040eb00608c2000fd
:1031bc0073fb070012c8bf000004e000edff3200f3
:1031cc00be28ef00c028ef00ee28ef00f028ef003b
:1031dc0082252000030020006089200052fd07009a
:1031ec0002002000030a24001e00be00c5f50700e3
:1031fc000001be006089200062fd07006011b8006c
:10320c008040eb00608920005dfb070082252000d8
:10321c0003002000608c200043fd0700020020000a
:10322c00030a24002e009000be009000b5f50700a4
:10323c000001be00608c200052fd07006011b80038
:10324c008040eb00608c20004dfb07002000370015
:10325c000040800011408000128120001241780053
:10326c0003812000934178000002be008340780067
:10327c00608920003ffc07000004e00004003200dd
:10328c006011b8008040eb00608920003cfb070017
:10329c0000408000114080003281200012417800f3
:1032ac0023812000934178000002be008340780007
:1032bc00608c20002ffc07000004e00004003200aa
:1032cc006011b8008040eb00608c20002cfb0700e4
:1032dc00f24580000346800080252000010020007c
:1032ec00800f5100818f5900d9ff3a00724780003e
:1032fc00834780008025200001002000800f5100b2
:10330c00818f5900d2ff3a0002ce2f00f3ff2f001d
:10331c006089200004fd07006011b8008040eb00bc
:10332c006089200016fb070002ce2f00f3ff2f0050
:10333c00608c2000fcfc07006011b8008040eb00a2
:10334c00608c20000efb070010003700004080004e
:10335c00114080001281200012417800038120006e
:10336c00934178000002be00834078006089200001
:10337c0000fc07000004e000040032006011b800fb
:10338c008040eb0060892000fdfa070010c8bf00e8
:10339c000004e000edff3200100037000040800018
:1033ac0011408000328120001241780023812000de
:1033bc00934178000002be0083407800608c2000ae
:1033cc00ecfb07000004e000040032006011b800c0
:1033dc008040eb00608c2000e9fa070012c8bf00a7
:1033ec000004e000edff3200be28ef00c028ef0023
:1033fc00c228ef00c428ef00ee28ef00f028ef0001
:10340c00f228ef00f428ef001e01be0060892000b6
:10341c00dcfc07006011b8008040eb0060892000e4
:10342c00d7fa07002e019000be019000608c20009e
:10343c00d4fc07006011b8008040eb00608c2000c9
:10344c00cffa07000080fa00000006002400fa0002
:10345c00889fbe00600f9800710f980002179800ab
:10346c00131798006000b800008fbe006000b80011
:10347c002007980031079800f04580000146800035
:10348c006e099000fe0990000000510081805900e7
:10349c00000f9800110f9800704780008147800042
:1034ac000e1190009e119000000051008180590077
:1034bc00200f9800310f98000e0890009e08900085
:1034cc00e00f5000e08f58000a003a000e109000f8
:1034dc009e1090000001be00608c20007cfc070058
:1034ec006011b8008040eb00608c2000a4fa07004b
:1034fc00f90037002e089000be089000e00f500035
:10350c00e08f58000a003a006e089000fe08900008
:10351c000001be00608920006dfc07006011b8003e
:10352c008040eb006089200095fa0700ea00370024
:10353c002e089000be08900074f507000004be0031
:10354c000e0890009e08900070f507000001be0068
:10355c000800be00ebf40700400f9800510f9800d4
:10356c000200200003f823004e089000de089000b3
:10357c0026f507000000e0000700320002002000e2
:10358c0003f82b004e089000de0890001ff5070092
:10359c000000e00013003a006e089000fe08900056
:1035ac000001be006089200049fc07006011b800d2
:1035bc008040eb006089200071fa07000e1090002b
:1035cc009e1090000001be00608c200040fc0700a3
:1035dc006011b8008040eb00608c200068fa070096
:1035ec00bd00370018c0b3000200200003f82b0008
:1035fc004e089000de08900006f507000000e00081
:10360c0001003c000044eb000804e0002300320001
:10361c0018c0b3000200200003f823004e089000ed
:10362c00de089000f9f407000000e000010035000e
:10363c000044eb000804e000180032000e08900073
:10364c009e089000e00f5000e08f580009003400f5
:10365c000000200001f82300400798005107980053
:10366c004e099000de0990006207980073079800dd
:10367c00260037000000200001f82b0040079800be
:10368c00510798004e089000de08900001f0a2004f
:10369c0060079800710798001c0037002e089000f6
:1036ac00be089000e00f5000e08f58000c00340072
:1036bc004e099000de0990000000200001f8230064
:1036cc0090f4070040079800510798000000200074
:1036dc0001f8230060079800710798000b00370071
:1036ec004e099000de0990000000200001f82b002c
:1036fc0084f4070040079800510798000000200050
:10370c0001f82b006007980071079800f0458000c5
:10371c0001468000fdf40700008fbe00704780005a
:10372c0081478000f9f407002007980031079800c2
:10373c0059003700f0458000014680000001be00b2
:10374c006e089000fe089000800f5100818f590088
:10375c00050032004e019000de0190001e00be00fc
:10376c000bf40700008fbe0070478000814780007b
:10377c000001be000e1090009e109000800f5100b2
:10378c00818f5900070032006e019000fe019000fd
:10379c002e009000be009000fdf30700200798005b
:1037ac00310798001e00be009cf407000001be000b
:1037bc0060892000c6fb07000004e00017003200ff
:1037cc00f0458000014680006e099000fe099000d3
:1037dc0000005100818059000001be0011c0b300ef
:1037ec0060892000e6f9070000000000004080001e
:1037fc0011408000128120001241780003812000ca
:10380c00934178000002be0083407800608920005c
:10381c00d8fa07000004e000f4ff32002e009000fc
:10382c00be0090007df407000001be00608c2000fb
:10383c00a7fb07000004e00017003200704780006f
:10384c00814780000e1190009e11900000005100e5
:10385c00818059000001be0011c0b300608c2000b3
:10386c00c7f90700000000000040800011408000f4
:10387c00328120001241780023812000934178008e
:10388c000002be0083407800608c2000b9fa07006b
:10389c000004e000f4ff3200f04580000146800097
:1038ac000001be006e089000fe089000800f5100d1
:1038bc00818f59009fff3a0070478000814780003c
:1038cc000001be000e1090009e109000800f510061
:1038dc00818f590097ff3a004f04be000080fa0018
:0438ec0000000600d2
:020000040000fa
:1038f000f6080000020000000200000001000000c5
:1039000000080000f600000000000000260900008a
:1039100020000000020000000a0000000064000017
:103920000000e800030000001027000000a086004f
:1039300001004000420f0000809698000000e10066
:10394000f505000046090000180000000200000014
:103950000000200041000000c8420000401c46005a
:1039600020bcbe004cca1b000e5aae00c59d7400a0
:103970005e0900000400000000000000f8080000dc
:103980002e000000020000000001020003040500f8
:1039900006070800090a0b000c0d0e000f0a0b00a9
:1039a0000c0d0e000f303100323334003536370045
:1039b0003839610062636400656641004243440037
:0c39c00045460000000000000000000070
:020000040000fa
:1039cc00f03fb1000180b10006003500ee030900a4
:1039dc0000000000403fb1000180b100fbff3d0042
:1039ec001000b000203fb00002003500008009003c
:0839fc000000000000000600bd
:020000040000fa
:0200000401f009
:04000000ffff0000fe
:020000040000fa
:0200000401f009
:04000800ffff0000f6
:020000040000fa
:0200000401f009
:04000c00f9ff0000f8
:020000040000fa
:0200000401f009
:0400100033ff0000ba
:020000040000fa
:0200000401f009
:040014005fff00008a
:020000040000fa
:0200000401f009
:04001800ffff0000e6
:020000040000fa
:0200000401f009
:04001c00fdff0000e4
:00000001FF
