:020000040000fa
:080000000002040000000000f2
:020000040000fa
:040008000e030000e3
:020000040000fa
:04000c000e030000df
:020000040000fa
:040010000e030000db
:020000040000fa
:040014000e030000d7
:020000040000fa
:040018000e030000d3
:020000040000fa
:04001c000e030000cf
:020000040000fa
:040020000e030000cb
:020000040000fa
:040024000e030000c7
:020000040000fa
:040028000e030000c3
:020000040000fa
:04002c000e030000bf
:020000040000fa
:040030000e030000bb
:020000040000fa
:04003400c8020000fe
:020000040000fa
:040038000e030000b3
:020000040000fa
:04003c000e030000af
:020000040000fa
:040040000e030000ab
:020000040000fa
:040044000e030000a7
:020000040000fa
:040048000e030000a3
:020000040000fa
:04004c000e0300009f
:020000040000fa
:040050000e0300009b
:020000040000fa
:040054000e03000097
:020000040000fa
:040058000e03000093
:020000040000fa
:04005c000e0300008f
:020000040000fa
:040060000e0300008b
:020000040000fa
:040064000e03000087
:020000040000fa
:040068000e03000083
:020000040000fa
:04006c000e0300007f
:020000040000fa
:040070000e0300007b
:020000040000fa
:040074000e03000077
:020000040000fa
:040078000e03000073
:020000040000fa
:04007c000e0300006f
:020000040000fa
:040080000e0300006b
:020000040000fa
:040084000e03000067
:020000040000fa
:040088000e03000063
:020000040000fa
:04008c000e0300005f
:020000040000fa
:040090000e0300005b
:020000040000fa
:040094000e03000057
:020000040000fa
:040098000e03000053
:020000040000fa
:04009c000e0300004f
:020000040000fa
:0400a0000e0300004b
:020000040000fa
:0400a4000e03000047
:020000040000fa
:0400a8000e03000043
:020000040000fa
:0400ac000e0300003f
:020000040000fa
:0400b0000e0300003b
:020000040000fa
:0400b4000e03000037
:020000040000fa
:0400b8000e03000033
:020000040000fa
:0400bc000e0300002f
:020000040000fa
:0400c0000e0300002b
:020000040000fa
:0400c4000e03000027
:020000040000fa
:0400c8000e03000023
:020000040000fa
:0400cc000e0300001f
:020000040000fa
:0400d0000e0300001b
:020000040000fa
:0400d4000e03000017
:020000040000fa
:0400d8000e03000013
:020000040000fa
:0400dc000e0300000f
:020000040000fa
:0400e0000e0300000b
:020000040000fa
:0400e4000e03000007
:020000040000fa
:0400e8000e03000003
:020000040000fa
:0400ec000e030000ff
:020000040000fa
:0400f0000e030000fb
:020000040000fa
:0400f4000e030000f7
:020000040000fa
:0400f8000e030000f3
:020000040000fa
:0400fc000e030000ef
:020000040000fa
:040100000e030000ea
:020000040000fa
:040104000e030000e6
:020000040000fa
:040108000e030000e2
:020000040000fa
:04010c000e030000de
:020000040000fa
:040110000e030000da
:020000040000fa
:040114000e030000d6
:020000040000fa
:040118000e030000d2
:020000040000fa
:04011c000e030000ce
:020000040000fa
:040120000e030000ca
:020000040000fa
:040124000e030000c6
:020000040000fa
:040128000e030000c2
:020000040000fa
:04012c000e030000be
:020000040000fa
:040130000e030000ba
:020000040000fa
:040134000e030000b6
:020000040000fa
:040138000e030000b2
:020000040000fa
:04013c000e030000ae
:020000040000fa
:040140000e030000aa
:020000040000fa
:040144000e030000a6
:020000040000fa
:040148000e030000a2
:020000040000fa
:04014c000e0300009e
:020000040000fa
:040150000e0300009a
:020000040000fa
:040154000e03000096
:020000040000fa
:040158000e03000092
:020000040000fa
:04015c000e0300008e
:020000040000fa
:040160000e0300008a
:020000040000fa
:040164000e03000086
:020000040000fa
:040168000e03000082
:020000040000fa
:04016c000e0300007e
:020000040000fa
:040170000e0300007a
:020000040000fa
:040174000e03000076
:020000040000fa
:040178000e03000072
:020000040000fa
:04017c000e0300006e
:020000040000fa
:040180000e0300006a
:020000040000fa
:040184000e03000066
:020000040000fa
:040188000e03000062
:020000040000fa
:04018c000e0300005e
:020000040000fa
:040190000e0300005a
:020000040000fa
:040194000e03000056
:020000040000fa
:040198000e03000052
:020000040000fa
:04019c000e0300004e
:020000040000fa
:0401a0000e0300004a
:020000040000fa
:0401a4000e03000046
:020000040000fa
:0401a8000e03000042
:020000040000fa
:0401ac000e0300003e
:020000040000fa
:040208000e030000e1
:020000040000fa
:04020c000e030000dd
:020000040000fa
:040210000e030000d9
:020000040000fa
:040214000e030000d5
:020000040000fa
:040218000e030000d1
:020000040000fa
:04021c000e030000cd
:020000040000fa
:040220000e030000c9
:020000040000fa
:040224000e030000c5
:020000040000fa
:040228000e030000c1
:020000040000fa
:04022c000e030000bd
:020000040000fa
:040230000e030000b9
:020000040000fa
:040234000e030000b5
:020000040000fa
:040238000e030000b1
:020000040000fa
:04023c000e030000ad
:020000040000fa
:040240000e030000a9
:020000040000fa
:040244000e030000a5
:020000040000fa
:040248000e030000a1
:020000040000fa
:04024c000e0300009d
:020000040000fa
:040250000e03000099
:020000040000fa
:040254000e03000095
:020000040000fa
:040258000e03000091
:020000040000fa
:04025c000e0300008d
:020000040000fa
:040260000e03000089
:020000040000fa
:040264000e03000085
:020000040000fa
:040268000e03000081
:020000040000fa
:04026c000e0300007d
:020000040000fa
:040270000e03000079
:020000040000fa
:040274000e03000075
:020000040000fa
:040278000e03000071
:020000040000fa
:04027c000e0300006d
:020000040000fa
:040280000e03000069
:020000040000fa
:040284000e03000065
:020000040000fa
:040288000e03000061
:020000040000fa
:04028c000e0300005d
:020000040000fa
:040290000e03000059
:020000040000fa
:040294000e03000055
:020000040000fa
:040298000e03000051
:020000040000fa
:04029c000e0300004d
:020000040000fa
:0402a0000e03000049
:020000040000fa
:0402a4000e03000045
:020000040000fa
:0402a8000e03000041
:020000040000fa
:0402ac000e0300003d
:020000040000fa
:0402b0000e03000039
:020000040000fa
:0402b4000e03000035
:020000040000fa
:0402b8000e03000031
:020000040000fa
:0402bc000e0300002d
:020000040000fa
:0402c0000e03000029
:020000040000fa
:0402c4000e03000025
:020000040000fa
:0402c8000e03000021
:020000040000fa
:0402cc000e0300001d
:020000040000fa
:0402d0000e03000019
:020000040000fa
:0402d4000e03000015
:020000040000fa
:0402d8000e03000011
:020000040000fa
:0402dc000e0300000d
:020000040000fa
:0402e0000e03000009
:020000040000fa
:0402e4000e03000005
:020000040000fa
:0402e8000e03000001
:020000040000fa
:0402ec000e030000fd
:020000040000fa
:0402f0000e030000f9
:020000040000fa
:0402f4000e030000f5
:020000040000fa
:0402f8000e030000f1
:020000040000fa
:0402fc000e030000ed
:020000040000fa
:040300000e030000e8
:020000040000fa
:040304000e030000e4
:020000040000fa
:040308000e030000e0
:020000040000fa
:04030c000e030000dc
:020000040000fa
:040310000e030000d8
:020000040000fa
:040314000e030000d4
:020000040000fa
:040318000e030000d0
:020000040000fa
:04031c000e030000cc
:020000040000fa
:040320000e030000c8
:020000040000fa
:040324000e030000c4
:020000040000fa
:040328000e030000c0
:020000040000fa
:04032c000e030000bc
:020000040000fa
:040330000e030000b8
:020000040000fa
:040334000e030000b4
:020000040000fa
:040338000e030000b0
:020000040000fa
:04033c000e030000ac
:020000040000fa
:040340000e030000a8
:020000040000fa
:040344000e030000a4
:020000040000fa
:040348000e030000a0
:020000040000fa
:04034c000e0300009c
:020000040000fa
:040350000e03000098
:020000040000fa
:040354000e03000094
:020000040000fa
:040358000e03000090
:020000040000fa
:04035c000e0300008c
:020000040000fa
:040360000e03000088
:020000040000fa
:040364000e03000084
:020000040000fa
:040368000e03000080
:020000040000fa
:04036c000e0300007c
:020000040000fa
:040370000e03000078
:020000040000fa
:040374000e03000074
:020000040000fa
:040378000e03000070
:020000040000fa
:04037c000e0300006c
:020000040000fa
:040380000e03000068
:020000040000fa
:040384000e03000064
:020000040000fa
:040388000e03000060
:020000040000fa
:04038c000e0300005c
:020000040000fa
:040390000e03000058
:020000040000fa
:040394000e03000054
:020000040000fa
:040398000e03000050
:020000040000fa
:04039c000e0300004c
:020000040000fa
:0403a0000e03000048
:020000040000fa
:0403a4000e03000044
:020000040000fa
:0403a8000e03000040
:020000040000fa
:0403ac000e0300003c
:020000040000fa
:10040000af8220000eff20000e01880000000000d7
:10041000000020000000e000020032000001200087
:1004200020028800140007007e0007000000e000a2
:1004300003003a0080512000010020000200370034
:100440000000200001002000810f70000100320038
:1004500014000700000020000000e000020032004d
:100460000000020000000000520302000000000033
:100470000040da000000fe004440a9000000200017
:100480000000e0000300320000002000a00188000e
:100490004440a800000006008a1f78008b1f7800e7
:1004a0000000060091018800800478000000eb0045
:1004b0001a003700e284440032a0b4009905ba0063
:1004c000e284440032a0b4009906ba00e2844400f9
:1004d00032a0b4000006eb00476fde00fd07b2005b
:1004e000636ce10003003a00ebff07000000eb0043
:1004f0000a003700606ce10004003a00005deb0088
:100500008b05e900fdff3e00040037006168e10053
:10051000010032000086eb000b00070019c7ba008b
:100520001905ba000e04e00003003a000a00e000da
:10053000e0ff3a0000000600fe07b2009e018800be
:100540008a047800f5ff3700395dba008b05e900b1
:100550000c003200295dba008b05e900080032006a
:100560000c00e00003003a00e284440032a0b40032
:10057000f5ff370019ddba008b05e900faff3a00f4
:100580008904e800e184440032a0b40000000600c1
:1005900000a0fe003400f800881f7800080020004a
:1005a000a80188004f0478000000fa000040800095
:1005b0001140800061004000e08048000040880059
:1005c000114088000240800013408000604080009d
:1005d000714080000001510081815900404080003d
:1005e00051408000800f5100818f59000600390072
:1005f0000040800011408000604088007140880009
:1006000010c0b30016e8b7008460a9000080fa00ab
:100610003400f9000080fe00004006000040da00cf
:100620000000fe0000000500839f68000100e0005c
:1006300002003d0060001000e08018000300e000b0
:1006400002003d0060011100e08119000500070073
:100650004f00e00002003b0060001000e080180046
:10066000000006006022b800060220000000d00052
:100670008180d2000482d2008582d2000000a000d6
:100680000202520083825a0003003100020242003b
:1006900083824a000000a1000603e900f3ff3a004c
:0406a0000000060050
:020000040000fa
:1006a4000000fa0027000700310007003e000700a1
:1006b400470007005f00070001003700000000004a
:1006c4007400070016c8bf000004e000fbff3200fe
:1006d40004c8bf000080fb00e10f50000900320095
:1006e400e20f50000c0032000000e0000f003a005e
:1006f40042c0b300a1812000408020009400070084
:100704000e00370042c0b300e18120004080200089
:100714008f0007000900370082c0b3002182200047
:10072400408020008a000700040037005116800032
:10073400f0ff200000806000601688001668ef005b
:10074400dfff37000000fa00213a8000f0ff2800a4
:1007540000806000203a8800213a8000f08f2f004a
:1007640000806000203a88000080fa000000060043
:100774000000fa00e024ef00e004a800c002a80092
:10078400c022a800c042a800c062a800e224ef0072
:10079400c9e2a900c9c2a900c9a2a900c982a900c5
:1007a4000080fa00000006000000fa0000002800a3
:1007b400200888000021ef00f009200010088800bc
:1007c4008460a9009460a8000080fa00000006007c
:1007d4000000fa0000472000001a88004223ef00be
:1007e40030002100201a88005023ef0085a0a900c2
:1007f40095a0a90041e3a8000080fa0000000600cb
:100804000200fa00000f78009e007800411a880068
:100814004023a80000000000001a8000610060006e
:100824000000e000fcff3200001880000080fa00a5
:10083400000006000000fa0010c0b30005e8b7008d
:100844000071220080408800100020009040880041
:100854000468ef0010002000a04088000c28ef007e
:100864000e28ef000668ef001668ef00a040800035
:100874008000eb000001be0000242400f1002000f1
:1008840068ff070040408800514088000080fa005b
:10089400000006000200fa00101680000000d100db
:1008a4006140600005e8b700101680004300de00d8
:1008b400614060000080fb00000040008040780040
:1008c400101680004200de006140600000c070002d
:1008d40004e8b7000000eb00c9ff0700000f780030
:1008e40082408000f1ff200081017800110009009e
:1008f4000381d8008000fd001e0178000190b9003a
:1009040000007800a0408800a1408000400620003c
:10091400808f500004003e0090408000a04088007a
:1009240030c0b30004e8b700a04080008000eb00b2
:100934000001be00006a28001100200039ff0700f2
:1009440040408800514088000080fa000000060002
:100954000600fa00000f780011079800424798003b
:100964001e007800104090000004e00011003200e6
:100974001e007800204090008040e8001e007800af
:10098400214098001e007800204090008000fb0069
:100994004e4090000080fb000000e900808f500072
:1009a400120034001e0078008040eb0021409800c3
:1009b4000e0037001e007800204090008040e900bf
:1009c4001e007800214098001e007800204090000e
:1009d4000004e00005003d004e4090000040e900a6
:1009e400804078001e007800214098001e007800a6
:1009f400204090000000fb009e009000008040001a
:100a0400104078000080fb004c00dd00800078007e
:100a140052168000f0ff2000000061000100700009
:0c0a2400601688000080fa000000060048
:020000040000fa
:100a30001808000012000000020000000100010080
:100a40000204080003060c0009010300020604006a
:100a50000c08090000080000180000000000000059
:040a60000000000092
:020000040000fa
:0200000401f009
:04000000ffff0000fe
:020000040000fa
:0200000401f009
:04000800ffff0000f6
:020000040000fa
:0200000401f009
:04000c00f9ff0000f8
:020000040000fa
:0200000401f009
:0400100033ff0000ba
:020000040000fa
:0200000401f009
:040014005fff00008a
:020000040000fa
:0200000401f009
:04001800ffff0000e6
:020000040000fa
:0200000401f009
:04001c00fdff0000e4
:00000001FF
