:020000040800F2
:1000000000800120055400083953000847530008B8
:100010004D530008535300085953000800000000D6
:100020000000000000000000000000005F53000816
:100030006D530008000000007B530008895300083E
:1000400055540008555400085554000855540008EC
:1000500055540008555400085554000855540008DC
:1000600055540008555400085554000855540008CC
:1000700055540008555400085554000855540008BC
:1000800055540008555400085554000855540008AC
:10009000555400085554000855540008555400089C
:1000A000555400085554000855540008555400088C
:1000B000555400085554000855540008555400087C
:1000C000555400085554000855540008555400086C
:1000D000555400085554000855540008555400085C
:1000E000555400085554000855540008555400084C
:1000F000555400085554000855540008555400083C
:10010000555400085554000855540008555400082B
:10011000555400085554000855540008555400081B
:10012000555400085554000855540008555400080B
:1001300055540008555400085554000855540008FB
:1001400055540008555400085554000855540008EB
:1001500055540008555400085554000855540008DB
:1001600055540008555400085554000855540008CB
:10017000555400085554000855540008000000006C
:08018000555400085554000815
:1001880010B5054C237833B9044B13B10448AFF3C9
:1001980000800123237010BD04000020000000002F
:1001A800A054000808B5034B1BB103490348AFF33B
:1001B800008008BD0000000008000020A0540008CE
:1001C80053B94AB9002908BF00281CBF4FF0FF31B6
:1001D8004FF0FF3000F07AB9ADF1080C6DE904CEAC
:1001E80000F006F8DDF804E0DDE9022304B070470A
:1001F8002DE9F0478C460D460446089E002B51D148
:100208008A4217466DD9B2FA82FEBEF1000F0BD0B2
:10021800CEF1200C01FA0EF520FA0CFC02FA0EF7CA
:100228004CEA050C00FA0EF44FEA174A250CBCFB01
:10023800FAF81FFA87F90AFB18CC45EA0C4508FBBF
:1002480009F3AB420AD9ED1908F1FF3280F0238196
:10025800AB4240F22081A8F102083D44ED1AA4B255
:10026800B5FBFAF00AFB105544EA054400FB09F90E
:10027800A14509D9E41900F1FF3380F00A81A145AD
:1002880040F2078102383C44A4EB090440EA0840E4
:100298000021002E61D024FA0EF40023346073602C
:1002A800BDE8F0878B4207D9002E54D0002186E89C
:1002B80021000846BDE8F087B3FA83F1002940F031
:1002C8008E80AB4202D3824200F2FA80841A65EB38
:1002D80003050120AC46002E3FD086E81010BDE88B
:1002E800F08712B90127B7FBF2F7B7FA87FEBEF11C
:1002F800000F34D1EB1B3A0C1FFA87FC0121B3FB2A
:10030800F2F8250C02FB183345EA03450CFB08F309
:10031800AB4207D9ED1908F1FF3002D2AB4200F227
:10032800D1808046ED1AA3B2B5FBF2F002FB10555E
:1003380043EA05440CFB00FCA44507D9E41900F185
:10034800FF3302D2A44500F2B8801846A4EB0C048F
:1003580040EA08409DE731463046BDE8F087CEF1D7
:10036800200405FA0EF307FA0EF720FA04F83A0CFF
:1003780025FA04F448EA0308B4FBF2F14FEA1845F9
:1003880002FB11441FFA87FC45EA044501FB0CF304
:10039800AB4200FA0EF409D9ED1901F1FF3080F0F3
:1003A8008A80AB4240F2878002393D44EB1A1FFA3B
:1003B80088F5B3FBF2F002FB103345EA034500FB76
:1003C8000CF3AB4207D9ED1900F1FF386FD2AB42FD
:1003D8006DD902383D44EB1A40EA01418FE7C1F17B
:1003E800200722FA07F88B4005FA01F448EA0303CC
:1003F80020FA07FE4FEA134CFD404EEA040EB5FB07
:10040800FCF94FEA1E440CFB19551FFA83F844EA1D
:10041800054509FB08F4AC4202FA01F200FA01FAB8
:1004280008D9ED1809F1FF3043D2AC4241D9A9F1FE
:1004380002091D442D1B1FFA8EFEB5FBFCF00CFBB8
:1004480010554EEA054400FB08F8A04507D9E41802
:1004580000F1FF3529D2A04527D902381C4440EACB
:100468000940A4EB0804A0FB02894C45C6464D464A
:1004780015D312D056B1BAEB0E0364EB050404FA97
:1004880007F7CB401F43CC40376074600021BDE8BC
:10049800F0871846F8E69046E0E6C245EAD2B8EB9F
:1004A800020E69EB03050138E4E72846D7E7404622
:1004B80091E78146BEE7014678E702383C4445E7C4
:1004C800084608E7A8F102083D442BE7704700BF3B
:1004D80080B582B000AF0023FB710C4A0B4B1B6840
:1004E80043F480731360032001F08CFA002000F0BD
:1004F8000FF80346002B02D00123FB7101E004F042
:1005080003FEFB7918460837BD4680BD002002402F
:1005180080B584B000AF78600023FB730C4B1B6878
:100528000C4AA2FB03239B09184601F092FA0346E2
:10053800002B02D00123FB7305E0002279684FF0FD
:10054800FF3001F06AFAFB7B18461037BD4680BDC4
:1005580000000020D34D621080B400AF044B1B682C
:100568000133034A136000BFBD465DF8047B704742
:100578002400002080B400AF034B1B681846BD461A
:100588005DF8047B704700BF2400002080B584B06C
:1005980000AF7860FFF7EEFFB8607B68FB60FB6830
:1005A800B3F1FF3F02D0FB680133FB6000BFFFF7E8
:1005B800E1FF0246BB68D21AFB689A42F7D300BF34
:1005C8001037BD4680BD80B483B000AF7860396015
:1005D8007B689B6823F47C123B681A437B689A60AB
:1005E80000BF0C37BD465DF8047B704780B483B00C
:1005F80000AF786039607B689B6823F0E0723B68E5
:100608001A437B689A6000BF0C37BD465DF8047BCF
:10061800704780B483B000AF78607B689B6803F054
:10062800E07318460C37BD465DF8047B7047000040
:1006380090B484B000AFF860B9607A603B60FB6842
:1006480060331A46BB689B0013441C462268084B5B
:1006580013407A6802F0F8413A680A43134343F0BA
:100668000043236000BF1037BD4690BC704700BFF1
:1006780000F0FF0390B482B000AF786039607B6807
:1006880060331A463B689B0013441C46236803F0FA
:10069800F84318460837BD4690BC704790B484B0FC
:1006A80000AFF860B9607A60FB6860331A46BB68CF
:1006B8009B0013441C46236823F000427B681343C5
:1006C800236000BF1037BD4690BC704780B483B02C
:1006D80000AF78607B68DB6803F44063002B01D1CE
:1006E800012300E0002318460C37BD465DF8047B63
:1006F800704790B484B000AFF860B9607A60FB6866
:1007080030331A46BB681B0A9B0003F00C031344E2
:100718001C462268BB6803F01F031F2101FA03F37C
:10072800DB431A407B689B0E03F01F01BB6803F094
:100738001F0301FA03F31343236000BF1037BD46BC
:1007480090BC704790B484B000AFF860B9607A602C
:10075800FB6814331A46BB685B0E9B0003F0040366
:1007680013441C462268BB681B0D03F01F030721B6
:1007780001FA03F3DB431A40BB681B0D03F01F03A8
:10078800796801FA03F31343236000BF1037BD46AD
:1007980090BC704780B485B000AFF860B9607A60EB
:1007A800FB68D3F8B020BB68C3F31203DB431A40DD
:1007B8007B6803F018030849D940BB680B40C3F3B2
:1007C80012031A43FB68C3F8B02000BF1437BD46B4
:1007D8005DF8047B704700BFFFFF070080B483B05B
:1007E80000AF78607B689B6803F01F0318460C37DE
:1007F800BD465DF8047B704780B483B000AF786075
:100808007B689B6803F4604318460C37BD465DF867
:10081800047B704780B483B000AF78607B689B68C6
:1008280023F0204323F03F037A68936000BF0C371E
:10083800BD465DF8047B704780B483B000AF786034
:100848007B689B6803F00053B3F1005F01D101237B
:1008580000E0002318460C37BD465DF8047B70475E
:1008680080B483B000AF78607B689B6823F0104346
:1008780023F03F0343F080527B689A6000BF0C3737
:10088800BD465DF8047B704780B483B000AF7860E4
:100898007B689B6803F08053B3F1805F01D101232B
:1008A80000E0002318460C37BD465DF8047B70470E
:1008B80080B483B000AF78607B689B6823F0004306
:1008C80023F03F0343F001027B689A6000BF0C37B6
:1008D800BD465DF8047B704780B483B000AF786094
:1008E8007B689B6823F0004323F03F0343F0020238
:1008F8007B689A6000BF0C37BD465DF8047B704783
:1009080080B483B000AF78607B689B6803F0010314
:10091800012B01D1012300E0002318460C37BD4606
:100928005DF8047B704780B483B000AF78607B6863
:100938009B6803F00203022B01D1012300E000238E
:1009480018460C37BD465DF8047B704780B483B009
:1009580000AF78607B689B6823F0004323F03F0377
:1009680043F004027B689A6000BF0C37BD465DF80F
:10097800047B704780B483B000AF78607B689B6865
:1009880003F00403042B01D1012300E000231846DF
:100998000C37BD465DF8047B704780B483B000AF68
:1009A80078607B689B6803F00803082B01D101235A
:1009B80000E0002318460C37BD465DF8047B7047FD
:1009C80090B589B000AF78600023FB770023BB6047
:1009D8007B68002B01D1012334E17B681B69002B64
:1009E8007B685B6D002B09D1786804F0DBFB7B68C2
:1009F80000229A657B68002283F850207B681B6878
:100A08001846FFF719FF0346002B04D07B681B68C4
:100A18001846FFF7FFFE7B681B681846FFF734FF90
:100A28000346002B13D17B681B681846FFF718FF95
:100A3800864B1B689B09864AA2FB03239B09BB6064
:100A480002E0BB68013BBB60BB68002BF9D17B6847
:100A58001B681846FFF718FF0346002B0DD17B686B
:100A68005B6D43F010027B685A657B689B6D43F0B1
:100A780001027B689A650123FB777B681B6818462F
:100A8800FFF778FF78617B685B6D03F01003002B3C
:100A980040F0CF807B69002B40F0CB807B685B6D9A
:100AA80023F4817343F002027B685A657B681B68F4
:100AB8001846FFF725FF0346002B15D16548FFF7B9
:100AC8001FFF04466448FFF71BFF03461C436348A7
:100AD800FFF716FF03462343002B05D17B685B68AD
:100AE80019465F48FFF76FFD7B685B7E5A037B689A
:100AF8005B6B1A437B68DB681A437B689B681A4305
:100B08007B6893F820301B041343BB617B6893F820
:100B18002030012B06D17B685B6A013B5B04BA6914
:100B28001343BB617B689B6A002B09D07B689B6A77
:100B380003F470727B68DB6A1343BA691343BB61C1
:100B48007B681A687B681B68D968464B0B40B96993
:100B58000B43D3607B681B681846FFF70BFF3861AF
:100B68007B681B681846FFF718FFF8603B69002B85
:100B78003DD1FB68002B3AD17B681B7E9A037B68CA
:100B880093F830305B001343BB617B681A687B685D
:100B98001B68DB6823F4804323F00203B9690B4325
:100BA800D3607B6893F83830012B18D17B681A68BA
:100BB8007B681B681B6923F4FF6323F004037968CF
:100BC800C86B7968096C08437968496C0843796887
:100BD800896C01430B4343F00103136107E07B6811
:100BE8001B687A681268126922F001021A617B6830
:100BF8001B69012B0CD17B681B687A681268126B21
:100C080022F00F017A68D269013A0A431A6307E0B1
:100C18007B681B687A681268126B22F00F021A63ED
:100C28007B685B6D23F0030343F001027B685A6520
:100C380007E07B685B6D43F010027B685A6501230F
:100C4800FB77FB7F18462437BD4690BD0000002087
:100C5800632D3E05000004500001045000020450BA
:100C68000003045007C0F0FF80B586B000AF78607D
:100C78005748FFF7B3FD38617B681B681846FFF7D4
:100C880079FE0346002B40F09C807B6893F8503037
:100C9800012B01D1022397E07B68012283F85020C1
:100CA800786800F0CDFC0346FB75FB7D002B40F017
:100CB80083807B685B6D23F4706323F0010343F446
:100CC80080727B685A657B681B68424A934202D0EF
:100CD8007B681B6800E0404B7A681268934202D038
:100CE8003B69002B05D17B685B6D23F480127B6820
:100CF8005A657B685B6D03F48053B3F5805F06D15A
:100D08007B689B6D23F006027B689A6502E07B682E
:100D180000229A657B681B681C221A607B68002287
:100D280083F850207B681B682A4A934202D07B686C
:100D38001B6800E0284B7A681268934208D03B6928
:100D4800002B05D03B69052B02D03B69092B14D138
:100D58007B681B68DB6803F00073002B07D07B6897
:100D68005B6D23F4405343F480527B685A657B687B
:100D78001B681846FFF7EAFD25E07B685B6D43F4C6
:100D880080127B685A657B681B68124A934202D0BE
:100D98007B681B6800E0104BFB60FB68DB6803F0B6
:100DA8000073002B0FD07B685B6D23F4405343F432
:100DB80080527B685A6506E07B68002283F85020E1
:100DC80001E00223FB75FB7D18461837BD4680BD40
:100DD80000030450000104500000045080B588B09E
:100DE80000AF786039606248FFF7F8FC78617B688B
:100DF8005B69082B02D10823FB612AE07B69002B81
:100E080005D07B69052B02D07B69092B11D17B6842
:100E18001B68DB6803F00103002B07D07B685B6D60
:100E280043F020027B685A6501239DE00423FB619F
:100E38000FE04F48FFF7E0FC0346002B07D07B6824
:100E48005B6D43F020027B685A6501238CE0042324
:100E5800FB61FFF78FFB38611AE03B68B3F1FF3F96
:100E680016D0FFF787FB02463B69D21A3B689A42C5
:100E780002D83B68002B0BD17B685B6D43F0040202
:100E88007B685A657B68002283F8502003236BE057
:100E98007B681B681A68FB691340002BDDD07B68F0
:100EA8005B6D43F400727B685A657B681B68184663
:100EB800FFF70CFC0346002B1CD07B685B7E002BE5
:100EC80018D17B681B681B6803F00803082B11D135
:100ED8007B685B6D23F480727B685A657B685B6D09
:100EE80003F48053002B05D17B685B6D43F001024E
:100EF8007B685A657B681B681E4A934202D07B68F0
:100F08001B6800E01C4B7A681268934208D07B6922
:100F1800002B05D07B69052B02D07B69092B04D1F6
:100F28007B681B68DB68BB610CE07B681B68114A47
:100F3800934202D07B681B6800E00F4BFB60FB68A4
:100F4800DB68BB61FB69082B04D17B681B6808223E
:100F58001A6008E0BB6903F48043002B03D17B6867
:100F68001B680C221A60002318462037BD4680BD36
:100F780000030450000104500000045080B483B002
:100F880000AF78607B681B681B6C18460C37BD4641
:100F98005DF8047B7047000080B5A6B000AF7860AC
:100FA8003960002387F897300023BB607B6893F88B
:100FB8005030012B01D1022338E37B68012283F8EA
:100FC80050207B681B681846FFF7D4FC0346002BAB
:100FD80040F019833B685B68052B24D83B685B6845
:100FE800023B032B1BD801A252F823F0051000087E
:100FF8000D100008151000081D1000083B680C2291
:101008005A6010E03B6812225A600CE03B681822D4
:101018005A6008E03B684FF480725A6003E03B680E
:1010280006225A6000BF7B6818683B6859683B68AD
:101038001B681A46FFF75DFB7B681B681846FFF7BD
:1010480099FCC7F890007B681B681846FFF7A5FC59
:10105800C7F88C00D7F89030002B40F04081D7F8C3
:101068008C30002B40F03B817B6818683B6819681E
:101078003B689B681A46FFF765FB3B685A697B68C3
:101088001B68DB68DB0803F003035B0002FA03F369
:10109800C7F888303B681B69042B0AD07B6818683E
:1010A8003B6819693B681A68D7F88830FFF7C0FAB7
:1010B80015E17B681B6800211846FFF7DBFA034639
:1010C800C3F31203002B0AD17B681B680021184662
:1010D800FFF7D0FA03469B0E03F01F0211E07B686E
:1010E8001B6800211846FFF7C5FA0346C7F8803089
:1010F800D7F8803093FAA3F3FB67FB6FB3FA83F357
:101108001A463B681B68C3F31203002B05D13B68E2
:101118001B689B0E03F01F0309E03B681B68BB6755
:10112800BB6F93FAA3F37B677B6FB3FA83F39A429F
:1011380006D17B681B68002200211846FFF7AEFA2B
:101148007B681B6801211846FFF794FA0346C3F32E
:101158001203002B0AD17B681B6801211846FFF790
:1011680089FA03469B0E03F01F020FE07B681B6899
:1011780001211846FFF77EFA03463B673B6F93FA57
:10118800A3F3FB66FB6EB3FA83F31A463B681B684E
:10119800C3F31203002B05D13B681B689B0E03F0B9
:1011A8001F0309E03B681B68BB66BB6E93FAA3F399
:1011B8007B667B6EB3FA83F39A4206D17B681B6821
:1011C800002201211846FFF769FA7B681B68022193
:1011D8001846FFF74FFA0346C3F31203002B0AD150
:1011E8007B681B6802211846FFF744FA03469B0EEA
:1011F80003F01F020FE07B681B6802211846FFF707
:1012080039FA03463B663B6E93FAA3F3FB65FB6D25
:10121800B3FA83F31A463B681B68C3F31203002B27
:1012280005D13B681B689B0E03F01F0309E03B6870
:101238001B68BB65BB6D93FAA3F37B657B6DB3FA43
:1012480083F39A4206D17B681B6800220221184664
:10125800FFF724FA7B681B6803211846FFF70AFA90
:101268000346C3F31203002B0AD17B681B680321D2
:101278001846FFF7FFF903469B0E03F01F020FE025
:101288007B681B6803211846FFF7F4F903463B65A2
:101298003B6D93FAA3F3FB64FB6CB3FA83F31A4632
:1012A8003B681B68C3F31203002B05D13B681B681E
:1012B8009B0E03F01F0309E03B681B68BB64BB6C13
:1012C80093FAA3F37B647B6CB3FA83F39A4206D157
:1012D8007B681B68002203211846FFF7DFF97B684B
:1012E8001B681846FFF70CFB0346002B40F00581EE
:1012F8007B6818683B6819683B68DB681A46FFF723
:1013080049FA3B68DB68AA4A934240F0F6807B685A
:1013180018683B681B68C3F31203002B0BD13B68AA
:101328001B689B0E013303F01F03092B94BF012395
:101338000023DBB211E03B681B683B643B6C93FA0B
:10134800A3F3FB63FB6BB3FA83F3013303F01F03CF
:10135800092B94BF01230023DBB2002B61D03B682B
:101368001B68C3F31203002B07D13B681B689B0E55
:1013780001339B0603F0F8420DE03B681B68BB6332
:10138800BB6B93FAA3F37B637B6BB3FA83F30133F1
:101398009B0603F0F8423B681B68C3F31203002B5B
:1013A80009D13B681B689B0E013303F01F03012121
:1013B80001FA03F30FE03B681B683B633B6B93FA4E
:1013C800A3F3FB62FB6AB3FA83F3013303F01F0351
:1013D800012101FA03F342EA03013B681B68C3F3E6
:1013E8001203002B0AD13B681B689B0E013303F0E4
:1013F8001F0213465B0013441B0510E03B681B6883
:10140800BB62BB6A93FAA3F37B627B6AB3FA83F38A
:10141800013303F01F0213465B0013441B050B4303
:1014280066E03B681B68C3F31203002B07D13B68D7
:101438001B689B0E01339B0603F0F8420DE03B68E6
:101448001B683B623B6A93FAA3F3FB61FB69B3FA3F
:1014580083F301339B0603F0F8423B681B68C3F330
:101468001203002B09D13B681B689B0E013303F064
:101478001F03012101FA03F30FE03B681B68BB61FE
:10148800BB6993FAA3F37B617B69B3FA83F30133F6
:1014980003F01F03012101FA03F342EA03013B6849
:1014A8001B68C3F31203002B0DD13B681B689B0E0E
:1014B800013303F01F0213465B0013441E3B1B0558
:1014C80043F0007313E03B681B683B613B6993FA88
:1014D800A3F3FB60FB68B3FA83F3013303F01F0245
:1014E80013465B0013441E3B1B0543F000730B437C
:1014F8003A6892681946FFF725F93B681A682D4B38
:101508001340002B00F08C802B48FFF782F8C7F8B7
:1015180084003B681B68294A93422BD1D7F8843052
:1015280003F40003002B25D17B681B68244A9342EF
:1015380004D07B681B68234A93426ED1D7F8843065
:1015480043F4000319461C48FFF750F81E4B1B686C
:101558009B091E4AA2FB03239A0913465B00134406
:101568009B00BB6002E0BB68013BBB60BB68002B13
:10157800F9D152E03B681B68154A93422AD1D7F843
:10158800843003F08073002B24D17B681B680C4ADD
:10159800934204D07B681B680A4A93423FD1D7F82C
:1015A800843043F0807319460348FFF71FF836E08C
:1015B80000007F400000088000030450000052C76C
:1015C800000004500002045000000020632D3E0576
:1015D800000084CB3B681B68164A934220D1D7F899
:1015E800843003F48003002B1AD17B681B68124AED
:1015F800934215D1D7F8843043F4800319460F4835
:10160800FEF7F4FF0CE07B685B6D43F020027B681B
:101618005A65012387F8973002E000BF00E000BF59
:101628007B68002283F8502097F89730184698373F
:10163800BD4680BD01000080000004500003045036
:1016480080B584B000AF78607B681B681846FFF7E8
:1016580057F90346002B46D17B681B689A68244BD0
:101668001340002B0DD07B685B6D43F010027B6844
:101678005A657B689B6D43F001027B689A6501237C
:1016880032E07B681B681846FFF712F9FEF772FF15
:10169800F86021E07B681B681846FFF731F90346BC
:1016A800002B04D17B681B681846FFF701F9FEF789
:1016B80061FF0246FB68D31A022B0DD97B685B6D6C
:1016C80043F010027B685A657B689B6D43F001020A
:1016D8007B689A65012307E07B681B681B6803F039
:1016E8000103012BD6D1002318461037BD4680BD13
:1016F8003F00008080B584B000AF78607B681B68CD
:101708001846FFF710F9F8607B681B681846FFF762
:10171800F7F80346002B40D0FB68002B3DD17B68CF
:101728001B689B6803F00D03012B0CD17B681B68B9
:101738001846FFF7D1F87B681B6803221A60FEF78A
:1017480019FFB86022E07B685B6D43F010027B688C
:101758005A657B689B6D43F001027B689A6501239B
:101768001CE0FEF707FF0246BB68D31A022B0DD90F
:101778007B685B6D43F010027B685A657B689B6DE4
:1017880043F001027B689A65012307E07B681B68C8
:101798009B6803F00103002BE3D1002318461037A0
:1017A800BD4680BD80B483B000AF78607B689B681D
:1017B80003F00043B3F1004F01D1012300E00023FF
:1017C80018460C37BD465DF8047B704780B584B079
:1017D80000AF786039600023BB607B6893F85030B5
:1017E800012B01D1022359E07B68012283F85020A4
:1017F8007868FFF77FFF0346FB73FB7B002B42D122
:101808007B685B6D23F4885323F0020343F00202E4
:101818007B685A657B681B687A681268926822F050
:1018280080413A680A439A607B681B687A68126844
:10183800926842F000429A6014E0BB680133BB60D2
:10184800BB68B3F5912F0DD37B685B6D23F0120352
:1018580043F010027B685A657B68002283F85020A9
:1018680001231BE07B681B681846FFF79BFF0346B4
:10187800002BE2D17B685B6D23F0030343F0010288
:101888007B685A6505E07B685B6D43F010027B68F6
:101898005A657B68002283F85020FB7B1846103776
:1018A800BD4680BD80B485B000AF78607B6803F02A
:1018B8000703FB600C4BDB68BB60BA684FF6FF039D
:1018C8001340BB60FB681A02BB68134343F0BF6355
:1018D80043F40033BB60044ABB68D36000BF1437CD
:1018E800BD465DF8047B704700ED00E080B400AFB2
:1018F800044BDB681B0A03F007031846BD465DF876
:10190800047B704700ED00E080B483B000AF03466D
:101918003960FB7197F90730002B0BDA0D49FB7919
:1019280003F00F03043B3A68D2B21201D2B20B445F
:101938001A7609E0084997F907303A68D2B21201D5
:10194800D2B20B4483F8002300BF0C37BD465DF8C4
:10195800047B704700ED00E000E100E080B489B04E
:1019680000AFF860B9607A60FB6803F00703FB61B9
:10197800FB69C3F10703042B28BF0423BB61FB6980
:101988000433062B02D9FB69033B00E000237B618B
:101998000122BB6902FA03F35A1EBB681A407B692D
:1019A8009A4001217B6901FA03F3591E7B680B40B9
:1019B800134318462437BD465DF8047B7047000082
:1019C80080B582B000AF78607B68013BB3F1807F5F
:1019D80001D301230FE00A4A7B68013B53600F21C2
:1019E8004FF0FF30FFF790FF054B00229A60044B41
:1019F80007221A60002318460837BD4680BD00BF7D
:101A080010E000E080B582B000AF78607868FFF73A
:101A180049FF00BF0837BD4680BD80B586B000AF1E
:101A28000346B9607A60FB7300237B61FFF75EFFB2
:101A380078617A68B9687869FFF790FF024697F984
:101A48000F3011461846FFF75FFF00BF1837BD4635
:101A580080BD80B582B000AF78607868FFF7B0FFCE
:101A6800034618460837BD4680BD000080B483B0E1
:101A780000AF78607B68042B06D1094A084B1B68C5
:101A880043F00403136005E0054A054B1B6823F087
:101A98000403136000BF0C37BD465DF8047B704734
:101AA80010E000E080B500AF00F002F800BF80BD94
:101AB80080B400AF00BFBD465DF8047B704780B5B9
:101AC80082B000AF78607B68002B01D1012314E05D
:101AD8007B681B79DBB2002B05D17B6800225A7129
:101AE800786803F08BFB7B6802221A717B680022FE
:101AF8001A617B6801221A71002318460837BD460F
:101B080080BD80B483B000AF786039607B685B7952
:101B1800012B01D102233CE07B6801225A717B68CA
:101B280002221A717B681B687A68126811683A6821
:101B380002F01002012000FA02F20A431A603B6820
:101B4800002B0FD17B681B681B6803F03C03042B38
:101B580018D17B681B687A681268526842F00102E3
:101B68005A600FE07B681B681B6803F47013B3F5B9
:101B7800802F07D17B681B687A681268526842F028
:101B880002025A607B6801221A717B6800225A712E
:101B9800002318460C37BD465DF8047B704780B4B7
:101BA80087B000AFF860B9607A603B6000237B6162
:101BB800FB681B687B61BB68002B05D17A697B6871
:101BC800134408337B6104E07A697B681344143357
:101BD8007B617B691A463B681360002318461C37F3
:101BE800BD465DF8047B704780B588B000AFF860EB
:101BF800B9607A600023FB61FB685B79012B01D136
:101C0800022307E1FB6801225A71FB6802221A715C
:101C1800BB681B68042B74D17B68002B37D1FEF797
:101C2800A9FCF86111E0FEF7A5FC0246FB69D31A8E
:101C3800012B0AD9FB681B6943F00802FB681A618B
:101C4800FB6803221A710323E4E0FB681B685B6BE3
:101C580003F40043002BE6D10120FEF797FCFB6854
:101C68001B68BA6892691A641EE0FEF783FC024694
:101C7800FB69D31A012B0AD9FB681B6943F00802D8
:101C8800FB681A61FB6803221A710323C2E0FB6830
:101C98001B685B6B002BE8DB0120FEF777FCFB6819
:101CA8001B68BA6892695A64FB681B68FA6812680C
:101CB800916C7A6802F0100240F2FF3000FA02F2EA
:101CC800D2431140BA68D0697A6802F0100200FA6B
:101CD80002F20A439A64FB681B68FA681268D16CBE
:101CE8007A6802F01002FF2000FA02F2D243114093
:101CF800BA68106A7A6802F0100200FA02F20A431F
:101D0800DA64BB681B69012B1DD1FB681B689B6BE0
:101D1800BB617B6803F010031F2202FA03F3DB4365
:101D2800BA691340BB61BB685B697B617B6803F080
:101D380010037A6902FA03F3BA691343BB61FB68BB
:101D48001B68BA699A63FB681B68DB6BBB617B68BD
:101D580003F01003072202FA03F3DB43BA691340C6
:101D6800BB61BB681A68BB689B681A43BB68DB68C1
:101D780013437B617B6803F010037A6902FA03F36B
:101D8800BA691343BB61FB681B68BA69DA63FB680D
:101D98001B68FA68126811687A6802F010024FF43A
:101DA800804000FA02F2D2430A401A60FB681B68BE
:101DB8001B68BB617B6803F0100340F6FC7202FAF3
:101DC80003F3DB43BA691340BB61BB685B687B61A3
:101DD8007B6803F010037A6902FA03F3BA691343C4
:101DE800BB61FB681B68BA691A60FB681B68FA6804
:101DF800126811687A6802F01002C02000FA02F234
:101E0800D2430A401A60FB6801221A71FB6800225B
:101E18005A71002318462037BD4680BD80B487B06C
:101E280000AF7860396000237B617FE13B681A6806
:101E380001217B6901FA03F31340FB60FB68002B67
:101E480000F071813B685B68022B03D03B685B68DC
:101E5800122B23D17B69DA087B68083253F82230C9
:101E68003B617B6903F007039B000F2202FA03F32F
:101E7800DB433A6913403B613B681A697B6903F0AD
:101E880007039B0002FA03F33A6913433B617B693A
:101E9800DA087B680832396943F822107B681B68C6
:101EA8003B617B695B00032202FA03F3DB433A6977
:101EB80013403B613B685B6803F003027B695B008E
:101EC80002FA03F33A6913433B617B683A691A6083
:101ED8003B685B68012B0BD03B685B68022B07D023
:101EE8003B685B68112B03D03B685B68122B30D1D1
:101EF8007B689B683B617B695B00032202FA03F302
:101F0800DB433A6913403B613B68DA687B695B00F5
:101F180002FA03F33A6913433B617B683A699A60B2
:101F28007B685B683B6101227B6902FA03F3DB4350
:101F38003A6913403B613B685B681B0903F0010287
:101F48007B6902FA03F33A6913433B617B683A6998
:101F58005A603B685B6803F00303032B18D17B6866
:101F6800DB6A3B6101227B6902FA03F3DB433A69CE
:101F780013403B613B685B68DB0803F001027B6947
:101F880002FA03F33A6913433B617B683A69DA6200
:101F98007B68DB683B617B695B00032202FA03F321
:101FA800DB433A6913403B613B689A687B695B0095
:101FB80002FA03F33A6913433B617B683A69DA60D2
:101FC8003B685B6803F08053002B00F0AC805E4AEE
:101FD8005D4B1B6E43F0010313665B4B1B6E03F0F6
:101FE8000103BB60BB68594A7B699B08023352F8FE
:101FF80023303B617B6903F003039B000F2202FA45
:1020080003F3DB433A6913403B617B68B3F1904FBC
:1020180025D07B684E4A93421FD07B684D4A934235
:1020280019D07B684C4A934213D07B684B4A934241
:102038000DD07B684A4A934207D07B68494A93424D
:1020480001D106230CE007230AE0052308E0042356
:1020580006E0032304E0022302E0012300E000235A
:102068007A6902F00302920093403A6913433B6194
:1020780036497B699B0802333A6941F823203A4B79
:102088001B683B61FB68DB433A6913403B613B6873
:102098005B6803F48033002B03D03A69FB68134371
:1020A8003B61314A3B6913602F4B5B683B61FB68BE
:1020B800DB433A6913403B613B685B6803F40033D8
:1020C800002B03D03A69FB6813433B61264A3B69FE
:1020D8005360254B9B683B61FB68DB433A691340BF
:1020E8003B613B685B6803F48013002B03D03A69BB
:1020F800FB6813433B611C4A3B6993601A4BDB68DE
:102108003B61FB68DB433A6913403B613B685B68B2
:1021180003F40013002B03D03A69FB6813433B61B7
:10212800114A3B69D3607B6901337B613B681A685C
:102138007B6922FA03F3002B7FF478AE00BF1C37CB
:10214800BD465DF8047B7047001002400000014066
:102158000004004800080048000C0048001000482F
:1021680000140048001800480004014080B483B0FF
:1021780000AF78600B467B8013467B707B78002B22
:1021880003D07A887B689A6102E07A887B689A62D1
:1021980000BF0C37BD465DF8047B704780B400AFC4
:1021A800044B1B6803F4C0631846BD465DF8047B06
:1021B800704700BF0070004080B485B000AF786001
:1021C8007B68B3F5007F30D1234B1B6803F4C063F1
:1021D800B3F5007F38D0204A1F4B1B6823F4C06337
:1021E80043F4007313601D4B1B68322202FB03F398
:1021F8001B4AA2FB03239B0C0133FB6002E0FB6834
:10220800013BFB60144B5B6903F48063B3F5806F9B
:1022180002D1FB68002BF2D10F4B5B6903F480639A
:10222800B3F5806F10D103230FE00B4B1B6803F449
:10223800C063B3F5806F07D0074A074B1B6823F4C8
:10224800C06343F480631360002318461437BD4607
:102258005DF8047B704700BF00700040000000205C
:1022680083DE1B4380B588B000AF78607B68002BA5
:1022780001D1012353E3A34B9B6803F00C03BB611B
:10228800A04BDB6803F003037B617B681B6803F0EA
:102298001003002B00F0DF80BB69002B07D0BB695F
:1022A8000C2B40F086807B69012B40F08280954B97
:1022B8001B6803F00203002B05D07B689B69002B89
:1022C80001D101232BE37B681A6A8E4B1B6803F04C
:1022D8000803002B04D08B4B1B6803F0F00305E0C8
:1022E800884BD3F894301B0903F0F0039A4223D9A2
:1022F8007B681B6A184600F0CBFC0346002B01D014
:1023080001230CE37F4A7F4B1B6843F008031360EB
:102318007C497C4B1B6823F0F0027B681B6A1343E3
:102328000B607849774B5B6823F47F427B68DB69F5
:102338001B0213434B6022E0724A724B1B6843F046
:10234800080313606F496F4B1B6823F0F0027B682A
:102358001B6A13430B606B496A4B5B6823F47F422B
:102368007B68DB691B0213434B607B681B6A18465A
:1023780000F08EFC0346002B01D00123CFE200F0D1
:10238800B3FB01465F4B9B681B0903F00F035E4AD2
:10239800D35C03F01F0321FA03F35C4A13600020A7
:1023A800FEF7B6F80346FB73FB7B002B52D0FB7B92
:1023B800B5E27B689B69002B32D0524A514B1B68AF
:1023C80043F001031360FEF7D5F8386108E0FEF723
:1023D800D1F802463B69D31A022B01D903239EE2A6
:1023E800484B1B6803F00203002BF0D0454A454BCD
:1023F8001B6843F0080313604249424B1B6823F0F3
:10240800F0027B681B6A13430B603E493D4B5B68D7
:1024180023F47F427B68DB691B0213434B601AE09D
:10242800384A384B1B6823F001031360FEF7A2F803
:10243800386108E0FEF79EF802463B69D31A022B82
:1024480001D903236BE22F4B1B6803F00203002B17
:10245800F0D100E000BF7B681B6803F00103002B8C
:1024680072D0BB69082B05D0BB690C2B0ED17B69D8
:10247800032B0BD1234B1B6803F40033002B62D0D2
:102488007B685B68002B5ED1012348E27B685B6850
:10249800B3F5803F06D11B4A1A4B1B6843F48033BF
:1024A80013601DE07B685B68B3F5A02F0CD1154A5B
:1024B800144B1B6843F480231360124A114B1B68AA
:1024C80043F4803313600BE00E4A0E4B1B6823F471
:1024D800803313600B4A0B4B1B6823F48023136073
:1024E8007B685B68002B1AD0FEF744F838610FE070
:1024F800FEF740F802463B69D31A642B08D9032338
:102508000DE200BF00100240C8540008000000207F
:10251800AE4B1B6803F40033002BE9D014E0FEF740
:1025280029F8386108E0FEF725F802463B69D31A16
:10253800642B01D90323F2E1A44B1B6803F4003395
:10254800002BF0D100E000BF7B681B6803F002039A
:10255800002B60D0BB69042B05D0BB690C2B19D1AB
:102568007B69022B16D1994B1B6803F48063002BFF
:1025780005D07B68DB68002B01D10123CFE19349AB
:10258800924B5B6823F0F8527B681B691B06134368
:102598004B6040E07B68DB68002B23D08B4A8B4B79
:1025A8001B6843F480731360FDF7E4FF386108E0AB
:1025B800FDF7E0FF02463B69D31A022B01D903233A
:1025C800ADE1824B1B6803F48063002BF0D07F4998
:1025D8007E4B5B6823F0F8527B681B691B0613432C
:1025E8004B6018E0794A794B1B6823F480731360B9
:1025F800FDF7C0FF386108E0FDF7BCFF02463B6904
:10260800D31A022B01D9032389E1704B1B6803F409
:102618008063002BF0D17B681B6803F00803002B54
:102628003CD07B685B69002B1CD0684A674BD3F8A9
:10263800943043F00103C2F89430FDF79BFF3861F2
:1026480008E0FDF797FF02463B69D31A022B01D930
:10265800032364E15D4BD3F8943003F00203002BAD
:10266800EFD01BE0594A594BD3F8943023F00103BB
:10267800C2F89430FDF77EFF386108E0FDF77AFF75
:1026880002463B69D31A022B01D9032347E14F4B7A
:10269800D3F8943003F00203002BEFD17B681B685A
:1026A80003F00403002B00F0A5800023FB77474BC1
:1026B8009B6D03F08053002B0DD1444A434B9B6D17
:1026C80043F080539365414B9B6D03F08053BB608F
:1026D800BB680123FB773E4B1B6803F48073002B18
:1026E80018D13B4A3A4B1B6843F480731360FDF7DB
:1026F80041FF386108E0FDF73DFF02463B69D31A08
:10270800022B01D903230AE1314B1B6803F48073C0
:10271800002BF0D07B689B68012B08D12B4A2B4BF0
:10272800D3F8903043F00103C2F8903024E07B687E
:102738009B68052B10D1254A244BD3F8903043F0E1
:102748000403C2F89030214A204BD3F8903043F06C
:102758000103C2F890300FE01C4A1C4BD3F89030AC
:1027680023F00103C2F89030184A184BD3F8903080
:1027780023F00403C2F890307B689B68002B16D0C6
:10278800FDF7F8FE38610AE0FDF7F4FE02463B6902
:10279800D31A41F28832934201D90323BFE00B4B8D
:1027A800D3F8903003F00203002BEDD019E0FDF7C9
:1027B800E1FE38610EE0FDF7DDFE02463B69D31A03
:1027C80041F28832934205D90323A8E00010024061
:1027D80000700040544BD3F8903003F00203002BF4
:1027E800E9D1FB7F012B05D14F4A4F4B9B6D23F05D
:1027F800805393657B689B6A002B00F08F80BB69D0
:102808000C2B00F089807B689B6A022B56D1464AC4
:10281800454B1B6823F080731360FDF7ABFE3861EE
:1028280008E0FDF7A7FE02463B69D31A022B01D93F
:10283800032374E03C4B1B6803F00073002BF0D1BA
:1028480039497B681B6B013B1A017B685B6B1B0278
:102858001A437B689B6B1B095B041A437B68DB6A22
:102868001A437B68DB6B5B08013B5B051A437B689B
:102878001B6C5B08013B5B061343CB602A4A2A4B5F
:102888001B6843F080731360274A274BDB6843F0CB
:102898008073D360FDF76EFE386108E0FDF76AFECD
:1028A80002463B69D31A022B01D9032337E01E4B9A
:1028B8001B6803F00073002BF0D02FE01A4A1A4B64
:1028C8001B6823F080731360174B1B6803F02053B9
:1028D800002B05D1144A144BDB6823F00303D360A3
:1028E800114A114BDB6823F0887323F48033D360DB
:1028F800FDF740FE386108E0FDF73CFE02463B6903
:10290800D31A022B01D9032309E0074B1B6803F0F4
:102918000073002BF0D101E0012300E000231846EA
:102928002037BD4680BD00BF0010024080B584B08E
:1029380000AF786039607B68002B01D10123C6E0C5
:10294800654B1B6803F007023B689A4210D2624944
:10295800614B1B6823F007023B6813430B605E4B17
:102968001B6803F007023B689A4201D00123AEE0DE
:102978007B681B6803F00103002B4CD07B685B6805
:10298800032B07D1554B1B6803F00073002B21D193
:1029980001239CE07B685B68022B07D14F4B1B68C7
:1029A80003F40033002B15D1012390E07B685B68AA
:1029B800002B07D1494B1B6803F00203002B09D1F8
:1029C800012384E0454B1B6803F48063002B01D18D
:1029D80001237CE04149414B9B6823F003027B685B
:1029E8005B6813438B60FDF7C5FDF8600AE0FDF7EF
:1029F800C1FD0246FB68D31A41F28832934201D9DD
:102A0800032364E0354B9B6803F00C027B685B682A
:102A18009B009A42EBD17B681B6803F00203002BF2
:102A280008D02E492D4B9B6823F0F0027B689B68E9
:102A380013438B60284B1B6803F007023B689A42DC
:102A480010D92549244B1B6823F007023B68134320
:102A58000B60214B1B6803F007023B689A4201D0C8
:102A6800012334E07B681B6803F00403002B08D0C3
:102A78001A491A4B9B6823F4E0627B68DB681343AE
:102A88008B607B681B6803F00803002B09D013498F
:102A9800124B9B6823F460527B681B69DB0013436D
:102AA8008B6000F021F801460C4B9B681B0903F072
:102AB8000F030B4AD35C03F01F0321FA03F3094AFF
:102AC80013600020FDF724FD0346FB72FB7A1846CD
:102AD8001037BD4680BD00BF0020024000100240F4
:102AE800C85400080000002080B489B000AF00235B
:102AF800FB610023BB61464B9B6803F00C033B6101
:102B0800434BDB6803F00303FB603B69002B05D0F4
:102B18003B690C2B21D1FB68012B1ED13C4B1B6858
:102B280003F00803002B07D1394BD3F894301B0A64
:102B380003F00F03FB6105E0354B1B681B0903F02D
:102B48000F03FB61334AFB6952F82330FB613B6991
:102B5800002B0DD1FB69BB610AE03B69042B02D154
:102B68002D4BBB6104E03B69082B01D12B4BBB61AA
:102B78003B690C2B45D1264BDB6803F00303BB6094
:102B8800234BDB681B0903F0070301337B60BB6839
:102B9800022B02D0032B0DD019E01F4A7B68B2FB31
:102BA800F3F31B4AD268120A02F07F0202FB03F316
:102BB8007B6119E0194A7B68B2FBF3F3144AD268C7
:102BC800120A02F07F0202FB03F37B610CE0FA6950
:102BD8007B68B2FBF3F30E4AD268120A02F07F0256
:102BE80002FB03F37B6100BF094BDB685B0E03F05C
:102BF800030301335B003B607A693B68B2FBF3F384
:102C0800BB61BB6918462437BD465DF8047B704735
:102C180000100240E05400080024F40000127A007A
:102C280080B400AF034B1B681846BD465DF8047BB3
:102C3800704700BF0000002080B500AFFFF7F0FF2D
:102C48000146064B9B681B0A03F00703044AD35C42
:102C580003F01F0321FA03F3184680BD0010024059
:102C6800D854000880B500AFFFF7DAFF0146064BDD
:102C78009B68DB0A03F00703044AD35C03F01F03D5
:102C880021FA03F3184680BD00100240D85400080A
:102C980080B586B000AF786000233B612A4B9B6DFE
:102CA80003F08053002B03D0FFF778FA786114E023
:102CB800254A254B9B6D43F080539365224B9B6DB2
:102CC80003F08053FB60FB68FFF768FA78611E4ADF
:102CD8001D4B9B6D23F0805393657B69B3F5007F93
:102CE8000BD17B68802B19D97B68A02B02D90223D2
:102CF8003B6113E001233B6110E07B68802B02D924
:102D080003233B610AE07B68802B02D102233B61ED
:102D180004E07B68702B01D101233B610B490B4B0D
:102D28001B6823F007023B6913430B60074B1B68C2
:102D380003F007023B699A4201D0012300E0002317
:102D480018461837BD4680BD0010024000200240DA
:102D580080B586B000AF78600023FB740023BB7495
:102D68007B681B6803F40063002B3FD07B685B6EB5
:102D7800B3F5800F1CD0B3F5800F02D8002B0ED00E
:102D88001FE0B3F5000F03D0B3F5400F1CD018E0D7
:102D9800854A854BDB6843F48033D36015E07B6854
:102DA80004330021184600F0B9FA0346FB740CE01E
:102DB8007B6820330021184600F0A0FB0346FB7413
:102DC80003E00123FB7400E000BFFB7C002B0BD168
:102DD8007549754BD3F8883023F440027B685B6EE5
:102DE8001343C1F8883001E0FB7CBB747B681B6827
:102DF80003F48053002B3FD07B689B6EB3F1807F38
:102E08001CD0B3F1807F02D8002B0ED01FE0B3F1A5
:102E1800007F03D0B3F1407F1CD018E0624A624BB8
:102E2800DB6843F48033D36015E07B68043300210A
:102E3800184600F073FA0346FB740CE07B682033F5
:102E48000021184600F05AFB0346FB7403E00123F7
:102E5800FB7400E000BFFB7C002B0BD15249524BA6
:102E6800D3F8883023F040727B689B6E1343C1F817
:102E7800883001E0FB7CBB747B681B6803F400337B
:102E8800002B00F0A08000237B74474B9B6D03F060
:102E98008053002B01D1012300E00023002B0DD02B
:102EA800414A414B9B6D43F0805393653E4B9B6D6C
:102EB80003F08053BB60BB6801237B743B4A3B4BE8
:102EC8001B6843F480731360FDF754FBF86009E056
:102ED800FDF750FB0246FB68D31A022B02D90323E5
:102EE800FB7405E0314B1B6803F48073002BEFD0B3
:102EF800FB7C002B5CD12C4BD3F8903003F440734F
:102F08007B617B69002B1FD07B68D3F884207B69A9
:102F18009A4219D0244BD3F8903023F440737B6144
:102F2800214A214BD3F8903043F48033C2F89030D3
:102F38001D4A1D4BD3F8903023F48033C2F89030EB
:102F4800194A7B69C2F890307B6903F00103002BB2
:102F580016D0FDF70FFBF8600BE0FDF70BFB024600
:102F6800FB68D31A41F28832934202D90323FB74D7
:102F780006E00D4BD3F8903003F00203002BECD0A1
:102F8800FB7C002B0CD10849074BD3F8903023F475
:102F980040727B68D3F884301343C1F8903009E05D
:102FA800FB7CBB7406E000BF0010024000700040CC
:102FB800FB7CBB747B7C012B05D19E4A9D4B9B6D92
:102FC80023F0805393657B681B6803F00103002B93
:102FD8000AD09849974BD3F8883023F003027B68CE
:102FE8009B6B1343C1F888307B681B6803F00203AE
:102FF800002B0AD08F498F4BD3F8883023F00C026E
:103008007B68DB6B1343C1F888307B681B6803F06F
:103018000403002B0AD08749864BD3F8883023F065
:1030280030027B681B6C1343C1F888307B681B68CF
:1030380003F00803002B0AD07E497E4BD3F8883072
:1030480023F0C0027B685B6C1343C1F888307B684F
:103058001B6803F01003002B0AD07649754BD3F890
:10306800883023F440727B689B6C1343C1F8883026
:103078007B681B6803F02003002B0AD06D496D4B59
:10308800D3F8883023F440627B68DB6C1343C1F8C3
:1030980088307B681B6803F40073002B0AD06549ED
:1030A800644BD3F8883023F440227B68DB6D1343EC
:1030B800C1F888307B681B6803F48063002B0AD052
:1030C8005C495C4BD3F8883023F440127B681B6E54
:1030D8001343C1F888307B681B6803F04003002B5A
:1030E8000AD05449534BD3F8883023F440527B68B4
:1030F8001B6D1343C1F888307B681B6803F080039D
:10310800002B0AD04B494B4BD3F8883023F440426C
:103118007B685B6D1343C1F888307B681B6803F4D8
:103128008073002B0AD04349424BD3F8883023F4EC
:1031380040327B689B6D1343C1F888307B681B68FD
:1031480003F40053002B28D03A493A4BD3F888307F
:1031580023F040627B68DB6E1343C1F888307B68DC
:10316800DB6EB3F1006F06D1324A324BDB6843F4B1
:103178008013D36011E07B68DB6EB3F1806F0CD1F4
:103188007B6804330121184600F0C8F80346FB7435
:10319800FB7C002B01D0FB7CBB747B681B6803F4B1
:1031A8000023002B28D02349224BD3F8883023F062
:1031B80040627B681B6F1343C1F888307B681B6FC4
:1031C800B3F1006F06D11B4A1A4BDB6843F4801336
:1031D800D36011E07B681B6FB3F1806F0CD17B6803
:1031E80004330121184600F099F80346FB74FB7C70
:1031F800002B01D0FB7CBB747B681B6803F4802325
:10320800002B2BD00B490B4BD3F8883023F04062AE
:103218007B685B6F1343C1F888307B685B6FB3F1E1
:10322800006F09D1034A034BDB6843F48013D36072
:1032380014E000BF001002407B685B6FB3F1806F41
:103248000CD17B6804330121184600F067F8034667
:10325800FB74FB7C002B01D0FB7CBB747B681B6878
:1032680003F48043002B2FD02B492B4BD3F8883005
:1032780023F040527B689B6F1343C1F888307B680A
:103288009B6FB3F1805F0DD17B6804330221184630
:1032980000F044F80346FB74FB7C002B14D0FB7C45
:1032A800BB7411E07B689B6FB3F1005F0CD17B6846
:1032B80020330221184600F021F90346FB74FB7CF9
:1032C800002B01D0FB7CBB747B681B6803F40043B4
:1032D800002B0AD01049104BD3F8883023F08042D5
:1032E8007B68DB6F1343C1F888307B681B6803F485
:1032F8008033002B0BD00849074BD3F8883023F0D4
:1033080000427B68D3F880301343C1F88830BB7C17
:1033180018461837BD4680BD0010024080B584B0FD
:1033280000AF786039600023FB73734BDB6803F0F0
:103338000303002B18D0704BDB6803F003027B6893
:103348001B689A420DD17B681B68002B09D06A4B19
:10335800DB681B0903F007035A1C7B685B689A4209
:1033680044D00123FB7341E07B681B68022B0CD01F
:10337800032B13D0012B20D15F4B1B6803F00203F2
:10338800002B1DD10123FB731AE05B4B1B6803F470
:103398008063002B16D10123FB7313E0564B1B6887
:1033A80003F40033002B0FD1534B1B6803F4802325
:1033B800002B09D10123FB7306E00123FB7304E012
:1033C80000BF02E000BF00E000BFFB7B002B0DD177
:1033D8004948494BDB6823F073027B6819687B68AE
:1033E8005B68013B1B010B431343C360FB7B002B52
:1033F8007DD1414A404B1B6823F080631360FDF781
:10340800B9F8B86009E0FDF7B5F80246BB68D31A09
:10341800022B02D90323FB7305E0374B1B6803F02B
:103428000063002BEFD1FB7B002B60D13B68002BA6
:1034380011D13148304B1B6923F41F3323F44073F7
:103448007A68926811027A68D268120952040A43AB
:103458001343036127E03B68012B12D12648264B12
:103468001B6923F4C00323F4FE437A6892681102AF
:103478007A6812695208013A52050A4313430361F4
:1034880011E01D481C4B1B6923F0C06323F4FE4365
:103498007A68926811027A6852695208013A5206AB
:1034A8000A4313430361144A134B1B6843F08063B8
:1034B8001360FDF75FF8B86009E0FDF75BF80246B6
:1034C800BB68D31A022B02D90323FB7305E00A4B0E
:1034D8001B6803F00063002BEFD0FB7B002B06D1A9
:1034E8000549054B1A697B689B6913430B61FB7B94
:1034F80018461037BD4680BD0010024080B584B024
:1035080000AF786039600023FB73684BDB6803F019
:103518000303002B18D0654BDB6803F003027B68BC
:103528001B689A420DD17B681B68002B09D05F4B42
:10353800DB681B0903F007035A1C7B685B689A4227
:1035480044D00123FB7341E07B681B68022B0CD03D
:10355800032B13D0012B20D1544B1B6803F002031B
:10356800002B1DD10123FB731AE0504B1B6803F499
:103578008063002B16D10123FB7313E04B4B1B68B0
:1035880003F40033002B0FD1484B1B6803F480234E
:10359800002B09D10123FB7306E00123FB7304E030
:1035A80000BF02E000BF00E000BFFB7B002B0DD195
:1035B8003E483E4BDB6823F073027B6819687B68E2
:1035C8005B68013B1B010B431343C360FB7B002B70
:1035D80067D1364A354B1B6823F080531360FCF7DC
:1035E800C9FFB86009E0FCF7C5FF0246BB68D31AFB
:1035F800022B02D90323FB7305E02C4B1B6803F055
:103608000053002BEFD1FB7B002B4AD13B68002BEA
:1036180011D12648254B5B6923F41F3323F44073EB
:103628007A68926811027A68D268120952040A43C9
:103638001343436111E01D481C4B5B6923F0C063D1
:1036480023F4FE437A68926811027A681269520874
:10365800013A52060A4313434361144A134B1B6849
:1036680043F080531360FCF785FFB86009E0FCF76E
:1036780081FF0246BB68D31A022B02D90323FB73CE
:1036880005E00A4B1B6803F00053002BEFD0FB7BCF
:10369800002B06D10549054B5A697B685B691343C2
:1036A8004B61FB7B18461037BD4680BD00100240B9
:1036B80080B582B000AF78607B68002B01D1012310
:1036C8001DE07B6893F83D30DBB2002B06D17B68A8
:1036D800002283F83C20786801F0BAFD7B6802225A
:1036E80083F83D207B681A687B68043319461046C6
:1036F80000F022F97B68012283F83D200023184658
:103708000837BD4680BD000080B584B000AFF860C2
:10371800B9607A60FB6893F83C30012B01D1022331
:1037280005E1FB68012283F83C20FB68022283F84C
:103738003D207B68142B00F2F08001A252F823F0A0
:103748009D37000823390008233900082339000869
:10375800DD37000823390008233900082339000819
:103768001F380008233900082339000823390008C6
:103778005F38000823390008233900082339000876
:10378800A138000823390008233900082339000824
:10379800E1380008FB681B68B968184600F066F94C
:1037A800FB681B68FA681268926942F008029A611D
:1037B800FB681B68FA681268926922F004029A6131
:1037C800FB681B68FA6812689169BA6812690A434B
:1037D8009A61A3E0FB681B68B968184600F0D6F93F
:1037E800FB681B68FA681268926942F400629A6181
:1037F800FB681B68FA681268926922F480629A6111
:10380800FB681B68FA6812689169BA681269120243
:103818000A439A6182E0FB681B68B968184600F0A1
:103828003FFAFB681B68FA681268D26942F008021E
:10383800DA61FB681B68FA681268D26922F0040230
:10384800DA61FB681B68FA681268D169BA6812699C
:103858000A43DA6162E0FB681B68B968184600F041
:10386800A7FAFB681B68FA681268D26942F400621A
:10387800DA61FB681B68FA681268D26922F4806210
:10388800DA61FB681B68FA681268D169BA6812695C
:1038980012020A43DA6141E0FB681B68B9681846FE
:1038A80000F0F0FAFB681B68FA681268526D42F083
:1038B80008025A65FB681B68FA681268526D22F0A4
:1038C80004025A65FB681B68FA681268516DBA6889
:1038D80012690A435A6521E0FB681B68B9681846F3
:1038E80000F034FBFB681B68FA681268526D42F4FA
:1038F80000625A65FB681B68FA681268526D22F408
:1039080080625A65FB681B68FA681268516DBA686C
:10391800126912020A435A6500E000BFFB680122DF
:1039280083F83D20FB68002283F83C2000231846DA
:103938001037BD4680BD00BF80B485B000AF786049
:1039480039607B681B68FB607B68404A934213D0F0
:103958007B68B3F1804F0FD07B683D4A93420BD010
:103968007B683C4A934207D07B683B4A934203D02A
:103978007B683A4A934208D1FB6823F07003FB60E6
:103988003B685B68FA681343FB607B682F4A934285
:103998001FD07B68B3F1804F1BD07B682C4A9342C1
:1039A80017D07B682B4A934213D07B682A4A9342EC
:1039B8000FD07B68294A93420BD07B68284A9342F0
:1039C80007D07B68274A934203D07B68264A9342F4
:1039D80008D1FB6823F44073FB603B68DB68FA6836
:1039E8001343FB60FB6823F080023B685B69134369
:1039F800FB607B68FA681A603B689A687B68DA62E1
:103A08003B681A687B689A627B68104A93420FD0B9
:103A18007B68124A93420BD07B68114A934207D0C5
:103A28007B68104A934203D07B680F4A934203D1C4
:103A38003B681A697B681A637B6801225A6100BF78
:103A48001437BD465DF8047B704700BF002C014069
:103A58000004004000080040000C00400034014011
:103A680000400140004401400048014080B487B054
:103A780000AF786039607B681B6A23F001027B68BD
:103A88001A627B681B6A7B617B685B683B617B6849
:103A98009B69FB60FB6823F4803323F07003FB60B1
:103AA800FB6823F00303FB603B681B68FA68134359
:103AB800FB607B6923F002037B613B689B687A6942
:103AC80013437B617B682C4A93420FD07B682B4A57
:103AD80093420BD07B682A4A934207D07B68294AD5
:103AE800934203D07B68284A93420CD17B6923F028
:103AF80008037B613B68DB687A6913437B617B69F8
:103B080023F004037B617B681B4A93420FD07B68D8
:103B18001A4A93420BD07B68194A934207D07B68B4
:103B2800184A934203D07B68174A934211D13B69E4
:103B380023F480733B613B6923F400733B613B686A
:103B48005B693A6913433B613B689B693A69134374
:103B58003B617B683A695A607B68FA689A613B689E
:103B68005A687B685A637B687A691A6200BF1C3797
:103B7800BD465DF8047B7047002C014000340140CD
:103B880000400140004401400048014080B487B033
:103B980000AF786039607B681B6A23F010027B688D
:103BA8001A627B681B6A7B617B685B683B617B6828
:103BB8009B69FB60FB6823F0807323F4E043FB60A0
:103BC800FB6823F44073FB603B681B681B02FA68C0
:103BD8001343FB607B6923F020037B613B689B6890
:103BE8001B017A6913437B617B68284A934203D09F
:103BF8007B68274A93420DD17B6923F080037B6160
:103C08003B68DB681B017A6913437B617B6923F09E
:103C180040037B617B681D4A93420FD07B681C4A36
:103C280093420BD07B681B4A934207D07B681A4AA1
:103C3800934203D07B68194A934213D13B6923F41A
:103C480080633B613B6923F400633B613B685B69CC
:103C58009B003A6913433B613B689B699B003A6947
:103C680013433B617B683A695A607B68FA689A61DA
:103C78003B685A687B689A637B687A691A6200BFF6
:103C88001C37BD465DF8047B704700BF002C01401F
:103C98000034014000400140004401400048014018
:103CA80080B487B000AF786039607B681B6A23F402
:103CB80080727B681A627B681B6A7B617B685B68C1
:103CC8003B617B68DB69FB60FB6823F4803323F08E
:103CD8007003FB60FB6823F00303FB603B681B6811
:103CE800FA681343FB607B6923F400737B613B68CC
:103CF8009B681B027A6913437B617B68274A93425E
:103D080003D07B68264A93420DD17B6923F4006374
:103D18007B613B68DB681B027A6913437B617B69C3
:103D280023F480637B617B681C4A93420FD07B68D5
:103D38001B4A93420BD07B681A4A934207D07B6890
:103D4800194A934203D07B68184A934213D13B69BE
:103D580023F480533B613B6923F400533B613B6888
:103D68005B691B013A6913433B613B689B691B0113
:103D78003A6913433B617B683A695A607B68FA6821
:103D8800DA613B685A687B68DA637B687A691A6229
:103D980000BF1C37BD465DF8047B7047002C01400E
:103DA8000034014000400140004401400048014007
:103DB80080B487B000AF786039607B681B6A23F4F1
:103DC80080527B681A627B681B6A3B617B685B6810
:103DD8007B617B68DB69FB60FB6823F0807323F4FD
:103DE800E043FB60FB6823F44073FB603B681B689F
:103DF8001B02FA681343FB603B6923F400533B61E1
:103E08003B689B681B033A6913433B617B68184A0C
:103E180093420FD07B68174A93420BD07B68164AAF
:103E2800934207D07B68154A934203D07B68144AB3
:103E3800934209D17B6923F480437B613B685B69CA
:103E48009B017A6913437B617B687A695A607B6856
:103E5800FA68DA613B685A687B681A647B683A6971
:103E68001A6200BF1C37BD465DF8047B704700BF6F
:103E7800002C014000340140004001400044014052
:103E88000048014080B487B000AF786039607B6833
:103E98001B6A23F480327B681A627B681B6A3B6169
:103EA8007B685B687B617B685B6DFB60FB6823F408
:103EB800803323F07003FB603B681B68FA68134388
:103EC800FB603B6923F400333B613B689B681B0440
:103ED8003A6913433B617B68174A93420FD07B686A
:103EE800164A93420BD07B68154A934207D07B68E9
:103EF800144A934203D07B68134A934209D17B69E1
:103F080023F480337B613B685B691B027A69134346
:103F18007B617B687A695A607B68FA685A653B6896
:103F28005A687B689A657B683A691A6200BF1C37D1
:103F3800BD465DF8047B7047002C01400034014009
:103F480000400140004401400048014080B487B06F
:103F580000AF786039607B681B6A23F480127B6845
:103F68001A627B681B6A3B617B685B687B617B6864
:103F78005B6DFB60FB6823F0807323F4E043FB6018
:103F88003B681B681B02FA681343FB603B6923F418
:103F980000133B613B689B681B053A6913433B610F
:103FA8007B68184A93420FD07B68174A93420BD01C
:103FB8007B68164A934207D07B68154A934203D020
:103FC8007B68144A934209D17B6923F480237B617F
:103FD8003B685B699B027A6913437B617B687A69FA
:103FE8005A607B68FA685A653B685A687B68DA6584
:103FF8007B683A691A6200BF1C37BD465DF8047BCE
:10400800704700BF002C01400034014000400140CF
:10401800004401400048014080B485B000AF78609A
:1040280039607B6893F83C30012B01D1022345E0CD
:104038007B68012283F83C207B68022283F83D20BC
:104048007B681B685B68FB607B681B689B68BB6060
:104058007B681B681C4A934204D07B681B681B4A18
:10406800934208D1FB6823F47003FB603B685B68EC
:10407800FA681343FB60FB6823F07003FB603B683E
:104088001B68FA681343FB60BB6823F08003BB60BE
:104098003B689B68BA681343BB607B681B68FA6817
:1040A8005A607B681B68BA689A607B68012283F84B
:1040B8003D207B68002283F83C20002318461437F3
:1040C800BD465DF8047B7047002C01400034014078
:1040D80080B485B000AF786039600023FB607B68EE
:1040E80093F83C30012B01D1022365E07B68012263
:1040F80083F83C20FB6823F0FF023B68DB6813432E
:10410800FB60FB6823F440723B689B681343FB60C9
:10411800FB6823F480623B685B681343FB60FB68C1
:1041280023F400623B681B681343FB60FB6823F4BD
:1041380080523B681B691343FB60FB6823F4005201
:104148003B685B691343FB60FB6823F480423B6870
:104158009B6A1343FB60FB6823F470223B689B69EE
:104168001B041343FB607B681B68164A934204D008
:104178007B681B68144A934215D1FB6823F47002CC
:104188003B685B6A1B051343FB60FB6823F0807286
:104198003B68DB691343FB60FB6823F000723B68F4
:1041A8001B6A1343FB607B681B68FA685A647B6868
:1041B800002283F83C20002318461437BD465DF8DA
:1041C800047B7047002C01400034014080B582B068
:1041D80000AF78607B68002B01D1012343E07B6846
:1041E80093F87130DBB2002B06D17B68002283F88C
:1041F8007020786801F06EF87B68242283F87120BB
:104208007B681B687A681268126822F001021A60DB
:10421800786800F02DF80346012B01D1012322E034
:104228007B685B6A002B02D0786800F05FFB7B68D4
:104238001B687A681268526822F490425A607B6858
:104248001B687A681268926822F02A029A607B6872
:104258001B687A681268126842F001021A6078686E
:1042680000F0E6FB034618460837BD4680BD00004F
:104278002DE9B04388B000AF78600023FB611023BC
:10428800FB7600237B8100237B610023FB740023E2
:10429800FB607B689A687B681B691A437B685B696B
:1042A8001A437B68DB691343FB617B681A687B6888
:1042B8001B681968AA4B0B40F9690B4313607B68AC
:1042C8001B687A681268526822F440517A68D2688A
:1042D8000A435A607B689B69FB617B681B68A14A3B
:1042E800934204D07B681B6AFA691343FB617B68BD
:1042F8001B687A681268926822F43061FA690A4386
:104308009A607B681B68984A934221D1974BD3F8EF
:10431800883003F00303032B16D801A252F823F0C8
:1043280039430008454300083F4300084B43000851
:104338000123FB76E4E00223FB76E1E00423FB762D
:10434800DEE00823FB76DBE01023FB7600BFD7E036
:104358007B681B68864A934234D1844BD3F88830F3
:1043680003F00C030C2B29D801A252F823F000BF4C
:10437800AD430008C5430008C5430008C54300080D
:10438800B9430008C5430008C5430008C5430008F1
:10439800B3430008C5430008C5430008C5430008E7
:1043A800BF4300080023FB76AAE00223FB76A7E0C0
:1043B8000423FB76A4E00823FB76A1E01023FB7618
:1043C80000BF9DE07B681B686A4A934220D1674B17
:1043D800D3F8883003F03003102B0FD0102B02D8FD
:1043E800002B05D010E0202B05D0302B09D00BE096
:1043F8000023FB7684E00223FB7681E00423FB762E
:104408007EE00823FB767BE01023FB7600BF77E095
:104418007B681B68584A934220D1544BD3F88830A4
:1044280003F0C003402B0FD0402B02D8002B05D03F
:1044380010E0802B05D0C02B09D00BE00023FB76C1
:104448005EE00223FB765BE00423FB7658E008235A
:10445800FB7655E01023FB7600BF51E07B681B68B4
:10446800464A934224D1414BD3F8883003F4407331
:10447800B3F5807F12D0B3F5807F02D8002B07D028
:1044880012E0B3F5007F06D0B3F5407F09D00BE00A
:104498000023FB7634E00223FB7631E00423FB762D
:1044A8002EE00823FB762BE01023FB7600BF27E0E5
:1044B8007B681B682B4A934223D12C4BD3F8883056
:1044C80003F44063B3F5806F12D0B3F5806F02D860
:1044D800002B07D012E0B3F5006F06D0B3F5406F9C
:1044E80009D00BE00023FB760AE00223FB7607E005
:1044F8000423FB7604E00823FB7601E01023FB7617
:1045080000BF7B681B68174A934240F0EE80FB7E31
:10451800082B37D801A252F823F000BF49450008FC
:104528008D450008514500088D450008574500088D
:104538008D4500088D4500088D4500085F45000839
:10454800FEF77AFBF86020E00D4BFB601DE0FEF7FC
:10455800CBFAF86019E04FF40043FB6015E000BFA8
:10456800F369FFEF0080004000380140001002406E
:104578000044004000480040004C0040005000400B
:104588000024F4000123FB7400BFFB68002B00F03B
:104598009E817B685A6813465B001A44FB689A42FE
:1045A80005D87B685B681A03FB689A4202D201232C
:1045B800FB748CE1FB7E082B00F2848001A252F888
:1045C80023F000BFF1450008CD4600083146000839
:1045D800CD46000865460008CD460008CD460008CF
:1045E800CD460008A3460008FEF726FB03464FF019
:1045F80000044FEA042949EA13694FEA03287B6853
:104608005B685B084FF0000418EB030049EB0401FA
:104618007B685B684FF000041A462346FBF7D0FD21
:1046280003460C467B6150E07B685B685B084FF093
:104638000004AD494FF0000213EB010844EB0209F6
:10464800404649467B685B684FF000041A4623469B
:10465800FBF7B6FD03460C467B6136E0FEF744FAED
:1046680003461A464FF000031D0245EA126514027C
:104678007B685B685B081A464FF00003A01845EB9F
:1046880003017B685B684FF000041A462346FBF77A
:1046980097FD03460C467B6117E07B685B685B0807
:1046A8004FF0000413F5000044F100017B685B68DB
:1046B8004FF000041A462346FBF782FD03460C46DA
:1046C8007B6102E00123FB7400BF7B69B3F5407F87
:1046D80008D37B69B3F5801F04D27B681B687A69AD
:1046E800DA60F4E00123FB74F1E07B68DB69B3F581
:1046F800004F7ED1FB7E082B5BD801A252F823F035
:104708002D4700084B47000869470008BB470008C9
:1047180085470008BB470008BB470008BB4700089F
:10472800A3470008FEF788FA03465A007B685B68CF
:104738005B081A447B685B68B2FBF3F39BB27B614E
:104748003AE0FEF78FFA03465A007B685B685B081D
:104758001A447B685B68B2FBF3F39BB27B612BE086
:104768007B685B685B0803F1F47303F590437A6830
:104778005268B3FBF2F39BB27B611DE0FEF7B4F91C
:1047880003465A007B685B685B081A447B685B6871
:10479800B2FBF3F39BB27B610EE07B685B685B085E
:1047A80003F580327B685B68B2FBF3F39BB27B61F5
:1047B80002E00123FB7400BF7B690F2B16D97B69CC
:1047C800B3F5803F12D27B699BB223F00F037B8144
:1047D8007B695B089BB203F007039AB27B8913439A
:1047E8007B817B681B687A89DA6070E00123FB743F
:1047F8006DE0FB7E082B59D801A252F823F000BFC8
:104808002D4800084948000865480008B5480008D0
:1048180081480008B5480008B5480008B5480008B0
:104828009D480008FEF708FA02467B685B685B084B
:104838001A447B685B68B2FBF3F39BB27B6138E098
:10484800FEF710FA02467B685B685B081A447B68CF
:104858005B68B2FBF3F39BB27B612AE07B685B6821
:104868005B0803F5740303F510537A685268B3FBC9
:10487800F2F39BB27B611CE0FEF736F902467B68D7
:104888005B685B081A447B685B68B2FBF3F39BB216
:104898007B610EE07B685B685B0803F500427B6820
:1048A8005B68B2FBF3F39BB27B6102E00123FB740C
:1048B80000BF7B690F2B08D97B69B3F5803F04D211
:1048C8007B681B687A69DA6001E00123FB747B6806
:1048D80000221A667B6800225A66FB7C184620373D
:1048E800BD46BDE8B08300BF000024F480B483B0A7
:1048F80000AF78607B685B6A03F00103002B0AD085
:104908007B681B687A681268526822F400317A68FA
:10491800926A0A435A607B685B6A03F00203002BC1
:104928000AD07B681B687A681268526822F4803162
:104938007A68D26A0A435A607B685B6A03F00403A8
:10494800002B0AD07B681B687A681268526822F4C8
:1049580080217A68126B0A435A607B685B6A03F0AD
:104968000803002B0AD07B681B687A6812685268B3
:1049780022F400417A68526B0A435A607B685B6A8A
:1049880003F01003002B0AD07B681B687A68126852
:10499800926822F480517A68926B0A439A607B6825
:1049A8005B6A03F02003002B0AD07B681B687A68D7
:1049B8001268926822F400517A68D26B0A439A60AE
:1049C8007B685B6A03F04003002B1AD07B681B6886
:1049D8007A681268526822F480117A68126C0A4365
:1049E8005A607B681B6CB3F5801F0AD17B681B6813
:1049F8007A681268526822F4C0017A68526C0A43D5
:104A08005A607B685B6A03F08003002B0AD07B68DE
:104A18001B687A681268526822F400217A68926CDE
:104A28000A435A6000BF0C37BD465DF8047B7047E7
:104A380080B586B002AF78600023FB607B680022F7
:104A48005A67FBF797FDF8607B681B681B6803F0E3
:104A58000803082B0ED16FF07E430093FB680022F9
:104A68004FF40011786800F02CF80346002B01D0B1
:104A7800032322E07B681B681B6803F00403042BF4
:104A88000ED16FF07E430093FB6800224FF4800143
:104A9800786800F016F80346002B01D003230CE0D9
:104AA8007B68202283F871207B68202283F872209B
:104AB8007B68002283F87020002318461037BD4613
:104AC80080BD80B584B000AFF860B9603B60134624
:104AD800FB712CE0BB69B3F1FF3F28D0BB69002B09
:104AE80007D0FBF747FD02463B68D21ABB699A42DA
:104AF8001DD9FB681B68FA681268126822F4D07224
:104B08001A60FB681B68FA681268926822F0010252
:104B18009A60FB68202283F87120FB68202283F8C2
:104B28007220FB68002283F8702003230FE0FB68E3
:104B38001B68DA69BB681A40BB689A420CBF01233C
:104B48000023DBB21A46FB799A42C3D000231846E9
:104B58001037BD4680BD000080B500AFFBF7B8FC3C
:104B680000F044F800F030FA00F0FAF900F0D0F85C
:104B780000F072F900F03CF97F211748FCF726FE97
:104B88000346002B03D07A21144800F0B7FA1248E4
:104B980000F064FA03461A46114B1A80104B1B8822
:104BA8009BB21A4610210F4800F082FA0C4B1B8862
:104BB8009BB247F6FE72934206D901224FF4005188
:104BC8000948FDF7D3FAE2E700224FF400510648FE
:104BD800FDF7CCFADBE700BF7C000020B8540008E2
:104BE80020000020680000200008004880B5B8B008
:104BF80000AF0223C7F89C304FF48073C7F8A83081
:104C08001023C7F8AC300223C7F8C4300223C7F812
:104C1800C8300123C7F8CC300A23C7F8D03007239F
:104C2800C7F8D4300223C7F8D8300223C7F8DC30DD
:104C380007F19C031846FDF715FB0346002B03D02C
:104C4800B121314800F05AFA0F23C7F888300323FE
:104C5800C7F88C300023C7F890300023C7F8943089
:104C68000023C7F8983007F1880304211846FDF798
:104C78005DFE0346002B03D0BF21234800F03EFA17
:104C880044F202033B600023FB634FF08053BB6791
:104C980002237B600123BB600823FB6007233B6181
:104CA80002237B610223BB614FF08073FB613B46AB
:104CB8001846FEF74DF80346002B03D0CE211248C4
:104CC80000F01CFA4FF40070FDF776FA0346002B4B
:104CD80003D0D5210C4800F011FAFDF7A1FF0246D8
:104CE8000A4BA3FB02239B091846FCF7B2FE0420DB
:104CF800FCF7BCFE002200214FF0FF30FCF78DFED0
:104D080000BFE037BD4680BDB8540008D34D6210DF
:104D180080B586B000AF324B324A1A60304B002261
:104D28005A602F4B00229A602D4B0022DA602C4BE0
:104D380000221A612A4B04225A61294B00221A7652
:104D4800274B00225A76264B0122DA61244B002297
:104D580083F82020224B00229A62214B0022DA623B
:104D68001F4B002283F830201D4B00225A631C4B36
:104D7800002283F838201A48FBF722FE0346002B4E
:104D880003D0FD21184800F0B9F9184B3B60062301
:104D98007B600023BB607F23FB6004233B6100230F
:104DA8007B613B4619460E48FCF7F6F80346002B94
:104DB80004D04FF485710C4800F0A0F93B46194621
:104DC8000748FCF7E9F80346002B04D040F211111C
:104DD800054800F093F900BF1837BD4680BD00BFF5
:104DE8007C00002000020450B8540008020030047F
:104DF80080B58AB000AF154B154A1A601348FCF706
:104E08005EFE0346002B04D04FF49171114800F068
:104E180075F900237B600023BB600023FB6000233F
:104E28003B6100237B613B1D102219460748FCF7B4
:104E3800DBFE0346002B04D04FF49771054800F0C1
:104E48005DF900BF2837BD4680BD00BF680000205F
:104E580000740040B854000880B596B000AF3D4BD0
:104E68003D4A1A603B4B00225A603A4B00229A6036
:104E7800384B0022DA60374B00221A61354B00228A
:104E88005A61344B00229A613248FEF711FC0346FE
:104E9800002B04D04FF4A271304800F02FF9002302
:104EA800FB6400233B6500237B6507F14C0319462F
:104EB8002848FFF7B1F80346002B04D04FF4A67139
:104EC800264800F01BF960233B6300237B63002323
:104ED800BB6300233B6400237B640023BB6407F1AE
:104EE80030030C2219461B48FEF70EFC0346002B24
:104EF80004D040F25711194800F000F900237B60F4
:104F08000023BB600023FB6000233B6100237B611F
:104F18004FF40053BB610023FB6100233B624FF059
:104F280000737B620023BB620023FB623B1D1946B2
:104F38000848FFF7CDF80346002B04D040F267116C
:104F4800064800F0DBF8034800F0A2F900BF583724
:104F5800BD4680BD2800002000340140B854000838
:104F680080B500AF154B164A1A60144B4FF4E13266
:104F78005A60124B00229A60104B0022DA600F4BE5
:104F880000221A610D4B0C225A610C4B00229A61C7
:104F98000A4B0022DA61094B00221A62074B0022F1
:104FA8005A620648FFF712F90346002B04D04FF463
:104FB800BF71044800F0A2F800BF80BDE0000020E7
:104FC80000440040B854000880B58AB000AF204AB9
:104FD8001F4BDB6C43F00403D3641D4BDB6C03F005
:104FE80004033B613B691A4A194BDB6C43F08003AD
:104FF800D364174BDB6C03F08003FB60FB68144A37
:10500800134BDB6C43F00103D364114BDB6C03F0EF
:105018000103BB60BB680E4A0D4BDB6C43F0020317
:10502800D3640B4BDB6C03F002037B607B684FF4AB
:1050380000537B61074BBB610023FB6107F114033D
:1050480019460548FCF7EAFE00BF2837BD4680BD73
:1050580000100240000021100008004880B582B00E
:1050680000AF78607868FBF7FFFD0346002B06D099
:105078004FF4D1710D4800F041F8002312E00A21E5
:105088007868FBF7ABFE0346002B06D04FF4D471CB
:10509800064800F033F8002304E07868FBF76EFF59
:1050A80003469BB218460837BD4680BDB854000871
:1050B80080B584B000AFF860B9607A607B68082278
:1050C800B968F868FCF76BFD0346002B04D04FF471
:1050D800DB71094800F012F8B968F868FCF711FDAF
:1050E8000346002B04D040F2BD11034800F006F837
:1050F80000BF1037BD4680BDB854000880B483B0E7
:1051080000AF78603960FEE780B582B000AF244A0E
:10511800234B1B6E43F001031366214B1B6E03F0F8
:1051280001037B607B681E4A1D4B9B6D43F08053D7
:1051380093651B4B9B6D03F080533B603B680320DA
:10514800FCF760FC002200216FF00B00FCF765FC07
:10515800002200216FF00A00FCF75FFC002200210A
:105168006FF00900FCF759FC002200216FF00400E1
:10517800FCF753FC002200216FF00300FCF74DFC04
:10518800002200216FF00100FCF747FC00220021FB
:105198004FF0FF30FCF741FC00BF0837BD4680BD2B
:1051A8000010024080B588B000AF78607B681B684B
:1051B8000F4A934217D10F4A0E4BDB6C43F400534E
:1051C800D3640C4BDB6C03F40053BB60BB68012356
:1051D800FB600B233B6100237B6107F10C0319463D
:1051E8000548FCF71BFE00BF2037BD4680BD00BF49
:1051F80000020450001002400008004880B588B042
:1052080000AF78607B681B680F4A934218D10F4A39
:105218000E4B9B6D43F0005393650C4B9B6D03F055
:105228000053BB60BB682023FB6003233B61002362
:105238007B6107F10C0319464FF09040FCF7EEFD37
:1052480000BF2037BD4680BD0074004000100240FA
:1052580080B485B000AF78607B681B680A4A9342C7
:105268000BD10A4A094B1B6E43F400531366074BD4
:105278001B6E03F40053FB60FB6800BF1437BD4688
:105288005DF8047B704700BF003401400010024005
:1052980080B588B000AF78607B681B680B4A934282
:1052A80010D14FF40073FB6002233B6100237B6144
:1052B8000023BB610323FB6107F10C031946044873
:1052C800FCF7ACFD00BF2037BD4680BD003401406F
:1052D8000008004880B588B000AF78607B681B681C
:1052E800114A93421CD1114A104B9B6D43F4003371
:1052F80093650E4B9B6D03F40033BB60BB680C23B6
:10530800FB6002233B6100237B610323BB6107230E
:10531800FB6107F10C0319464FF09040FCF77EFD46
:1053280000BF2037BD4680BD004400400010024049
:1053380080B400AF00BFBD465DF8047B704780B401
:1053480000AFFEE780B400AFFEE780B400AFFEE731
:1053580080B400AFFEE780B400AF00BFBD465DF883
:10536800047B704780B400AF00BFBD465DF8047B86
:10537800704780B400AF00BFBD465DF8047B70473E
:1053880080B500AFFBF7E8F8FCF78CFB00BF80BDE9
:1053980080B400AF174A174BD3F8883043F4700332
:1053A800C2F88830144A144B1B6843F00103136099
:1053B800114B00229A60104A0F4B1B6823F0A85328
:1053C80023F4102313600C4B4FF48052DA600A4A1E
:1053D800094B1B6823F480231360074B00229A6152
:1053E800044B4FF000629A6000BFBD465DF8047B35
:1053F800704700BF00ED00E000100240DFF834D035
:10540800002103E00C4B5B58435004310B480C4B14
:1054180042189A42F6D30B4A02E0002342F8043BB2
:10542800094B9A42F9D3FFF7B3FF00F011F8FFF7E1
:1054380093FBFEE7008001202055000800000020B3
:10544800040000200400002058010020FEE70000AE
:1054580070B50D4E0D4CA41BA4100025A54209D112
:105468000B4E0C4C00F018F8A41BA4100025A54204
:1054780005D170BD56F8253098470135EEE756F846
:10548800253098470135F2E71855000818550008E7
:10549800185500081C550008F8B500BFF8BC08BC32
:1054A8009E467047F8B500BFF8BC08BC9E467047DA
:1054B8002E2E5C5372635C6D61696E2E6300000072
:1054C80000000000000000000102030406070809AC
:1054D8000000000001020304A0860100400D030043
:1054E800801A060000350C0040420F0080841E0020
:1054F80000093D0000127A000024F40000366E0115
:085508000048E801006CDC0220
:08551000E8ACFF7F0100000080
:04551800AD010008D9
:04551C0089010008F9
:0455200000093D0041
:040000050800540596
:00000001FF
