:020000040000fa
:080000000002040000000000f2
:020000040000fa
:040008006c03000085
:020000040000fa
:04000c006c03000081
:020000040000fa
:040010006c0300007d
:020000040000fa
:040014006c03000079
:020000040000fa
:040018006c03000075
:020000040000fa
:04001c006c03000071
:020000040000fa
:040020006c0300006d
:020000040000fa
:040024006c03000069
:020000040000fa
:040028006c03000065
:020000040000fa
:04002c006c03000061
:020000040000fa
:040030006c0300005d
:020000040000fa
:04003400d0020000f6
:020000040000fa
:040038006c03000055
:020000040000fa
:04003c006c03000051
:020000040000fa
:040040006c0300004d
:020000040000fa
:040044006c03000049
:020000040000fa
:040048006c03000045
:020000040000fa
:04004c006c03000041
:020000040000fa
:040050006c0300003d
:020000040000fa
:040054006c03000039
:020000040000fa
:040058006c03000035
:020000040000fa
:04005c006c03000031
:020000040000fa
:040060006c0300002d
:020000040000fa
:040064006c03000029
:020000040000fa
:040068006c03000025
:020000040000fa
:04006c006c03000021
:020000040000fa
:040070006c0300001d
:020000040000fa
:040074002003000065
:020000040000fa
:040078006c03000015
:020000040000fa
:04007c006c03000011
:020000040000fa
:040080006c0300000d
:020000040000fa
:040084006c03000009
:020000040000fa
:040088006c03000005
:020000040000fa
:04008c006c03000001
:020000040000fa
:040090006c030000fd
:020000040000fa
:040094006c030000f9
:020000040000fa
:040098006c030000f5
:020000040000fa
:04009c006c030000f1
:020000040000fa
:0400a0006c030000ed
:020000040000fa
:0400a4006c030000e9
:020000040000fa
:0400a8006c030000e5
:020000040000fa
:0400ac006c030000e1
:020000040000fa
:0400b0006c030000dd
:020000040000fa
:0400b4006c030000d9
:020000040000fa
:0400b8006c030000d5
:020000040000fa
:0400bc006c030000d1
:020000040000fa
:0400c0006c030000cd
:020000040000fa
:0400c4006c030000c9
:020000040000fa
:0400c8006c030000c5
:020000040000fa
:0400cc006c030000c1
:020000040000fa
:0400d0006c030000bd
:020000040000fa
:0400d4006c030000b9
:020000040000fa
:0400d8006c030000b5
:020000040000fa
:0400dc006c030000b1
:020000040000fa
:0400e0006c030000ad
:020000040000fa
:0400e4006c030000a9
:020000040000fa
:0400e8006c030000a5
:020000040000fa
:0400ec006c030000a1
:020000040000fa
:0400f0006c0300009d
:020000040000fa
:0400f4006c03000099
:020000040000fa
:0400f8006c03000095
:020000040000fa
:0400fc006c03000091
:020000040000fa
:040100006c0300008c
:020000040000fa
:040104006c03000088
:020000040000fa
:040108006c03000084
:020000040000fa
:04010c006c03000080
:020000040000fa
:040110006c0300007c
:020000040000fa
:040114006c03000078
:020000040000fa
:040118006c03000074
:020000040000fa
:04011c006c03000070
:020000040000fa
:040120006c0300006c
:020000040000fa
:040124006c03000068
:020000040000fa
:040128006c03000064
:020000040000fa
:04012c006c03000060
:020000040000fa
:040130006c0300005c
:020000040000fa
:040134006c03000058
:020000040000fa
:040138006c03000054
:020000040000fa
:04013c006c03000050
:020000040000fa
:040140006c0300004c
:020000040000fa
:040144006c03000048
:020000040000fa
:040148006c03000044
:020000040000fa
:04014c006c03000040
:020000040000fa
:040150006c0300003c
:020000040000fa
:040154006c03000038
:020000040000fa
:040158006c03000034
:020000040000fa
:04015c006c03000030
:020000040000fa
:040160006c0300002c
:020000040000fa
:040164006c03000028
:020000040000fa
:040168006c03000024
:020000040000fa
:04016c006c03000020
:020000040000fa
:040170006c0300001c
:020000040000fa
:040174006c03000018
:020000040000fa
:040178006c03000014
:020000040000fa
:04017c006c03000010
:020000040000fa
:040180006c0300000c
:020000040000fa
:040184006c03000008
:020000040000fa
:040188006c03000004
:020000040000fa
:04018c006c03000000
:020000040000fa
:040190006c030000fc
:020000040000fa
:040194006c030000f8
:020000040000fa
:040198006c030000f4
:020000040000fa
:04019c006c030000f0
:020000040000fa
:0401a0006c030000ec
:020000040000fa
:0401a4006c030000e8
:020000040000fa
:0401a800460300000a
:020000040000fa
:0401ac006c030000e0
:020000040000fa
:040208006c03000083
:020000040000fa
:04020c006c0300007f
:020000040000fa
:040210006c0300007b
:020000040000fa
:040214006c03000077
:020000040000fa
:040218006c03000073
:020000040000fa
:04021c006c0300006f
:020000040000fa
:040220006c0300006b
:020000040000fa
:040224006c03000067
:020000040000fa
:040228006c03000063
:020000040000fa
:04022c006c0300005f
:020000040000fa
:040230006c0300005b
:020000040000fa
:040234006c03000057
:020000040000fa
:040238006c03000053
:020000040000fa
:04023c006c0300004f
:020000040000fa
:040240006c0300004b
:020000040000fa
:040244006c03000047
:020000040000fa
:040248006c03000043
:020000040000fa
:04024c006c0300003f
:020000040000fa
:040250006c0300003b
:020000040000fa
:040254006c03000037
:020000040000fa
:040258006c03000033
:020000040000fa
:04025c006c0300002f
:020000040000fa
:040260006c0300002b
:020000040000fa
:040264006c03000027
:020000040000fa
:040268006c03000023
:020000040000fa
:04026c006c0300001f
:020000040000fa
:040270006c0300001b
:020000040000fa
:040274006c03000017
:020000040000fa
:040278006c03000013
:020000040000fa
:04027c006c0300000f
:020000040000fa
:040280006c0300000b
:020000040000fa
:040284006c03000007
:020000040000fa
:040288006c03000003
:020000040000fa
:04028c006c030000ff
:020000040000fa
:040290006c030000fb
:020000040000fa
:040294006c030000f7
:020000040000fa
:040298006c030000f3
:020000040000fa
:04029c006c030000ef
:020000040000fa
:0402a0006c030000eb
:020000040000fa
:0402a4006c030000e7
:020000040000fa
:0402a8006c030000e3
:020000040000fa
:0402ac006c030000df
:020000040000fa
:0402b0006c030000db
:020000040000fa
:0402b4006c030000d7
:020000040000fa
:0402b8006c030000d3
:020000040000fa
:0402bc006c030000cf
:020000040000fa
:0402c0006c030000cb
:020000040000fa
:0402c4006c030000c7
:020000040000fa
:0402c8006c030000c3
:020000040000fa
:0402cc006c030000bf
:020000040000fa
:0402d0006c030000bb
:020000040000fa
:0402d4006c030000b7
:020000040000fa
:0402d8006c030000b3
:020000040000fa
:0402dc006c030000af
:020000040000fa
:0402e0006c030000ab
:020000040000fa
:0402e4006c030000a7
:020000040000fa
:0402e8006c030000a3
:020000040000fa
:0402ec006c0300009f
:020000040000fa
:0402f0006c0300009b
:020000040000fa
:0402f4006c03000097
:020000040000fa
:0402f8006c03000093
:020000040000fa
:0402fc006c0300008f
:020000040000fa
:040300006c0300008a
:020000040000fa
:040304006c03000086
:020000040000fa
:040308006c03000082
:020000040000fa
:04030c006c0300007e
:020000040000fa
:040310006c0300007a
:020000040000fa
:040314006c03000076
:020000040000fa
:040318006c03000072
:020000040000fa
:04031c006c0300006e
:020000040000fa
:040320006c0300006a
:020000040000fa
:040324006c03000066
:020000040000fa
:040328006c03000062
:020000040000fa
:04032c006c0300005e
:020000040000fa
:040330006c0300005a
:020000040000fa
:040334006c03000056
:020000040000fa
:040338006c03000052
:020000040000fa
:04033c006c0300004e
:020000040000fa
:040340006c0300004a
:020000040000fa
:040344006c03000046
:020000040000fa
:040348006c03000042
:020000040000fa
:04034c006c0300003e
:020000040000fa
:040350006c0300003a
:020000040000fa
:040354006c03000036
:020000040000fa
:040358006c03000032
:020000040000fa
:04035c006c0300002e
:020000040000fa
:040360006c0300002a
:020000040000fa
:040364006c03000026
:020000040000fa
:040368006c03000022
:020000040000fa
:04036c006c0300001e
:020000040000fa
:040370006c0300001a
:020000040000fa
:040374006c03000016
:020000040000fa
:040378006c03000012
:020000040000fa
:04037c006c0300000e
:020000040000fa
:040380006c0300000a
:020000040000fa
:040384006c03000006
:020000040000fa
:040388006c03000002
:020000040000fa
:04038c006c030000fe
:020000040000fa
:040390006c030000fa
:020000040000fa
:040394006c030000f6
:020000040000fa
:040398006c030000f2
:020000040000fa
:04039c006c030000ee
:020000040000fa
:0403a0006c030000ea
:020000040000fa
:0403a4006c030000e6
:020000040000fa
:0403a8006c030000e2
:020000040000fa
:0403ac006c030000de
:020000040000fa
:100400008f8b20000eff20000e01880000000000ee
:10041000000020000000e000020032000001200087
:100420002002880014000700220107000000e000fd
:1004300003003a00c0de2000010020000200370067
:100440000000200001002000810f70000100320038
:1004500014000700000020000000e000020032004d
:100460000000020000000000540b02000000000029
:100470000040da000000fe004440a900e001200036
:100480000000e0000300320000002000a00188000e
:100490004440a800000006008a1f78008b1f7800e7
:1004a0000000060091018800800478000000eb0045
:1004b0001a003700e284440032a0b4009905ba0063
:1004c000e284440032a0b4009906ba00e2844400f9
:1004d00032a0b4000006eb00476fde00fd07b2005b
:1004e000636ce10003003a00ebff07000000eb0043
:1004f0000a003700606ce10004003a00005deb0088
:100500008b05e900fdff3e00040037006168e10053
:10051000010032000086eb000b00070019c7ba008b
:100520001905ba000e04e00003003a000a00e000da
:10053000e0ff3a0000000600fe07b2009e018800be
:100540008a047800f5ff3700395dba008b05e900b1
:100550000c003200295dba008b05e900080032006a
:100560000c00e00003003a00e284440032a0b40032
:10057000f5ff370019ddba008b05e900faff3a00f4
:100580008904e800e184440032a0b40000000600c1
:10059000000000000000000000000000000000005b
:1005a00000a0fe003600f800849fbe00869fbe00bb
:1005b0003400f80004002000a40188000000fa00c4
:1005c000004080001140800061004000e080480051
:1005d00000408800114088000240800013408000e5
:1005e000204080003140800000015100818159008d
:1005f0009000200001002000800f5100818f5900e1
:1006000007003600460507000040800011408000ca
:10061000204088003140880010c0b30020e8b700b7
:100620008460a9000080fa003400f9004f03be0086
:100630004f02be003600f9000080fe0000400600b8
:100640003600f800809fbe00829fbe00849fbe00df
:10065000869fbe003400f80000002000a001880042
:100660000000fa002e0507008660a9000080fa004d
:100670003400f9004f03be004f02be004f01be0020
:100680004f00be003600f900004006003600f800ba
:10069000809fbe00829fbe00849fbe00869fbe00da
:1006a0003400f80000002000a00188000000fa00db
:1006b0001b0507009000a9000080fa003400f90033
:1006c0004f03be004f02be004f01be004f00be00f0
:1006d0003600f900004006000040da000000fe008d
:1006e0000a00fa0011002000b1bf9f00c0bf9f00a8
:1006f0006a805700d10307004fb897000080fa00c6
:10070000000006000a00fa00e20f500034003e002c
:1007100010418000e10f500003003200e20f500052
:1007200011003a000c003700032220000300e00013
:1007300001003a000040da002002e2000200350029
:100740002822ef0021e2a8002342ab000d003a006e
:100750002342a8000b003700032320000300e00021
:1007600001003a000040da003002e20002003500e9
:100770003822ef0031e2a8003342ab0001003a001a
:100780003342a800820178000b0037003102fb00e1
:10079000e10f500004003a002322ab00feff3a00b4
:1007a00024118800030037003322ab00feff3a001b
:1007b000a41188008301e9000300e000f3ff3a0080
:1007c000e10f500003003a002302ab00feff3200ad
:1007d0000b0037003302ab00feff32000800370089
:1007e00033002000b3bf9f00c0bf9f00d1bf9f0058
:1007f000e2bf9f006a805700920307006fb997001d
:10080000020078000080fa00000006000a00fa00ea
:1008100051002000b1bf9f00c0bf9f006a805700f9
:100820008a0307005fb897000080fa000000060006
:10083000889fbe0080047800b04580000000e00082
:1008400004003a000e0007000084eb000000e00006
:1008500008003500b84580000900e00005003200be
:1008600009004400060007000000e00001003d0010
:100870000084eb00080078004f04be000000060072
:10088000800078000100e00003003a000000200032
:10089000b0458800000005000080eb000200200049
:1008a000828f500002003e00b14588000000eb003e
:1008b000000006000000050003f0a200889fbe00b3
:1008c0008a9fbe008c1f7800b7000700be0033006f
:1008d0006450e1004f0032006420e1005200320019
:1008e00003826c0007003b000905d0000306d0001e
:1008f000820f54000c065d00020039000200320035
:1009000089017800030678008582550004003d00c7
:100910000003fd008103fd008502ea008b85420093
:10092000840f720002003b0060001000e08018009d
:100930006011b8000005eb007a28e1000a003900d8
:1009400006007800c75ddd00f707b20087807500fc
:100950002d003700828171000a0178006105600076
:100960008180d1000080d3008502e900f9ff3b00bf
:10097000060440008784480002003b006004140025
:10098000e0841c000988a300070032008a817100fe
:1009900082817100610164008904d1000884d30060
:1009a0008b05e800170037000978a30013003a0010
:1009b0000b00e000130034008b05e900080444003c
:1009c00089844c000a4474000978a3000d003a00a1
:1009d0000b00e000070034008b05e9000804440028
:1009e00089844c0001003a000b0020000978a30024
:1009f000f7ff32000001eb00020037008281710036
:100a00000a0178002d0007000cf0a70001f0a000fb
:100a1000760037006420e10002003a00838f6c000a
:100a2000760033000801be000200be006f003700f0
:100a30000001be00470007000470a70003f0a100fa
:100a40006509b100160032000d0035006828e1008c
:100a500006003500f0ff2f00f1ff27000300e00043
:100a600013003b00010028000000050000004000ca
:100a7000818048008502e900fcff3a000800370049
:100a8000f88f420002003c008000eb0000000500ef
:100a90008100d1000080d3008502e800fcff3a000d
:100aa0000300e00002003b0060001000e08018003e
:100ab000000006006011b800970037008100200098
:100ac000618055000b003d000b00200061fe2f00ef
:100ad0000100e1001d0034008281710061016400a9
:100ae0008904d1000884d3000000e800faff3a002e
:100af00071002000610064000300700002006000cb
:100b00000900320061044400e0844c000988a5001b
:100b1000050032008b05e8006808e10002003a0099
:100b20008904d1000884d300f20f20000258e100ac
:100b300005003d00c75ddd00f907b2008980750042
:100b400008007800000006000bf827008b007800f2
:100b500000000500c70ade00f107b200f50fb20081
:100b600008003200e1cf4200020032000170a00014
:100b700024000500810f7000010032000408050008
:100b800044000500810f700002003a0014000500c7
:100b90008502e9000000400081c04800fcff3b00e6
:100ba0000170a000240005000004be00e9ff07005a
:100bb0000003be000405be000200be00e5ff070002
:100bc000844f7500000006000200be006450e10082
:100bd000050036006420e100020036000968a30029
:100be00001003a000800be000160a0004f06780036
:100bf0004f05be004f04be0000000600f0ff2f00ae
:100c0000f1ff2700f9ff3700889fbe008a9fbe00d2
:100c10008c1f7800e4ff0700ebff330003866c00b5
:100c20006450e100240032006420e100270032001b
:100c30006150e100220032006120e1002100320019
:100c40008b854200eb07b1000134b800003ab800d0
:100c50000804420089844a00013ab8000030b80014
:100c60008880400009014a00040033000000400071
:100c700081804800020149008b05e900c909dd00b7
:100c8000830170000100320013002000c814de0050
:100c90004814dd004709de001200b200c808de007b
:100ca0000884700085ff070001f0a1000cf0a70088
:100cb00001f0a000cdff37006120e100cfff32003e
:100cc0000801be000200be00f7ff37006150e100de
:100cd000fcff3a00c9ff37006022b800060220007e
:100ce0000000d0008180d2000482d2008582d20030
:100cf0000000a0000202520083825a00030031006b
:100d00000202420083824a000000a1000603e900bb
:100d1000f3ff3a0000000600889fbe008a9fbe00d5
:100d2000008270000402710004827100260032000b
:100d30000004be000200be006011b8006b09200074
:100d4000950220000182cf000a0039000541b10060
:100d50000082cf00070039000541b1000982cf00b1
:100d6000040039000541b1000882cf0001003900bc
:100d70000541b10005425200120032000a003b005a
:100d800082817100610164008100d1000080d30084
:100d90008984d3000884d3008b05e8000442e8006e
:100da000f7ff3a00070037000804440089844c002c
:100db00000004800818048008b05e9000442e900fa
:100dc000f9ff3a003dff07004f05be004f04be008b
:100dd00000000600e18420006a000700800078001f
:100de0000080eb000100e00004003500e1842000f9
:100df000a0002000020007004f80de000000060077
:100e0000889fbe008a1f78000004be00c9009000c1
:100e100069009000808f50000500390009007800bb
:100e2000b70007008080eb000000e00016003500ee
:100e3000084578004900900008587800c0049800e0
:100e40001900780000b8a30004003a0000a8a3002d
:100e500007003200ea4f540005003a00090078000c
:100e60000d0007008080eb000000e00006003a0063
:100e700000c020001900600002003200490090000c
:100e8000e00498008a80fb00010078004f0578009c
:100e90004f04be0000000600889fbe008a1f780035
:100ea000000478000800e0000d003a00c889200026
:100eb000700544008004eb00580078000000e0005a
:100ec00004003200f4ff07000000e00001003d00d4
:100ed0008084eb008a0f5400f7ff3a0025003700aa
:100ee00000002200180060008004eb0021003200a6
:100ef000a80490000f00370009015100384090000d
:100f00000000fb0089007800fefd07000000e00003
:100f100007003c00280090004004980060049800fe
:100f2000500c98001890a0008084eb00110037004e
:100f30008084440048019000828f5400eeff390005
:100f400028009000400498009800780002c020001b
:100f50000281600001003a003800900001e8a3001f
:100f6000020032006004980001003700500c980025
:100f70008004eb00090078004f0578004f04be00a4
:100f800000000600889fbe008a9fbe008004780093
:100f9000010478002c003700c80090006800900021
:100fa000808f5000040039000800780054000700ca
:100fb0000000e0003700350000402000180060000d
:100fc00009003200a100200009007800420007005b
:100fd000800578000b00e0000300320061851400fa
:100fe0000a85450004003700090078003400070036
:100ff000000578008005eb0048009000e8009000b4
:10100000808050008a8f5000020031000105780076
:101010008005eb000a0178008900780021000700b4
:10102000480090000a004000400498000b00e000d7
:10103000040032000800780097ff07000000e0007d
:1010400014003a008a8444001904e000d2ff3a00f8
:1010500000802000180060000600320008007800c0
:101060008dff0700800078000080eb000100e000a9
:1010700009003a0001c02000988060000000eb00e9
:101080000500320048009000600498000000eb006a
:10109000010037000080eb004f05be004f04be008a
:1010a000000006008001780002003700b159780086
:1010b0000201e9000200e000fcff3a000000060027
:1010c00080007800010178003104e000fdff3a0063
:1010d00000005100000006000001eb000002780053
:1010e000b041780081cf510001003a00040178003e
:1010f0000304e000f9ff3a00020078000000060057
:10110000889fbe008a1f780000047800c800900005
:10111000680190000000eb00828f50003c00390015
:10112000180078002200290002016000e20f51003f
:1011300007003200012024000000e00001003d0013
:1011400001202000008c70000080eb003000370090
:101150000200260002006000820f500009003a00e1
:1011600038009000808f5000060039000800780099
:1011700049ff0700800078000080eb000100e000dc
:1011800023003a001805780000c020000000650028
:1011900018003a00a80490006002200008004000f7
:1011a000808f540013003a0000202000ef00070059
:1011b000200498000000e00005003a00290498008f
:1011c000490498008904e8003904980008003700b1
:1011d0000a60a0000a0c780040049800012020005a
:1011e0008080400031049800400c9800500c98001a
:1011f0000c00070028009000500498003800900070
:101200006004980000002600180c70000000eb003d
:101210004f0578004f04be0000000600409b2000f0
:1012200061003700881f7800288b20001804e00038
:1012300003003a00f9ff070020c0b300004c78001b
:101240004f04780000000600889fbe00000478006c
:101250000800780010ff07008004780000042000d8
:101260001800600002003200280090005a000700b9
:101270000000eb0020049800384090000004e000db
:10128000050035000000fb0015fd07000000e00030
:10129000010032008084eb00181090000000e00094
:1012a0000800320059fd07000000e0000100320094
:1012b0008084eb0018109000470007000000eb004e
:1012c000101498000008200018006000150032007b
:1012d0000001eb006000b800e38920000202d000aa
:1012e00063027a00880f520005003a0000004000b7
:1012f00081804800008041000008eb0006003700b4
:1013000061004000e08048000201e800e80f500062
:10131000e08f5800f0ff3a00080078002e00070028
:101320000e003700000c780000c0eb00304498003d
:10133000600220000800400020049800400498004b
:1013400050049800400c980060049800500c9800dd
:101350007004980076004400000c980009007800a2
:101360004f04be0000000600881f78000004eb0058
:101370006140b800e2ff2f00f3ff2f00b500070027
:10138000c28a2000620078000000e0000100320004
:10139000adff07000804e800e80f5400f4ff3a002e
:1013a0004f04780000000600010020000100e0006a
:1013b00008003200010080000100e000050032005a
:1013c0008100e900010088008100d0000200800057
:1013d00000b17800000006000000e0002f0032009d
:1013e000c0017800e38f51002c0036000308a300f1
:1013f0002a003a00814580000100e000020032002e
:10140000810f5000040031001100980080458800d1
:101410001600370082007800110190000200e00001
:1014200002003200800f5100faff390011027800eb
:1014300084824000850f500018003900808f5200d0
:1014400003003a00830842000100780007003700db
:101450000200e0000300320083014000830f5100ce
:101460000e00390012009800900098009000900043
:101470000100e0000900320010014000828f50009e
:1014800006003a00e28a20000009eb001001780013
:101490001108410091009000110098000000060022
:1014a000889fbe0000047800714580000100e000c4
:1014b00002003200010078000d00370081458000f5
:1014c000008b200004003700910f540025003600e7
:1014d0000180e800910090000100e000faff3a006e
:1014e00010003700920f54001e0036000280e80002
:1014f000100178000200e000faff3a0011017800c4
:1015000081458000008b200004003700910f5400bb
:10151000140036000180e80091009000828f500096
:10152000faff3a00a9458000888f5400010031007d
:101530008804780009007800360007000000e00009
:1015400004003a00888f5400050032008904d1005d
:10155000f5ff3700091878009fff0700d2ff37001a
:101560000000eb004f04be0000000600881f78005a
:10157000630440000800a1008000eb00800f5400cd
:1015800021003600e30f540001003e004800200017
:1015900008007800c2ff07008000eb000000e000b8
:1015a00019003200900078009101780064815100a8
:1015b000880f5100030031001101900002087800eb
:1015c0000700370008814000020878009101900070
:1015d00013019800100178001109140088087800a0
:1015e000100178000000eb000200e000040032006f
:1015f000920190000300e000010032000280e80048
:10160000704588008180e800010078004f04780070
:1016100000000600800078000000eb000100e00000
:10162000050034000100780081fc0700e10f400054
:1016300001003a000000eb000000060000c0da00e4
:101640000000060000c0da000000060000c0da005a
:1016500000000600020ab900001bb9000200b80031
:0c166000810042008100430000000600f1
:020000040000fa
:10166c000d4300006f6e0000747200006f6c000080
:10167c00616400006f7200002050000049440000bb
:10168c002064000065200000706f0000736900008a
:0c169c00636100006f0d00000000000002
:020000040000fa
:1016a8000400fa007a0007008400070000b0240054
:1016b80001002000a4000700c1000700d6000700b1
:1016c800e7000700f40007000a010700850007008b
:1016d80060b32800bdfd07000100370000000000ce
:1016e80020c8bf000004e000fcff32004140800039
:1016f800010f7800a0002000860007008000eb00a2
:10170800eafc07003233230033fb23003cfd0700cb
:10171800626620003353240065fc0700c2fc070002
:10172800100798001e019000808120001000be0064
:1017380000007800000051005040880051408000af
:1017480080812000200090000080500040408800e8
:10175800404080001e0f500020418000800078002b
:10176800404080000088b900000078008040880070
:101778004140800080f32f00808f50001900350011
:1017880041408000800c2000808f500015003c00f4
:101798006040800080007800404080000088b900e8
:1017a80080007800904080000080400090408800d1
:1017b80091408000803e2000808f5000030034005c
:1017c800803e20009040880006003700914080004d
:1017d80080c12f00808f500002003d0080c12f0083
:1017e80090408800714080001e0078000088b90091
:1017f80000007800a0408800814080009040800070
:1018080080804000a040800000804000b0408800f8
:10181800b0408000f30f500002003c00c222a80034
:1018280001003700c222a900b140800080c12f000a
:10183800808f500002003d0080c12f00b04088001a
:10184800b1408000803e2000808f500002003400ac
:10185800803e2000b0408800b04080000000e000da
:1018680003003d00b04080000000ea00b04088005e
:10187800b0408000f30f500001003c001628ef0034
:10188800b0408000e00a88002068ef0094ff37002d
:101898000000fa00213a8000f0ff28000080600074
:1018a800203a8800213a8000f08f2f0000806000e5
:1018b800203a88000080fa00000006000000fa00c4
:1018c800e024ef00c022a900e224ef00c902a90029
:1018d800e3c4a800c9c2a800c9e2a8000080fa00b1
:1018e800000006000000fa0000472000001a8800e7
:1018f8004223ef0030002100201a88005023ef0017
:1019080085a0a90095a0a90041e3a8000080fa00dd
:10191800000006000200fa00000f78009e00780020
:10192800411a88004023a80000000000001a800027
:10193800610060000000e000fcff32000018800039
:101948000080fa00000006000400fa00008fbe00c4
:101958001e01be004418dd00cc10de0081007000be
:101968004410dd000001be0000402200410f2000ad
:10197800d7fc0700000078000000e900401188004b
:101988002022ef002062a9002222ef0021e2a80015
:101998002342a80011118000f0f32f00008060009e
:1019a8000070a00010118800011180000030200094
:1019b80001007000001188000080fa000000060095
:1019c8000000fa0000012800200888000021ef002c
:1019d800f07c2000100888008460a9009460a800aa
:1019e8000080fa00000006000000fa0065a0a800c8
:1019f8008660a90061058000f0ff280080806000f3
:101a08000000230001007000600588009660a800af
:101a18000080fa00000006000000fa004021ef00f4
:101a2800010a800000ff2f00008060005000b30012
:101a3800000a88004221ef004721a8004a21ef0050
:101a48005021ef00803e2000a00a88005821ef00b6
:101a58005c21ef0041e1a8000080fa0000000600c8
:101a68000000fa006421ef00210b800000702000c4
:101a780001007000200b88000080eb00c00b88007c
:101a88007421ef0065e1a8008500a9009500a90070
:101a98000080fa00000006000000fa00110980002a
:101aa80080ff2f00008060000020a000100988003f
:101ab8003109800080ff2f00008060003009880015
:101ac80031098000f0f82f0000806000300988009c
:101ad8002a21a8002b61a80023e1a8002341a8001f
:101ae8002361a8009000a900a000a8000080fa00c7
:101af800000006000000fa00828120006000b800a3
:101b08000089be00a10b8000808120003100980070
:101b18000080fa00000006000200fa00a10b800015
:101b2800010f780080812000300090009e0f500047
:101b38000900360080812000300090000080ea0013
:101b48001e0040000000e80080007800808120002e
:101b580021009800060037008081200030009000a6
:101b68001e0010008000780080812000210098006d
:101b78001109800000042000008060000000e000df
:101b880005003a0080812000200090008000ea00d3
:101b98008081200021009800808120009e0078002c
:101ba80031009800808120001001be008081200053
:101bb80020009000cf80de000200400083804800b3
:101bc800828120000089be000080fa000000060023
:020000040000fa
:101bd80022080000040000000200000001000100cb
:101be80000000000000800002200000000000000c3
:101bf8002608000088000000020000000100000024
:101c0800004c08004d084c00084c08004c084c00db
:101c1800083c080000000000000000000000000070
:101c280000000000000000000000000000000000ac
:101c380000020800010174000875080074087400a7
:101c48000874080074086400080000000000000020
:101c5800000000000000000000000000000000007c
:101c68000000000000000200080202009c089d001d
:101c7800089c08009c089c00089c08008c08000030
:101c8800000000000000000000000000000000004c
:101c980000000000000000000000000026084e00c0
:101ca80008760800000000000000000000000000a6
:101cb80000000000b2080000020000000000000060
:101cc800b408000002000000020000000400000048
:101cd800ae0800000400000000000000b608000084
:0c1ce800020000000000000000000000ee
:020000040000fa
:0200000401f009
:04000000ffff0000fe
:020000040000fa
:0200000401f009
:04000800ffff0000f6
:020000040000fa
:0200000401f009
:04000c00f9ff0000f8
:020000040000fa
:0200000401f009
:0400100033ff0000ba
:020000040000fa
:0200000401f009
:040014005fff00008a
:020000040000fa
:0200000401f009
:04001800ffff0000e6
:020000040000fa
:0200000401f009
:04001c00fdff0000e4
:00000001FF
