:020000040000fa
:080000000002040000000000f2
:020000040000fa
:04000800f4030000fd
:020000040000fa
:04000c00f4030000f9
:020000040000fa
:04001000f4030000f5
:020000040000fa
:04001400f4030000f1
:020000040000fa
:04001800f4030000ed
:020000040000fa
:04001c00f4030000e9
:020000040000fa
:04002000f4030000e5
:020000040000fa
:04002400f4030000e1
:020000040000fa
:04002800f4030000dd
:020000040000fa
:04002c00f4030000d9
:020000040000fa
:04003000f4030000d5
:020000040000fa
:04003400c8020000fe
:020000040000fa
:04003800f4030000cd
:020000040000fa
:04003c00f4030000c9
:020000040000fa
:04004000f4030000c5
:020000040000fa
:04004400f4030000c1
:020000040000fa
:04004800f4030000bd
:020000040000fa
:04004c00f4030000b9
:020000040000fa
:04005000f4030000b5
:020000040000fa
:04005400f4030000b1
:020000040000fa
:04005800f4030000ad
:020000040000fa
:04005c00f4030000a9
:020000040000fa
:04006000f4030000a5
:020000040000fa
:04006400f4030000a1
:020000040000fa
:04006800f40300009d
:020000040000fa
:04006c00f403000099
:020000040000fa
:04007000f403000095
:020000040000fa
:04007400f403000091
:020000040000fa
:04007800f40300008d
:020000040000fa
:04007c00f403000089
:020000040000fa
:04008000f403000085
:020000040000fa
:04008400f403000081
:020000040000fa
:04008800f40300007d
:020000040000fa
:04008c00f403000079
:020000040000fa
:04009000f403000075
:020000040000fa
:04009400f403000071
:020000040000fa
:04009800f40300006d
:020000040000fa
:04009c00f403000069
:020000040000fa
:0400a000f403000065
:020000040000fa
:0400a400f403000061
:020000040000fa
:0400a800f40300005d
:020000040000fa
:0400ac00f403000059
:020000040000fa
:0400b000f403000055
:020000040000fa
:0400b400f403000051
:020000040000fa
:0400b800f40300004d
:020000040000fa
:0400bc00f403000049
:020000040000fa
:0400c000f403000045
:020000040000fa
:0400c400f403000041
:020000040000fa
:0400c800f40300003d
:020000040000fa
:0400cc00f403000039
:020000040000fa
:0400d000f403000035
:020000040000fa
:0400d400f403000031
:020000040000fa
:0400d800f40300002d
:020000040000fa
:0400dc00f403000029
:020000040000fa
:0400e000f403000025
:020000040000fa
:0400e400f403000021
:020000040000fa
:0400e800f40300001d
:020000040000fa
:0400ec00f403000019
:020000040000fa
:0400f000f403000015
:020000040000fa
:0400f400f403000011
:020000040000fa
:0400f800f40300000d
:020000040000fa
:0400fc00f403000009
:020000040000fa
:04010000f403000004
:020000040000fa
:04010400f403000000
:020000040000fa
:04010800f4030000fc
:020000040000fa
:04010c00f4030000f8
:020000040000fa
:04011000f4030000f4
:020000040000fa
:04011400f4030000f0
:020000040000fa
:04011800f4030000ec
:020000040000fa
:04011c00f4030000e8
:020000040000fa
:04012000f4030000e4
:020000040000fa
:04012400f4030000e0
:020000040000fa
:04012800f4030000dc
:020000040000fa
:04012c00f4030000d8
:020000040000fa
:04013000f4030000d4
:020000040000fa
:04013400f4030000d0
:020000040000fa
:04013800f4030000cc
:020000040000fa
:04013c00f4030000c8
:020000040000fa
:04014000f4030000c4
:020000040000fa
:04014400f4030000c0
:020000040000fa
:04014800f4030000bc
:020000040000fa
:04014c00f4030000b8
:020000040000fa
:04015000f4030000b4
:020000040000fa
:04015400f4030000b0
:020000040000fa
:04015800f4030000ac
:020000040000fa
:04015c00f4030000a8
:020000040000fa
:04016000f4030000a4
:020000040000fa
:04016400f4030000a0
:020000040000fa
:04016800f40300009c
:020000040000fa
:04016c00f403000098
:020000040000fa
:04017000f403000094
:020000040000fa
:04017400f403000090
:020000040000fa
:04017800f40300008c
:020000040000fa
:04017c00f403000088
:020000040000fa
:04018000f403000084
:020000040000fa
:04018400f403000080
:020000040000fa
:04018800f40300007c
:020000040000fa
:04018c00f403000078
:020000040000fa
:04019000f403000074
:020000040000fa
:04019400f403000070
:020000040000fa
:04019800f40300006c
:020000040000fa
:04019c00f403000068
:020000040000fa
:0401a000f403000064
:020000040000fa
:0401a400f403000060
:020000040000fa
:0401a800f40300005c
:020000040000fa
:0401ac00f403000058
:020000040000fa
:04020800f4030000fb
:020000040000fa
:04020c00f4030000f7
:020000040000fa
:04021000f4030000f3
:020000040000fa
:04021400f4030000ef
:020000040000fa
:04021800f4030000eb
:020000040000fa
:04021c00f4030000e7
:020000040000fa
:04022000f4030000e3
:020000040000fa
:04022400f4030000df
:020000040000fa
:04022800f4030000db
:020000040000fa
:04022c00f4030000d7
:020000040000fa
:04023000f4030000d3
:020000040000fa
:04023400f4030000cf
:020000040000fa
:04023800f4030000cb
:020000040000fa
:04023c00f4030000c7
:020000040000fa
:04024000f4030000c3
:020000040000fa
:04024400f4030000bf
:020000040000fa
:04024800f4030000bb
:020000040000fa
:04024c00f4030000b7
:020000040000fa
:04025000f4030000b3
:020000040000fa
:04025400f4030000af
:020000040000fa
:04025800f4030000ab
:020000040000fa
:04025c00f4030000a7
:020000040000fa
:04026000f4030000a3
:020000040000fa
:04026400f40300009f
:020000040000fa
:04026800f40300009b
:020000040000fa
:04026c00f403000097
:020000040000fa
:04027000f403000093
:020000040000fa
:04027400f40300008f
:020000040000fa
:04027800f40300008b
:020000040000fa
:04027c00f403000087
:020000040000fa
:04028000f403000083
:020000040000fa
:04028400f40300007f
:020000040000fa
:04028800f40300007b
:020000040000fa
:04028c00f403000077
:020000040000fa
:04029000f403000073
:020000040000fa
:04029400f40300006f
:020000040000fa
:04029800f40300006b
:020000040000fa
:04029c00f403000067
:020000040000fa
:0402a000f403000063
:020000040000fa
:0402a400f40300005f
:020000040000fa
:0402a800f40300005b
:020000040000fa
:0402ac00f403000057
:020000040000fa
:0402b000f403000053
:020000040000fa
:0402b400f40300004f
:020000040000fa
:0402b800f40300004b
:020000040000fa
:0402bc00f403000047
:020000040000fa
:0402c000f403000043
:020000040000fa
:0402c400f40300003f
:020000040000fa
:0402c800f40300003b
:020000040000fa
:0402cc00f403000037
:020000040000fa
:0402d000f403000033
:020000040000fa
:0402d400f40300002f
:020000040000fa
:0402d800f40300002b
:020000040000fa
:0402dc00f403000027
:020000040000fa
:0402e000f403000023
:020000040000fa
:0402e400f40300001f
:020000040000fa
:0402e800f40300001b
:020000040000fa
:0402ec00f403000017
:020000040000fa
:0402f000f403000013
:020000040000fa
:0402f400f40300000f
:020000040000fa
:0402f800f40300000b
:020000040000fa
:0402fc00f403000007
:020000040000fa
:04030000f403000002
:020000040000fa
:04030400f4030000fe
:020000040000fa
:04030800f4030000fa
:020000040000fa
:04030c00f4030000f6
:020000040000fa
:04031000f4030000f2
:020000040000fa
:04031400f4030000ee
:020000040000fa
:04031800f4030000ea
:020000040000fa
:04031c00f4030000e6
:020000040000fa
:04032000f4030000e2
:020000040000fa
:04032400f4030000de
:020000040000fa
:04032800f4030000da
:020000040000fa
:04032c00f4030000d6
:020000040000fa
:04033000f4030000d2
:020000040000fa
:04033400f4030000ce
:020000040000fa
:04033800f4030000ca
:020000040000fa
:04033c00f4030000c6
:020000040000fa
:04034000f4030000c2
:020000040000fa
:04034400f4030000be
:020000040000fa
:04034800f4030000ba
:020000040000fa
:04034c00f4030000b6
:020000040000fa
:04035000f4030000b2
:020000040000fa
:04035400f4030000ae
:020000040000fa
:04035800f4030000aa
:020000040000fa
:04035c00f4030000a6
:020000040000fa
:04036000f4030000a2
:020000040000fa
:04036400f40300009e
:020000040000fa
:04036800f40300009a
:020000040000fa
:04036c00f403000096
:020000040000fa
:04037000f403000092
:020000040000fa
:04037400f40300008e
:020000040000fa
:04037800f40300008a
:020000040000fa
:04037c00f403000086
:020000040000fa
:04038000f403000082
:020000040000fa
:04038400f40300007e
:020000040000fa
:04038800f40300007a
:020000040000fa
:04038c00f403000076
:020000040000fa
:04039000f403000072
:020000040000fa
:04039400f40300006e
:020000040000fa
:04039800f40300006a
:020000040000fa
:04039c00f403000066
:020000040000fa
:0403a000f403000062
:020000040000fa
:0403a400f40300005e
:020000040000fa
:0403a800f40300005a
:020000040000fa
:0403ac00f403000056
:020000040000fa
:100400000f8820000eff20000e0188000000000071
:10041000000020000000e000020032000001200087
:100420002002880014000700f10007000000e0002f
:1004300003003a00a0e32000010020000200370082
:100440000000200001002000810f70000100320038
:1004500014000700000020000000e000020032004d
:100460000000020000000000800b020000000000fd
:100470000040da000000fe004440a9000000200017
:100480000000e0000300320000002000a00188000e
:100490004440a800000006008a1f78008b1f7800e7
:1004a0000000060091018800800478000000eb0045
:1004b0001a003700e284440032a0b4009905ba0063
:1004c000e284440032a0b4009906ba00e2844400f9
:1004d00032a0b4000006eb00476fde00fd07b2005b
:1004e000636ce10003003a00ebff07000000eb0043
:1004f0000a003700606ce10004003a00005deb0088
:100500008b05e900fdff3e00040037006168e10053
:10051000010032000086eb000b00070019c7ba008b
:100520001905ba000e04e00003003a000a00e000da
:10053000e0ff3a0000000600fe07b2009e018800be
:100540008a047800f5ff3700395dba008b05e900b1
:100550000c003200295dba008b05e900080032006a
:100560000c00e00003003a00e284440032a0b40032
:10057000f5ff370019ddba008b05e900faff3a00f4
:100580008904e800e184440032a0b40000000600c1
:1005900000a0fe003400f800881f7800080020004a
:1005a000a80188004f0478000000fa000040800095
:1005b0001140800061004000e08048000040880059
:1005c0001140880040408000514080000001be0082
:1005d0004206b0000380b00000408000114080005f
:1005e000800f5100818f59007a003e00004080004a
:1005f0001140800040408800514088002040800029
:100600003140800061004000e080480020408800c8
:1006100031408800511680000000280000806000f2
:100620000000e0000a003a000cc8bf000040e800eb
:100630000ce8b7000cc8bf00e54f500005003600bd
:100640000cc8bf000040e9000ce8b700010037000b
:100650000c68ef0010168000640060000000e000ed
:100660000a003a000ec8bf000040e8000ee8b700dc
:100670000ec8bf00e54f5000050036000ec8bf0091
:100680000040e9000ee8b700010037000e68ef00f7
:1006900050168000680060000000e0000a003a0088
:1006a0000dc8bf000040e8000de8b7000dc8bf004e
:1006b000e54f5000050036000dc8bf000040e900be
:1006c0000de8b700010037000d68ef00101680003c
:1006d000680060000000e0000a003a000fc8bf0098
:1006e0000040e8000fe8b7000fc8bf00e54f50001a
:1006f000050036000fc8bf000040e9000fe8b70052
:10070000010037000f68ef00511680000020200024
:10071000008060000000e0000a003a0010c8bf003e
:100720000040e80010e8b70010c8bf00e54f5000d7
:100730000500360010c8bf000040e90010e8b7000f
:10074000010037001068ef00c18020009140780060
:1007500010c0b300e4cf500001003e000040eb00a9
:1007600011e8b700d18020009140780010c0b3009c
:10077000e4cf500001003e000040eb0012e8b7005b
:10078000e18020009140780010c0b300e4cf500019
:1007900001003e000040eb0013e8b700f1802000ac
:1007a0009140780010c0b300e4cf500001003e003b
:1007b0000040eb0014e8b700018120009140780070
:1007c00010c0b300e4cf500001003e000040eb0039
:1007d00015e8b7008460a9000080fa003400f90031
:1007e0000080fe00004006000040da000000fe002d
:1007f0000000050003f0a200889fbe008a9fbe0093
:100800008c1f7800fc000700030133006450e100f6
:100810004f0032006420e1005200320003826c007d
:1008200007003b000905d0000306d000820f5400ea
:100830000c065d00020039000200320089017800d8
:10084000030678008582550004003d000003fd008a
:100850008103fd008502ea008b854200840f72004f
:1008600002003b0060001000e08018006011b8003a
:100870000005eb007a28e1000a0039000600780044
:10088000c75ddd00f707b200878075002d003700d7
:10089000828171000a017800610560008180d100c9
:1008a0000080d3008502e900f9ff3b000604400008
:1008b0008784480002003b0060041400e0841c00b0
:1008c0000988a300070032008a81710082817100cb
:1008d000610164008904d1000884d3008b05e8001d
:1008e000170037000978a30013003a000b00e0005e
:1008f000130034008b05e9000804440089844c008f
:100900000a4474000978a3000d003a000b00e000cf
:10091000070034008b05e9000804440089844c007a
:1009200001003a000b0020000978a300f7ff320015
:100930000001eb0002003700828171000a0178009b
:10094000720007000cf0a70001f0a000bb00370008
:100950006420e10002003a00838f6c00bb0033008a
:100960000801be000200be00b4003700889fbe0030
:100970008a9fbe008c1f78009f000700a6003300ee
:1009800003866c006450e1002e0032006420e10018
:10099000330032006150e1002f0032006120e1009d
:1009a0003100320085855500eb07b00009002000ba
:1009b00008042000050037000804440089844c0026
:1009c0000a0031000603430087834b0000015300f7
:1009d00081815b00f8ff33000203be000800a00025
:1009e0000804440089844c00f6ff3900c639dd0054
:1009f0008301730001003200130020008904d1003c
:100a00000884d3000998a300050032000800a7005d
:100a10000300a0008904d1000884d3008b05e800fe
:100a20008904d1000884d3000001eb000281d200c8
:100a30003600070001f0a1000cf0a70001f0a000b3
:100a40007e0037006420e100800032000801be0013
:100a50000200be00f7ff37006120e1007b0032009a
:100a60006000b800f3ff37000000200001f8270005
:100a7000f0ff370014002000ab003700f4ff2f0018
:100a8000a90037000001be00460007000470a7005f
:100a900003f0a10003f8a30013003a006509b100b8
:100aa00010003200090035006928e100020035001d
:100ab000010028000000050000004000818048007f
:100ac0008502e900fcff3a0000000600f88f4200b2
:100ad000050035008100d1000080d3008502e800c8
:100ae000fcff3a00000006008000eb00000005005b
:100af0004f89de0082017800a60037006011b8003f
:100b0000b400370004002000870037008100200077
:100b1000618055000b003d000b00200061fe2f009e
:100b20000100e1001d003400828171006101640058
:100b30008904d1000884d3000000e800faff3a00dd
:100b4000710020006100640003007000020060007a
:100b50000900320061044400e0844c000988a500cb
:100b6000050032008b05e8006808e10002003a0049
:100b70008904d1000884d300f20f20000258e1005c
:100b800005003d00c75ddd00f907b20089807500f2
:100b900008007800000006000bf827008b007800a2
:100ba00000000500c70ade00f107b200f50fb20031
:100bb00008003200e1cf4200020032000170a000c4
:100bc00024000500810f70000100320004080500b8
:100bd00044000500810f700002003a001400050077
:100be0008502e9000000400081c04800fcff3b0096
:100bf0000170a000240005000004be00e9ff07000a
:100c00000003be000405be000200be00e5ff0700b1
:100c1000844f7500000006000200be006450e10031
:100c2000050036006420e100020036000968a300d8
:100c300001003a000800be000160a0004f067800e5
:100c40004f05be004f04be0000000600f0ff2f005d
:100c5000f1ff2700f9ff3700889fbe008a9fbe0082
:100c60008c1f7800e4ff0700ebff330003866c0065
:100c70006450e100240032006420e10027003200cb
:100c80006150e100220032006120e10021003200c9
:100c90008b854200eb07b1000134b800003ab80080
:100ca0000804420089844a00013ab8000030b800c4
:100cb0008880400009014a00040033000000400021
:100cc00081804800020149008b05e900c909dd0067
:100cd000830170000100320013002000c814de0000
:100ce0004814dd004709de001200b200c808de002b
:100cf0000884700085ff070001f0a1000cf0a70038
:100d000001f0a000cdff37006120e100cfff3200ed
:100d10000801be000200be00f7ff37006150e1008d
:100d2000fcff3a00c9ff3700889fbe008a9fbe00c3
:100d3000841f7800b0ff07004f00780011003300d7
:100d4000f0ff2f00838f6c0006003b000405650058
:100d50000a00a7000800370009f0a60010002000d4
:100d600008003700820f5400838f5c0003003900b5
:100d70001000200001003e000000200009f0a70044
:100d80000000ea004f05be004f04be000000e00076
:100d900000000600881f7800030478000300e000cc
:100da00007003d0060001000e0801800600119009d
:100db000e081190002003b0001f02d000300370024
:100dc0000400070008f0a70001f0a0004f0478001d
:100dd00000000600889fbe008a9fbe00008270004f
:100de0000402710004827100260032000004be007b
:100df0000200be006011b8006b09200095022000bf
:100e00000182cf000a0039000541b1000082cf0005
:100e1000070039000541b1000982cf000400390004
:100e20000541b1000882cf00010039000541b10041
:100e300005425200120032000a003b00828171001c
:100e4000610164008100d1000080d3008984d30057
:100e50000884d3008b05e8000442e800f7ff3a005d
:100e6000070037000804440089844c000000480053
:100e7000818048008b05e9000442e900f9ff3a004f
:100e800022ff07004f05be004f04be000000060011
:020000040000fa
:100e90001400fa00889fbe0060079800614f980018
:100ea000020f9800130f98006e00900060029000ef
:100eb000f00290006e009000f00090006000900042
:100ec0000001be000400be0063ff07000004be0076
:100ed0006e009000b0089000200890000001be0055
:100ee00045fe07000001be000800be009ffe07008f
:100ef000e4fe070040079800510798006e0090003c
:100f000040099000d009900022079800330798000c
:100f10006e4890000004e000040032000e099000ca
:100f20009e099000028fbe00080037006e009000fe
:100f300060119000f01190006e009000d0109000b1
:100f400040109000001f5100019759001e00be0084
:100f5000e00f5000e08f580014003a004e0190005e
:100f6000de0190001000200001002000800f5100e1
:100f7000818f59000d003e006e0190006000b800a6
:100f800060019800710198006e0190006000b80047
:100f900040099800510998006e0190006000b80067
:100fa0002011980031119800b30037001e00be00d8
:100fb000e00f5000e08f5800290034006e009000d0
:100fc000b010900020109000e00f5000e08f58000b
:100fd0000e0034001e01be004e009000de009000a6
:100fe000800f5100818f59004f003e004e0090004d
:100ff000de00900060001000e08018006e0190009c
:101000002011980031119800470037006e009000c1
:10101000b010900020109000e00f5000e08f5800ba
:1010200041003d001e01be004e009000de00900019
:10103000800f5100818f59003b0036006e009000f8
:10104000b01090002010900060001000e0801800a8
:101050006e01900020119800311198003200370085
:101060001e00be00e00f5000e08f58002e003d0033
:101070006e009000b010900020109000e00f500023
:10108000e08f5800110034001e00be006000100008
:10109000e08018000001be004e009000de009000cd
:1010a000800f5100818f59001f003e004e009000bc
:1010b000de00900060001000e08018006e019000db
:1010c0002011980031119800170037006e00900031
:1010d000b010900020109000e00f5000e08f5800fa
:1010e00011003d001e00be0060001000e0801800ee
:1010f0000001be004e009000de009000800f510005
:10110000818f5900080036006e009000b0109000ea
:101110002010900060001000e08018006e01900028
:1011200020119800311198006e009000b0109000ce
:1011300020109000e00f5000e08f580006003a00a9
:101140006e0090000011900090119000220798000e
:1011500033079800280037002e009000be00900052
:101160000001be00a4fd07000004be006e00900058
:10117000b01090002010900061004000e080480016
:101180005bfe07000200200003082400b2fe0700f7
:101190000001be000800be00f4fd07000001be0013
:1011a0002e009000be00900092fd070020079800de
:1011b000310798006e009000f008900060089000e1
:1011c00018c0b3002e019000be0190002bfe070056
:1011d0000000e00001003c000044eb000804e000d7
:1011e000050032006e00900060099000f009900048
:1011f00022079800330798006e009000b01090000e
:101200002010900061004000e08048006e019000d6
:1012100020119800311198006e0090002e0190006e
:10122000be01900042089800530898002e019000db
:10123000be01900000002500317c2400cbfd07009a
:101240006e01900060019800710198001e00be00c0
:10125000e00f5000e08f580007003d006e00900046
:10126000f00090006000900001f0a2006e0190007c
:1012700060019800710198004f04be000080fa00e0
:10128000000006000800fa00889fbe008a1f780050
:10129000000f7800214798003247980024079800f3
:1012a000350798001e007800d00890004008900094
:1012b00018c0b3006011b800f0fd07000000e000a6
:1012c00001003c000044eb000804e000bf003200d5
:1012d0001e00780040029000d00290001e007800ae
:1012e000d0089000400890000001be000400be003d
:1012f00041fd07000004be002e009000be009000db
:10130000fefd07001ac0b3000001be000800be00c9
:10131000d8fd07000000e000010034000045eb00ac
:101320000a04e000a90032002e009000be009000e8
:10133000f2fd07001e01780040019800510198005d
:101340001e007800f00090006000900018c0b3000c
:101350006011b800c9fd07000000e00001003c007a
:101360000044eb000804e000460032003e409000dc
:101370000004e00043003a001e0078007040900036
:101380000004e0000d0032001e00780020009000f4
:101390009e007800a1009000110178009e00780066
:1013a000e14090008180fb00130020008118dd00e7
:1013b00082807000010878000d0037001e00780060
:1013c000200090009e007800a1009000110178009c
:1013d0009e007800e14090008180fb001300200017
:1013e0008118dd008180ea00810061000108780039
:1013f0001e007800d0109000401090006100400066
:10140000e08048001e0178004011980051119800ba
:101410001e007800100078009e007800910078008f
:10142000110178009e007800a14090008180fb00af
:10143000130020008118dd00828070000108780010
:101440000002200001002000fc0107001e007800bf
:10145000100078009e00780091007800110178005b
:101460009e007800a14090008180fb0013002000c6
:101470008118dd008180ea008100610001087800a8
:10148000500037001e007800f000900060009000cf
:1014900018c0b3006011b80076fd07000000e0003e
:1014a000010035000044eb000804e0004500320074
:1014b0002e4090000004e00042003a001e00780038
:1014c000704090000004e0000e0032001e00780022
:1014d000200090009e007800a1009000110178008b
:1014e0009e007800e14090008180fb001300200006
:1014f0008118dd008180ea00810061000108780028
:101500000c0037001e007800200090009e0078003c
:10151000a1009000110178009e007800e140900049
:101520008180fb00130020008118dd0082807000a4
:10153000010878001e007800d01090004010900044
:1015400061005000e08058001e01780040119800b2
:10155000511198001e007800100078009e0078005d
:1015600091007800110178009e007800a140900061
:101570008180fb00130020008118dd008280700054
:10158000010878000002200001002000ab010700e4
:101590001e007800100078009e007800910078000e
:1015a000110178009e007800a14090008180fb002e
:1015b000130020008118dd008180ea0081006100b5
:1015c0000108780010c0b300010037000040eb00b4
:1015d0004f0578004f04be000080fa0000000600ae
:1015e0000600fa00000f7800120798002307980001
:1015f0001e00780060119000f01190001e00900015
:10160000ae009000800f5100818f5900070032001a
:101610001e0078001e019000ae019000621098003c
:101620007310980010c0b300010037000040eb00b9
:101630000080fa00000006000600fa00000f7800a3
:1016400012079800230798001e009000ae0090003b
:10165000e00f5000e08f58000b0032001e007800b1
:1016600040119000d01190001e009000ae0090003c
:1016700002004000838048000001be001e00780088
:10168000d7ff0700010037000040eb000080fa00a0
:10169000000006000600fa00000f7800120798000c
:1016a000230798001e007800900890000008900022
:1016b0001e019000ae01900012fd07000000e00046
:1016c0000d0032001e0078001e019000ae01900057
:1016d00002089800130898001e019000ae019000c7
:1016e0000040220041972400a0fc07001e01780062
:1016f00060099800710998000080fa000000060057
:101700000000fa009a000700a4000700ba000700d2
:10171000c3000700dc000700f4000700a000200061
:10172000e50007009119200001017800110009006f
:101730000280d8008000eb00b0438800c1438800dd
:10174000b0002000dc0007009119200001017800a2
:10175000110009000280d8008000eb00d04388000f
:10176000e1438800b0438000c143800002ee2200c4
:101770000289b900020178006002b9008401780092
:101780000301410003ee22000300b8000101410003
:1017900082007800025a2100f3ff2f000000410070
:1017a00081804900b0438800c1438800d043800055
:1017b000e143800002ee22000289b90002017800b4
:1017c0006002b900840178000301410003ee2200a9
:1017d0000300b8000101410082007800025a210094
:1017e000f3ff2f000000410081804900d0438800b2
:1017f000e1438800b0438000c1438000e00f500007
:10180000e08f58001c003200b0438000c1438000cc
:10181000b7fc07001041880021418800b0438000d8
:10182000c1438000e00f5000e08f580009003400f1
:1018300010418000214180000001be0000402200d4
:101840004197240049fc07007041880081418800cd
:1018500009003700104180002141800001f0a20002
:101860000001be0000402200419724003ffc070019
:101870007041880081418800d0438000e1438000ae
:10188000e00f5000e08f58001c003200d043800071
:10189000e143800096fc070090428800a142880046
:1018a000d0438000e1438000e00f5000e08f5800fb
:1018b0000900340090428000a14280000001be0077
:1018c000004022004197240028fc0700f0428800d5
:1018d000014388000900370090428000a142800047
:1018e00001f0a2000001be00004022004197240048
:1018f0001efc0700f04288000143880015c8bf00a5
:101900000004e00003003200c0122000e00a88005a
:1019100002003700800c2000e00a880000408000b0
:1019200011408000228120001241780013812000a4
:10193000934178000002be0083407800608120005f
:1019400050fe0700004080001140800042812000ce
:101950001241780033812000934178000002be00dc
:10196000834078006084200046fe07006bff37004c
:101970000000fa00213a8000f0ff2800008060009b
:10198000203a8800213a8000f08f2f00008060000c
:10199000203a88000080fa00000006000000fa00eb
:1019a000e024ef00c042a80071c0a800c062a800f7
:1019b00071a0a800c0e2a900e224ef00e3a4a800ff
:1019c000e3c4a800c822a900c862a8006ee0a8006d
:1019d000c922a80070a0a800c942a900c962a90034
:1019e000c9a2a800c9c2a800c9e2a8006f60a800e7
:1019f0000080fa00000006000000fa000000280045
:101a0000200888000021ef00f0092000100888005d
:101a10008460a9009460a8000080fa00000006001d
:101a20000000fa004021ef0041e1a800010a800017
:101a3000000c200001007000000a8800010a8000ec
:101a400000ff2f00008060005000b300000a8800f3
:101a50004221ef004421ef004621ef004721a8007a
:101a60004821ef004a21ef005021ef00803821008b
:101a7000a00a88005821ef00800c2000e00a8800ae
:101a80000080fa00000006000000fa000047200075
:101a9000001a88004223ef0030002100201a88003d
:101aa0005023ef0085a0a90095a0a90041e3a8005c
:101ab0000080fa00000006000200fa00000f780023
:101ac0009e007800411a88004023a8000000000012
:101ad000001a8000610060000000e000fcff32009e
:101ae000001880000080fa00000006000000fa00e4
:101af00000002600a1762400304188004141880082
:101b000030418000414180000001be0000402200c1
:101b10004197240095fb070090418800a14188006f
:101b200000802c00f17a2400504188006141880037
:101b300000002000b13e2400b0418800c14188006f
:101b40006000b80010418800214188006000b800a2
:101b5000f0408800014188006000b80070418800b2
:101b6000814188003e28ef004028ef00c02c200073
:101b7000d0408800a0c0b3001ce8b700c02c2000f3
:101b8000b0408800b0c0b30018e8b70010c0b30080
:101b90001de8b70000002600a1762400b0428800ae
:101ba000c1428800b0428000c14280000001be00f6
:101bb00000402200419724006cfb0700104388007e
:101bc0002143880000802c00f17a2400d042880054
:101bd000e142880000002000b13e2400304388002c
:101be000414388006000b80090428800a14288000c
:101bf0006000b80070428800814288006000b80030
:101c0000f0428800014388006e28ef007028ef0042
:101c1000402c20005042880070c0b3004ce8b70050
:101c2000c02c20003042880010c0b30048e8b70044
:0c1c30004d68ef000080fa000000060084
:020000040000fa
:101c3c00f03fb1000180b10006003500ee03090051
:101c4c0000000000403fb1000180b100fbff3d00ef
:101c5c001000b000203fb0000200350000800900e9
:081c6c0000000000000006006a
:020000040000fa
:101c74007e080000020000000200000001000000d5
:101c8400000800007e0000000000000000000000ca
:020000040000fa
:0200000401f009
:04000000ffff0000fe
:020000040000fa
:0200000401f009
:04000800ffff0000f6
:020000040000fa
:0200000401f009
:04000c00f9ff0000f8
:020000040000fa
:0200000401f009
:0400100033ff0000ba
:020000040000fa
:0200000401f009
:040014005fff00008a
:020000040000fa
:0200000401f009
:04001800ffff0000e6
:020000040000fa
:0200000401f009
:04001c00fdff0000e4
:00000001FF
